:020000040800F2
:10000000B81B0020D50000080D1900083F17000894
:1000100000000000000000000000000000000000E0
:10002000000000000000000000000000FD190008B2
:1000300000000000000000002D010008FF1900086A
:10004000E7000008E7000008E9190008E7000008D9
:10005000E7000008E7000008E7000008E7000008E4
:1000600000000000E7000008E7000008E7000008C3
:10007000E7000008E700000800000000E7000008B3
:1000800000000000F11A000800000000000000005D
:10009000E700000800000000E7000008E700000893
:1000A000E7000008E7000008E7000008E700000894
:1000B000E7000008E7000008000000000000000062
:1000C0000348854600F0EAF8004800470D2600087E
:1000D000B81B00200448804704480047FEE7FEE7BD
:1000E000FEE7FEE7FEE7FEE79D1A0008C1000008F4
:1000F00072B6704762B67047EFF3108072B6704701
:1001000080F3108870471B481B490160002080F372
:1001100009881A481A49016062B6FEE7174818496B
:1001200001607047154816490160704772B6EFF3D9
:10013000098000280AD02038F0C044464D46564673
:100140005F46F0C020380F49096808600D480E4925
:100150000A6802601068F0C80CC8904699460CC83E
:1001600092469B4680F309887046042108438646E0
:1001700062B6704720ED00E00000FF0004ED00E0F3
:1001800000000010100000201400002030B50B46C5
:10019000014600202022012409E00D46D5409D4261
:1001A00005D31D469540491B2546954040191546E7
:1001B000521E002DF1DC30BDF0B51FB40646002004
:1001C00082B005464024019100901BE0019922462F
:1001D0000F46304600F050F8049A059B801A99416A
:1001E00010D310461946224600F036F8361A8F41D1
:1001F0000197224601200021009F00F02DF83818B9
:100200004D4100902046641E0028DFDC019B0098D1
:100210002946324607B0F0BDD2B201E00270401C60
:10022000491EFBD270470022F6E710B513460A4676
:1002300004461946FFF7F0FF204610BD10B5002216
:1002400000E0521C835C8C5CA34201D1002BF8D1EE
:10025000D8B2E1B2401A10BD10B5202A04DB014625
:10026000203A9140002010BD914020239C1A034663
:10027000E3401943904010BD10B5202A04DB084626
:10028000203AD040002110BD0B46D340D04020245E
:10029000A21A91400843194610BD0000064C0125E2
:1002A000064E05E0E36807CC2B430C3C984710341E
:1002B000B442F7D3FFF708FF1039000830390008BF
:1002C00070470000F8B500230124A2E027469F40B4
:1002D0003A4070D04D68022D01D0122D14D1DD08A6
:1002E000AD002D1800952D6A5E07AC46F50E0F2661
:1002F000AE46AE406546B543AC460E697546AE4067
:1003000065462E43009D2E624D68012D05D0022DBD
:1003100003D0112D01D0122D16D185680326AC46CD
:100320005D00AE46AE406546B543AC46CE68754608
:10033000AE4065462E43866046680D79BE43ED06A5
:10034000ED0F9D403543456006685F000325BD40C5
:10035000AE46AE430D79B446AE07B60FBE40654615
:100360002E430660C6687546AE438D68BD40354372
:10037000C5604D68ED004BD5294D6E6B26436E630D
:100380009E08284DB6007519AC46AD689E07360F1D
:100390000F27B740BD4305273F07B84201D10027CB
:1003A00015E0214FB84201D1012710E01F4FB8429C
:1003B00002D102270BE02BE01D4FB84201D10327E9
:1003C00005E01C4FB84201D1052700E00627B740E1
:1003D0002F436546AF60184D2E684F689643FF0364
:1003E00000D516432E606E684F689643BF0300D554
:1003F00016436E60AE684F689643FF0200D5164301
:10040000AE60EE684F689643BF0200D51643EE60BB
:100410005B1C0A681546DD4000D057E7F8BD0000B8
:10042000001002400000014000040050000800508D
:10043000000C0050001C005000040140002A01D0B4
:100440008161704781627047014800687047000011
:100450000000002002480168491C0160704700004C
:100460000000002010B50848002401684022114314
:100470000160204600F00AF8002801D0012401E0C4
:1004800000F01CF8204610BD0020024070B5054663
:1004900009487D210024C9000068FFF777FE00F0BD
:1004A0004DFF002801D0012404E000222946501EFF
:1004B00000F01AF8204670BD040000200448416B8B
:1004C000012211434163816B020411438163704730
:1004D00000100240C106C90E012088400149086091
:1004E0007047000000E100E010B501F011FA10BD06
:1004F0000248016882151143016070470070004096
:10050000094B1A689208920002431A600748026970
:1005100004239A430261012904D040BF20BF20BFB9
:1005200000BF704730BFFBE70070004000ED00E007
:100530000548016802221143016004480169042250
:100540001143016130BF70470070004000ED00E0D2
:100550000A4B1A689208920002431A60084803691D
:10056000042213430361012906D040BF20BF20BFEE
:10057000016991430161704730BFF9E700700040A5
:1005800000ED00E0F8B504460078544D800672D5C1
:10059000524E0027403EB06BC00004D4B06BA9059A
:1005A0000843B06301274E480168C90511D40168AA
:1005B000821511430160FFF747FF009005E0FFF748
:1005C00043FF0099401A642837D845480068C005A1
:1005D000F5D532680321090560680A40014091425F
:1005E00008D08103890F032904D13168890301D51B
:1005F0000120F8BD2A69032109040A4022D00840DD
:1006000090421FD0207880061CD528692A6988432B
:100610000121C9040A432A612A698A432A6128619F
:10062000C0050FD5FFF710FF009008E0FFF70CFFA3
:100630000099411A2B48814201D90320F8BD28694D
:100640008005F3D561688803800F032805D13268DF
:100650000005824301400A43326028690322616831
:100660001204114008432861002F04D0B16B01200F
:1006700000078143B1632078C00705D0E868A1680E
:10068000800880000843E8602078800705D5E86886
:100690000C218843E1680843E8602078400706D5CC
:1006A000E86803218902884321690843E8602078CB
:1006B000000706D5E86803210903884361690843F8
:1006C000E8602078000606D5E8680321890488439D
:1006D000A1690843E8600020F8BD00004010024016
:1006E0000070004088130000F8B50E4605007DD06C
:1006F00053480068C007C00FB0420AD25048016892
:1007000049084900314301600068C007C00FB0428A
:1007100071D128784B4C800705D5E068F0218843DB
:10072000A9680843E0602878C00752D068680228AA
:1007300017D0032818D02168012818D0890500296E
:1007400059DAE168890889000143E160FFF77CFE1E
:1007500069680746022912D003291CD0012926D036
:1007600033E021688903EAE721688901E7E749075F
:10077000E5E7FFF769FEC11B3348814223D8E068F3
:100780000007800F0228F4D123E0FFF75DFEC11BB4
:100790002D48814217D8E0680007800F0328F4D164
:1007A00017E0FFF751FEC11B274881420BD8E068D4
:1007B0000007800F0128F4D10BE0FFF745FEC11BB5
:1007C0002148814201D90320F8BDE0680007800F6D
:1007D000F3D11B480168C907C90FB1420DD901689F
:1007E0004908490031430160006800E003E0C007A8
:1007F000C00FB04201D00120F8BD2878400706D5CF
:10080000E068072109028843E9680843E060287826
:10081000000707D5E0680721C90288432969C90094
:100820000843E06000F036F8E168084A0906090F5D
:10083000515CC840064908600020FFF727FEF8BD5C
:10084000002002400010024088130000DC3800083D
:1008500004000020044805490068C968044A4905A5
:10086000490F515CC840704704000020001002404E
:10087000F5380008044805490068C968044A890435
:10088000490F515CC840704704000020001002402E
:10089000F538000810B5184AD1680C200840042823
:1008A0000BD0082810D00C2810D050680004410F3D
:1008B0000120C003491C884010BD1068C00601D546
:1008C0000E4810BD0E4810BD0E4810BD88020E4BDC
:1008D000000F185C0902D368890F491CDB0301D59E
:1008E000084A05E01268D20601D5044A00E0044A2D
:1008F0005043FFF74BFC10BD0010024000093D00C3
:100900000024F40000127A00EC380008FEB505005F
:100910007ED0FE4CE7680C20E6680740012000040A
:1009200006402878C00747D0082F05D00C2F0AD1E1
:1009300001200004864206D1206880033CD5686807
:100940000028E5D038E0012069680004814203D125
:1009500021680143216011E0052301221B04920458
:100960009942216802D111432160F1E7814321605E
:100970002168014000912068904320606868002849
:100980000DD0FFF761FD009005E0FFF75DFD0099D8
:10099000401A64287AD820688003F6D50CE0FFF767
:1009A00053FD009005E0FFF74FFD0099401A6428C1
:1009B000F0D820688003F6D42878800755D509231D
:1009C000E868042F0DD00C2F01D1002E09D000288B
:1009D0003BD02168994301432160FFF735FD06466E
:1009E00027E02168490701D5002891D061681F22BE
:1009F000120291432A6912021143616021689943EE
:100A000001432160FFF746FFE16809060A0F00E095
:100A100079E1BF49895CC840BE4908600020FFF702
:100A200035FD002872D120E0FFF70EFD801B022863
:100A3000B0D820684007F7D560681F2109028843B5
:100A400029690902084360600FE0206840084000FF
:100A50002060FFF7F9FC064604E0FFF7F5FC801B79
:100A6000022897D820684007F7D42878C0065FD5B9
:100A7000002F0CD0A869002849D02068FF2101313F
:100A800008432060FFF7E0FC06462DE0C0E0206848
:100A9000800502D5A8690028A7D06068072149030E
:100AA0008843296A084360606068297F0002000A61
:100AB000090608436060286A410B0120C003491CF5
:100AC0008840E16809060A0F9149895CC84091494C
:100AD00008600020FFF7DAFC002817D128E0FFF7B4
:100AE000B3FC801B0228A3D820688005F7D5606876
:100AF000072149038843296A084360606068297FA9
:100B00000002000A09060843606011E0E1E0216884
:100B1000FF20013081432160FFF796FC064604E088
:100B2000FFF792FC801B022872D820688005F7D45A
:100B30002878794E000724D568690028306910D0DC
:100B4000012108433061FFF77FFC009005E0FFF7CB
:100B50007BFC0099401A02285AD830698007F6D5E4
:100B60000FE0400840003061FFF76EFC009005E0A8
:100B7000FFF76AFC0099401A022849D830698007BB
:100B8000F6D42878400765D500200290A06BC000FD
:100B900006D4A06B012109070843A063012002903D
:100BA0005E480168C90511D40168821511430160CE
:100BB000FFF74AFC009005E0FFF746FC0099401A59
:100BC000642825D855480068C005F5D5FF20AA68D7
:100BD0000130824203D131690143316111E00121C9
:100BE0008902002A07D005231B029A4203D13269E9
:100BF0000A433261EFE732698243326130698843E8
:100C00003061A86800280FD0FFF71EFC009007E0B5
:100C10005EE0FFF719FC0099411A4148814257D81C
:100C200030698005F5D50DE0FFF70EFC009006E079
:100C3000FFF70AFC0099411A3948814248D83069C7
:100C40008005F5D40298002804D0A06B0121090783
:100C50008843A063686A002864D00C2F3ED0012628
:100C600036060228206805D0B0432060FFF7ECFB71
:100C700005462FE0B0432060FFF7E6FB074604E09F
:100C8000FFF7E2FBC01B022822D820688001F7D4BE
:100C9000E96AA86AE2680843296BFD231B049A43AA
:100CA00011430843E060206830432060FFF7CCFB2D
:100CB000054604E0FFF7C8FB401B022808D820685F
:100CC0008001F7D52EE0FFF7BFFB401B022801D9BA
:100CD0000320FEBD20688001F5D423E00128F8D070
:100CE000E06801210904AA6A014091420BD10F2159
:100CF0008904EA6A0140914205D10321890508402F
:100D0000296B88420ED00120FEBD00000010024079
:100D1000DC38000804000020401002400070004051
:100D2000881300000020EFE770470000F7B5054684
:100D300004462035287882B0012814D0012028707C
:100D4000022068702168CA204862216853204862E6
:100D50002068806800264005FF27002812DAFFF788
:100D600073FB00900AE0022005B0F0BDFFF76CFBBA
:100D70000099411A7D20C00081421CD82068C068BB
:100D80004007F3D420688168012292029143816078
:100D90002068C16880221140204A8918C160FFF78D
:100DA00053FB00900DE0FFF74FFB0099411A7D20A7
:100DB000C000814205D920684762032068702E7008
:100DC000D2E72068C0684007EDD5216803984861E4
:100DD00020688168C908C900816020688168049A18
:100DE000114381600E480268012109050A4302602F
:100DF00082680A438260206881680122920311435D
:100E00008160206881681211114381602068476207
:100E1000012068702E700020A6E700007FFBFFFF16
:100E2000000401407047000010B504460068C06827
:100E3000400509D52046FFF7F5FF2068C1688022EC
:100E40001140054A8918C160012004490005486124
:100E500001202034607010BD7FFBFFFF00040140C3
:100E60007047000070B50446006881688025C90499
:100E700000290BDAC068C00508D52046FFF7F0FF4F
:100E80002168C8682840FF388238C86020688168B7
:100E900089040BD5C068800508D52046FFF744FFBC
:100EA0002068C168054A29408918C16001200449A9
:100EB0004004486101202034607070BD7FFDFFFF59
:100EC00000040140F8B5040050D02546203568786C
:100ED000002803D12870204600F052F802206870E4
:100EE0002168CA204862216853204862204600F0E9
:100EF0005FFDFF2604270028206802D046626F703D
:100F000034E081681D4A1140816021688868626808
:100F1000A369104322691A43104388602168E0687E
:100F20000861206801692289120411430161206867
:100F3000C16880229143C1602068C16C8908890022
:100F4000C164E169606901432068C26C1143C164F6
:100F50002068806880060BD4204600F0D5F9002870
:100F600006D0206846626F70002028700120F8BD0E
:100F700020684662012068700020F8BDBFFF8FFF27
:100F800000B5114895B0816B020411438163FFF7EE
:100F9000AFFA0420009000200990FF200130029059
:100FA0006846FFF7B3FC20200D90C0020E900DA8FC
:100FB000FFF7E8FA04484030016901229204114326
:100FC000016115B000BD000000100240FEB50646EC
:100FD0000446203630780B4601283ED00120307080
:100FE000022070701846203000902068002780682A
:100FF000002A34D0400600D4DF7019789D780904A7
:101000000D435978DA780902120411430D4300990F
:10101000D869097809060D4305435869996905435C
:101020005868084300902168CA204862216853200C
:101030004862FF205A6A01308021824245D12268ED
:101040009368834393602068C2680A40FF3A823AFB
:10105000C260FFF7F9F9019024E00220FEBD4006CE
:1010600000D4DF70187800F097FC0504587800F081
:1010700093FC00020543987800F08EFC0543D87875
:10108000000405430098007800F086FC0006054344
:10109000D869C1E7FFF7D8F90199411A7D20C0004E
:1010A00081422AD82068C068C007F3D02068C56193
:1010B00021680098486420688168FF22013211434A
:1010C000816020688168120130E020688268012315
:1010D0005B029A4382602068C2680A401D49511829
:1010E000C160FFF7B1F901900EE0FFF7ADF901998A
:1010F000411A7D20C000814206D92168FF20486244
:10110000032070703770FEBD2068C0688007ECD582
:10111000206805622168009888642068816801223F
:10112000520211438160206881681201114381607D
:1011300009480268012149040A43026082680A439F
:1011400082602168FF2048620120707037700020A3
:10115000FEBD00007FFDFFFF00040140F8B505461D
:101160000446203528780B4601280FD0012028702E
:1011700002206870002A0BD0D8789E7800040643BD
:101180005878097800024903084317E00220F8BDA7
:101190005878C10603D5EF2108400A305870D87836
:1011A00000F0FAFB0604587800F0F6FB0002064354
:1011B000987800F0F1FB0643187840030643216855
:1011C000CA204862216853204862204600F0F0FBA4
:1011D0000027002811D11148064020684660206889
:1011E000C16880229143C1602068806880060CD469
:1011F000204600F089F8002807D02168FF204862C7
:10120000042068702F700120F8BD2168FF2048621B
:10121000012068702F700020F8BD00003FFFFF0024
:10122000F8B506460446203630780D46012822D00F
:101230000120307002207070206800278068002A2A
:101240001BD0400600D4EF702978A8780904084321
:101250006978EA7809021204114308430090216872
:10126000CA204862216853204862204600F0A0FB53
:10127000002837D116E00220F8BD400600D4EF70F8
:10128000287800F089FB0304687800F085FB0002F1
:101290000343A87800F080FB0343E878000403438D
:1012A0000093DCE71749009808402168086020682F
:1012B000816801229204914381602969E8680843AA
:1012C00021688A68104388602068C1688022914341
:1012D000C1602068806880060CD4204600F014F8B5
:1012E000002807D02168FF20486204207070377002
:1012F0000120F8BD2168FF2048620120707037701E
:101300000020F8BD7F7F7F0070B504460068C1688B
:10131000A0229143C160FFF797F87D260546F600AD
:1013200006E0FFF791F8401BB04201D9032070BDE1
:101330002068C0688006F4D5002070BD094910B54A
:10134000401E884201D9012010BD074C6061032175
:10135000081F00F0DDFA0020A061072020610020B6
:1013600010BD0000FFFFFF0000E000E0F0B5024606
:101370002032137E012B15D00127177602235376D6
:1013800005686C68AB687026B4430E6849682643EC
:101390008024A34319436E60006881605776002063
:1013A0001076F0BD0220F0BD70B5040005D02546D2
:1013B0002035687E002802D006E0012070BD0020A4
:1013C0002876204600F00AF802206876211D206861
:1013D00000F096FB01206876002070BD10B5006813
:1013E000084988420CD10848816B1022114381635F
:1013F000002211461120FFF777F81120FFF76AF855
:1014000010BD000000100040001002400268D368C8
:1014100001210B43D360006882685207520F062AED
:1014200002D002680A43026000207047022102468F
:10143000203251760168086A054B184203D10868CA
:1014400040084000086001205076002070470000EE
:10145000111100000168CA6852085200CA60006891
:10146000016A044A114203D1016849084900016038
:101470000020704711110000704770B504460068E5
:1014800001690025C9438907002915DBC168C943E3
:10149000890711D4E91E0161012020762068806946
:1014A0008007204602D0FFF7E7FF04E000F078F85D
:1014B000204600F076F8257620680169C94349077F
:1014C00017D4C168C943490713D40421C943016132
:1014D00002202076206880698005800F204602D097
:1014E000FFF7CAFF04E000F05BF8204600F059F86F
:1014F000257620680169C943090716D4C168C94324
:10150000090712D40821C94301610420207620680C
:10151000C0698007204602D0FFF7AEFF04E000F06C
:101520003FF8204600F03DF8257620680169C94360
:10153000C90617D4C168C943C90613D41021C943C9
:101540000161082020762068C0698005800F204650
:1015500002D0FFF791FF04E000F022F8204600F0EF
:1015600020F8257620680169C943C90708D1C168F8
:10157000C943C90704D1891E0161204600F012F851
:1015800020680169C943490609D4C168C9434906AD
:1015900005D44021C9430161204600F004F870BD24
:1015A000704770477047704710B5040003D0606FF4
:1015B000002802D007E0012010BD00217020015555
:1015C000204600F027F82420606720680168490859
:1015D00049000160204600F055FB0128ECD0606A0C
:1015E000002802D0204600F0B7FA2068416809229E
:1015F000D20291434160206881682A229143816030
:1016000020680168012211430160204600F00AFBB6
:1016100010BD000010B586B0044614216846FEF7E0
:1016200002FE1149206888421CD11048416B0122FA
:10163000920311434163C16A01221143C162C06A2E
:10164000694610400590032040020090022001905E
:10165000002002900320039004200490052000073E
:10166000FEF730FE06B010BD003801400010024009
:10167000FFB50446406F83B017460D4620285CD165
:10168000002D0AD0002F08D0A168C001814207D1E7
:101690002069002804D1E80702D0012007B0F0BD7E
:1016A000204660300290007C012846D0029801213B
:1016B00001740020E06721206067FEF7C5FE264622
:1016C00040360190378277820120A1680003814271
:1016D00002D12069002802D02F46002511E0002702
:1016E0000FE000228021204600F0E0FB002815D109
:1016F000002F15D02168387888627F1C708A401EC0
:101700007082708A019B002806980090E9D100221F
:101710004021204600F0CAFB002808D00320BDE786
:1017200028882168C005C00D8862AD1CE6E720202E
:101730006067029900200874B0E70220AEE7FEE778
:10174000F0B587B014216846FEF76DFD1C48C16AEC
:1017500001252943C162C16A29400591C26A02215B
:101760000A43C262C06A0526084036070590002277
:1017700004213046FEF762FE124F002280213846D7
:10178000FEF75CFE04200024009002946946019557
:1017900003943046FEF796FD402000900A480190E1
:1017A000694602943846FEF78DFD80200090029431
:1017B0006946019503943846FEF784FD07B0F0BDF5
:1017C00000100240000400500000111030B591B02C
:1017D00014216846FEF727FD0024282106A8059459
:1017E000FEF721FD29492A4812C07F21016084604B
:1017F000C4600461FF21446141600838FFF762FB67
:10180000002801D0FEF75CFD6846047044708470C7
:101810000394012269461E480494FFF701FD002845
:1018200001D0FEF74DFD01256846057545758575A6
:10183000C4752A4605A91648FFF790FC002801D078
:10184000FEF73EFD68460476447684760794099454
:101850000A940B940C9408A80D940576FF2001308F
:101860000F90012206A90A48FFF7B0FB002801D01B
:10187000FEF726FD002211460548FFF757FA00281B
:1018800001D0FEF71DFD11B030BD00000028004062
:10189000E80200201CB500240C490D480094019476
:1018A00012C004604460C4600838FFF77DFD002862
:1018B00001D0FEF705FD0094694605480194FFF745
:1018C00055FD002801D0FEF7FBFC1CBD00100040B8
:1018D0000C03002010B50C480A490160E1214902BF
:1018E000416000218160C16001618161C1610C22A0
:1018F000016242614162FFF757FE002801D0FEF706
:10190000DFFC10BD00380140480300207047000094
:101910008307FF22DB0E9A408907090E99400028B1
:101920000BDA0007000F0838830808489B001818D6
:10193000C36993430B43C3617047830804489B000A
:101940001B181868904308431860704700ED00E0CA
:1019500000E400E08307FF22DB0E9A408907090EAE
:10196000994000280BDA0007000F08388308084860
:101970009B001818C36993430B43C36170478308E6
:1019800004489B001B181868904308431860704770
:1019900000ED00E000E400E00022014602E00A3928
:1019A000C9B2521C0A29FAD21007000E0843704728
:1019B00070B504460068C168490613D40021C943C4
:1019C000C160FEF741FD7D260546F60006E0FEF704
:1019D0003BFD401BB04201D9032070BD2068C068A8
:1019E0004006F4D5002070BD10B50348FFF73AFA61
:1019F0000148FFF719FA10BDE8020020704710B542
:101A0000FEF728FD01F024FC002805D001F0E2FBE0
:101A100001F0C4FE01F0EEFB10BD000010B59AB05D
:101A200034216846FEF7FFFB14210DA8FEF7FBFBEF
:101A30001C2112A8FEF7F7FB174801680322D20207
:101A40009143C214891801600A200090102004906C
:101A500002200990400401210B900001059100240F
:101A60000C9003910A946846FEF750FF0F200D90EA
:101A700003200E900F941094012111940DA8FEF7ED
:101A800033FE21201290012040041390149412A8D8
:101A9000FEF778FD1AB010BD0070004010480168D4
:101AA000821511430160C1680E4A1140C16001688E
:101AB0000D4A114001608168490849008160016850
:101AC0000122920491430160C168FD2212049143F6
:101AD000C160002101610549C003886070470000B2
:101AE000001002400C40FF88F6FFF6FE00ED00E01B
:101AF00010B50248FFF7C1FC10BD000054170020CC
:101B000070B5026801239B07114C124D984203D017
:101B1000A04201D0A84203D17026B2434E6832439E
:101B2000984203D0A04201D0A84204D103231B0253
:101B30009A43CB681A4380239A430B691A43026085
:101B40008A68C262096881620121416170BD00003A
:101B5000000801400014014010B5818CC90707D06E
:101B600001684A6801235B049A43836A1A434A6006
:101B7000818C890707D501684A6801231B049A43B1
:101B8000C36A1A434A60818C490707D501684A68CD
:101B900001239B049A43036B1A434A60818C090713
:101BA00007D501684A680123DB039A43436B1A4354
:101BB0004A60818CC90607D50268916801231B031E
:101BC0009943836B19439160818C890607D501681D
:101BD0008A6801235B039A43C36B1A438A60818C32
:101BE000490612D503685A6801210905046C8A4325
:101BF00022435A60026C8A4207D10268516803236B
:101C00005B059943436C19435160818C090607D5E4
:101C100001684A680123DB04806C9A4302434A60EE
:101C200010BD0000F8B500260446C667FEF70CFCA0
:101C3000054620680068124F000709D501212B4690
:101C4000002249052046009700F030F900280DD108
:101C50002068006840070BD501212B46002289052A
:101C60002046009700F022F9002801D00320F8BD9B
:101C700020206067A067603426740020F8BD000053
:101C8000FFFFFF01F8B504462669A268E769324301
:101C90006669102000253E432368324378491E6858
:101CA000784F3E4016431E6023685A680326360369
:101CB000B243E66832435A602368A2698B4201D07E
:101CC000266A32439E680B273F02BE4316439E603E
:101CD0006D4E23686D4AB3420CD1D2689207920FC1
:101CE00006D0012A38D0022A34D0032A20D11EE09F
:101CF00001201DE0664EB3420AD1D2680C26324064
:101D000026D0042A28D0082A24D00C2A10D10EE08C
:101D10008B420DD1D66803229202164018D00122C0
:101D20009202B61A18D0B61A14D0964200D10820E2
:101D3000564A0126403A574FF6038B4236D10028C7
:101D40000CD002280DD0042812D008281FD11CE086
:101D50000020EDE70220EBE70420E9E7FEF77AFD3B
:101D600008E01068C00601D5384605E04A4803E09F
:101D7000FEF790FD002873D062685100511881422F
:101D800005D81103814202D303E03046F4E7012570
:101D900066E0010E06025008002330185941FEF794
:101DA0000BFA03210902411A3C4A55E0E169B142AC
:101DB00032D1030000F0BCF809070A0D062506061B
:101DC000062B0600E3E7FEF745FD1CE0FEF752FD9B
:101DD00019E010686168C00602D54808304A01E081
:101DE000304A48088018FEF7D1F980B201462E4AE1
:101DF00010399142CBD8511C01400007400F0843D5
:101E00002CE0FEF747FD616840004A08EAE7616898
:101E1000012248081204E5E7030000F089F80907E9
:101E20000A0D06260606062C0600B0E7FEF712FD90
:101E30001DE0FEF71FFD1AE010686168C00602D5BC
:101E40004808C01902E014484A081018FEF79EF925
:101E500080B20146144A1039914298D82168C8606E
:101E60000020206660662846F8BDFEF713FD616815
:101E70004A088018EAE7616848088019E6E7000028
:101E800000480040F369FFEF003801404010024075
:101E90000044004000093D000024F400FFFC0F0056
:101EA00000127A000048E801EFFF0000FFB581B0A2
:101EB00017460E4604460A9D09E0681C07D0FEF747
:101EC000C3FA0499401AA8420CD8002D0AD0206801
:101ED000C1693046884318D00020B842EDD00020B8
:101EE00005B0F0BD20680168FF22A1329143016076
:101EF0002068816849084900816020206067A067E8
:101F00000020603420740320EAE70120E5E70000A8
:101F10000FB410B503A9044B044A029800F02AF844
:101F200010BC08BC04B01847B12400086C000020A5
:101F300030B47446641E2578641CAB4200D21D4642
:101F4000635D5B00E31830BC184710B500F0BEFAC3
:101F5000401E10BD02E008C8121F08C1002AFAD1B5
:101F600070477047002001E001C1121F002AFBD119
:101F700070470000FFB58FB00F460446002606E00C
:101F800025280AD0129A11999047641C761C207853
:101F90000028F5D1304613B0F0BD00250121A14A3B
:101FA000009500E00543641C23780846203B9840D8
:101FB0001042F7D120782E2815D1042005436078EF
:101FC000641C2A280AD101CF641C00900BE0009900
:101FD0000A22514330394018641C00902078014691
:101FE00030390929F3D920786C280ED004DC4C282C
:101FF00013D06A2812D104E074280ED07A280DD1AB
:102000000BE001204005054307E001210905627846
:102010000D43824201D16D18641C641C20788646F1
:1020200069284AD008DC0028B4D058286DD063282D
:1020300010D0642808D140E070286BD0732812D0EB
:10204000752860D0782860D0129A70461199904710
:10205000761CE5E03878694608720020487202A8CC
:102060000190012003E0386801900020C0433F1D2B
:1020700069070CD5002500E06D1C00998D420FDA30
:102080008542F9DB0199495D0029F5D108E0002579
:1020900000E06D1C8542FCDB0199495D0029F8D107
:1020A000761907E0019801990078491C0191129A6C
:1020B000119990476D1EF5D2B2E00A2002900021DE
:1020C0006802400F039102280CD001CFC11784464B
:1020D00000290DDA624608465242002181419446A9
:1020E0002D2008E0FF1DFF08FF0003CF8446EFE727
:1020F000280504D52B206A46107401203CE0E8072F
:102100003AD02020F7E70A2000E0102000210391B8
:10211000029007E0102002900021042005430820CF
:10212000039100906802400F022810D001CF0021D7
:10213000844600200D9028071FD5704670280CD0CB
:10214000029A1020039B42401A430CD015E0FF1D59
:10215000FF08FF0003CF8446EBE740206A46107477
:1021600001200D900CE06046084306D030206A46FE
:1021700010747046507402200D907046582804D098
:1021800029A001900DA80E900DE02CA0F9E7604663
:10219000039B029AFEF710F8019B84469B5C0E9A03
:1021A000521E0E92137060460843F0D10E9805A996
:1021B000081A20300190680701D5009801E001203D
:1021C00000900199884203DD01460198081A00E059
:1021D00000200025009006E004A8129A405D1199A5
:1021E00090476D1C761C0D988542F5DB04E0129A31
:1021F000302011999047761C0099481E00900029C4
:10220000F5DC08E00E980E990078491C0E91129AA0
:1022100011999047761C0199481E01900029F1DC24
:10222000641CB4E6092801003031323334353637C6
:102230003839616263646566000000003031323312
:1022400034353637383941424344454600000000B2
:1022500010B504464868616880088000001D401879
:102260006060204600F02AF8204610BD7CB5044688
:10227000406801AA80088000694600F0EFF90099E3
:102280000D48019BCA0112189D005519803506465C
:102290006A681036E660A260D4606C600122154660
:1022A0008D40046A89002C4304620818416A9A40F0
:1022B000114341627CBD0000D00A002010B50446E5
:1022C00000F021F8046010BD10B50446FFF7F6FFDA
:1022D0004168022211434160606801210843606047
:1022E00010BD70B5054600F00EF804460079C00731
:1022F00007D0204600F00FF821462846FFF7A8FF38
:102300000546284670BD01464068083180088000B7
:10231000001F081870471CB50446406801AA8008D1
:102320008000694600F09AF92046019A009900F071
:1023300017FC1CBD10B5FDF7F1FE10BD10B505482A
:10234000016805480068FDF721FF0449086000F0B6
:1023500019F810BD18000020040000201C00002007
:1023600010B5FDF7DFFE10BDFDF7CDFE10B500F096
:10237000C3FA10BD10B500F0C5FA10BD10B500F0DD
:10238000C5FA10BD10B50446002000F0E3FA20465F
:1023900000F0C2FA10BD10B500F0D2FA10BD000076
:1023A00010B50248006800F0DDFA10BD1C000020E6
:1023B00010B500F0EBFA10BD10B500F0F3FA10BD47
:1023C00030B5039C1C19E408E400CC2501E01D7025
:1023D0005B1CA342FBD301231B06251F2B602B1F75
:1023E0001860181F0260144A001F0260134A001F81
:1023F0000260134A001F02605210001F0260001F9B
:1024000001601049001F01601101001F01600E49A9
:10241000001F0160D100001F01600C49001F016016
:102420000B49001F01600B49001F01609000403CF8
:102430002060204630BD0000121212120303030375
:102440000202020211111111090909090707070700
:1024500006060606050505058CB00221002001913F
:1024600000900146094B0A4A02A801F0C7F902A8E8
:1024700001F000FA074C01F003F8014606A0FFF74F
:1024800047FD204601F078F8F5E70000D92F000855
:1024900070170000B80B0000656E747279207461CB
:1024A000736B2064656D6F3A20256C640A00000030
:1024B00013B5044B012269460348FFF7D9F8009889
:1024C0001CBD0000FFFF0000480300202021002861
:1024D00013D0020C01D100041021020E01D1000220
:1024E0000839020F01D10001091F820F01D18000BC
:1024F000891E002800DB491E0846704700F0C0FF17
:10250000014604A0FFF704FD00F0D6FB00F0E4F95B
:10251000F4E7000069646C6520656E7472793A2096
:10252000256C640A000000001FB5074A0749002314
:102530001268096809206C460FC4054A05A10748BE
:1025400000F0AAFF04B010BD0439000800390008EB
:10255000FD24000869646C65000000005804002038
:102560000349884201D101207047002070470000D4
:102570005804002002480078002800D0012070474D
:102580000800002002480078002800D00120704791
:102590000900002003490968884201D101207047E1
:1025A000002070471000002010B500F0F3FB044637
:1025B00000F028FD844200D2204610BD10B50E4820
:1025C0000078012817D10D480078002813D10C4855
:1025D000007800280FD100F0DCFD044600F032FA4C
:1025E0000849086008490968884201D0FFF7A2FE3F
:1025F000204600F0CAFD10BD0A000020080000209F
:102600000900002014000020100000201FB5FDF775
:1026100029FFFFF703FAFFF793F8FFF75BF9FFF7DE
:1026200039F9FFF7D3F800F0B9FD01220023520277
:10263000054904206C460FC4044A05A1064800F071
:102640002BFF00F05BFEFEE770000020592400081D
:1026500064656D6F310000007002002070B5154692
:102660000E460446802805D2E117890F002009197B
:102670008C1006E0FFF769FC411F0C4120214C4003
:10268000801F30602C6070BD70B500220F4811466D
:1026900002608B001B18491C5A600329F9DB0B4CA4
:1026A00010348461C461002102628B001B185A62DD
:1026B0000023CD012D189E00AE1980365B1C74607E
:1026C000202BF8DB491C1829EFDB70BDD00A002055
:1026D00070B50C460546FFF7D7FF2146284600F0A7
:1026E00047FE70BD10B5084A0021136807E08C0052
:1026F000A4186468844201D1012010BD491C8B429A
:10270000F5DC002010BD0000D00A002070B50446A2
:102710000069A169E2694A601160002121610546F2
:1027200021734035297B0A260A2903D000F0BEFF19
:102730002E7370BD427D217D8A42FAD000F0B6FF33
:10274000267570BD10B50446FFF7E0FF0421201D7B
:1027500000F050F810BD0168814203D03C3901D02F
:10276000487D70470A20704710B50A683C3A134606
:102770003C338B4205D0437D547DA34201D3D26BC1
:10278000F4E703463C33146C13643C3214C3083B37
:1027900023600165017D02221143017510BD10B552
:1027A000C16B026C4A601160016DFFF7DDFF10BD67
:1027B000C16B026C4A60116000210165017DFD2240
:1027C00011400175704710B50446007D800704D59F
:1027D000542001552046FFF7EBFF207DC00702D0B3
:1027E000204600F0ABFA207D400702D4204600F0DE
:1027F000E5F810BD70B5054600680E4604683C3823
:1028000001463C3C3C31A94205D03146FFF7DBFF95
:102810002046E46BF4E770BD10B500280AD001280B
:102820000BD0022805D100F027F8FFF7A3FD00F038
:102830000FF810BDFFF79AFD10BD00F01DF8FFF76F
:102840009DFDF4E701480078704700004900002032
:1028500070B50024074D08E0A00040194068C0682A
:10286000002800D08047641CE4B22878A042F3D846
:10287000002070BDC803002070B50024074D08E09B
:10288000A000401940688068002800D08047641C80
:10289000E4B22878A042F3D8002070BDC80300201D
:1028A0000020704710B5FFF7B9F8002010BD0020D8
:1028B0007047000001490870704700004800002080
:1028C00010B52C210348FDF7AEFC0249002008702A
:1028D00010BD0000C803002010B50648007800288D
:1028E00004D0012801D100F0D7FA10BDFFF73EFD5A
:1028F00010BD00004800002010B501210846FDF77A
:10290000FFFD10BD10B5FDF713FE10BD10B5012180
:102910000846FDF71DFE10BD074910B5401E884250
:1029200009D8064C60610321081FFFF713F8002047
:10293000A0610720206110BDFFFFFF0000E000E064
:10294000034841680122520611434160704700006C
:1029500000ED00E0014610B50020C043FEF7FAFF8D
:1029600010BD00000849074A8B69401ED31A8342F4
:1029700001D94A6102E08A69101848610020886123
:1029800070470000FFFFFF0000E000E0044801691D
:102990000222114301610169012211430161704763
:1029A00000E000E00448016949084900016101694B
:1029B000022291430161704700E000E010B5064A31
:1029C000417D1268527D914202D100F01BF810BD8A
:1029D00000F004F810BD00001000002070B504469F
:1029E000407D074AC1008D182968A94201D100F035
:1029F0006FF828683C34446021C4083C2C6070BDEA
:102A00000004002070B50446407D074AC1008D18BF
:102A10002968A94201D100F05BF83C3468686C6019
:102A200025606060046070BD000400200449C0009F
:102A300041180868884201D1002070473C3870472F
:102A40000004002004480449007D4039C0004018BB
:102A500000683C3870470000400400200B480A2101
:102A600001750A4A0020403AC1008918401C0960DB
:102A7000C0B249600A28F7D30020014683009B18A2
:102A8000401C00061965000EF8D070474004002075
:102A90000549C000411808680068884201D101203A
:102AA0007047002070470000000400200749C00064
:102AB00041180868884208D00CC853601A6008386A
:102AC0004A68486006C0083810607047000400205B
:102AD00041098A0010B50949C3065118DB0E1F24AD
:102AE000E41A01230A6DA3401A430A6503494031E1
:102AF0000A7D824200D9087510BD00000004002044
:102B000070B5417D046CC06B144ACB0044609B18C7
:102B10002060186898420BD1480980008018CB06C5
:102B2000DB0E1F24E41A0123026DA3409A430265C1
:102B30000A4D4035287D88420ED1002428461030A9
:102B400002E02034E4B2001D01680029F9D00846F3
:102B500000F002FB0019287570BD00000004002081
:102B600070B58468C368E3609C600E4BCD01ED18BE
:102B70009600AD1980356E68864211D11846103026
:102B80006C6084420CD18800C518012006466C6A2E
:102B90009640B4436C6203D11A6A884082431A6239
:102BA00070BD0000D00A002070B5064600F0F1FAB2
:102BB00005463046FFF73AFF040012D0FFF7D0FC7D
:102BC00000280ED13046FFF763FF002809D1FFF738
:102BD000D9FC002805D1E06D002806D0401EE06534
:102BE00003D0284600F0D1FA70BD0A480068407D45
:102BF000FFF75CFF3046FFF719FF816D002901D117
:102C000005490968C165284600F0BFFAFFF7D6FC00
:102C100070BD0000100000203800002070B5044690
:102C2000FFF79EFC002801D01B4870BD00F0B1FAF0
:102C300006462146606C443188420AD0056818383F
:102C400003E0FFF77FFD2846AD69011B183D2C29E5
:102C5000F7D1207D002802D12046FFF751FF207DCB
:102C6000C00702D0204600F069F8207D800702D519
:102C70002046FFF79DFDA06AE16A4160086020469A
:102C800000F036F808202075304600F07EFAFFF795
:102C900095FC002070BD00006C07000010B50020FE
:102CA00000F098FC10BD10B50446806900F047FBA9
:102CB000204600F044FB10BD70B500F06AFA0B4DE1
:102CC000064628680468203807E0016A426A4A60BC
:102CD0001160FFF7E8FF2046246A0146203C2031BE
:102CE000A942F2D1304600F050FA70BD2000002019
:102CF0000021024601712032026242620832826281
:102D0000C2620C32426382630832C26302640832D8
:102D100042640A238264121F1373117501650166F0
:102D200041668166C180704710B5044600F04AF8DC
:102D3000207D01210843207510BD000070B50446B8
:102D400000F027FA05462046343000F0F1FA00285A
:102D500011D1616B084634380DD00D4A91420AD02A
:102D6000226B016B931C5B42994201D8891801E0E8
:102D70000121C9430163606BA16B41600860284673
:102D800000F003FA207D40084000207570BD00006F
:102D90003000002070B500F0FCF90546084800F04E
:102DA000C7FA002805D106480068343801D0046B02
:102DB00001E00024E443284600F0E7F9204670BD16
:102DC00030000020F8B50E460446002500F0E1F979
:102DD0001449266384460A680BE0106B401986424A
:102DE0000CD3864203D1637D577DBB4206D3526B21
:102DF0000546343A104634308842EED1731B1046F3
:102E000034302363884202D0116BC91A1163343401
:102E10004168446003C4083C60460C6000F0B5F9AA
:102E2000F8BD00003000002070B5064600F0B1F992
:102E300005461348134C0168891901602068A042B7
:102E400019D03438016BB14205D8002101632068E4
:102E5000066834380AE0891B01630CE0016B002925
:102E600009D10221FFF7AFFC3046766B0146343EB4
:102E70003431A142F2D1284600F087F970BD00003C
:102E80000C0000203000002010B50120FFF712FDDB
:102E900000F04EF910BD0000F8B5FFF7D3FC254E49
:102EA00005468700F059002805D0C068002802D0E8
:102EB0008047044600E00024FFF776FB411C09D060
:102EC0007D21C90048431C490968FDF75FF9A0420C
:102ED00000D80446FFF770FAFFF75DFAF159204673
:102EE000002903D04968002900D088472846FFF709
:102EF00093FCF059002803D08068002800D0804758
:102F00000D487D210068C9006043FDF73FF9044684
:102F100000F03FF905462046FFF786FF00F0D8F89D
:102F2000FFF74AFAFFF73CFAFFF742FA284600F0AB
:102F30002CF9F8BDF40300201800002010B500F0B3
:102F400028F904460548FEF771FA0448FEF782FAAC
:102F5000204600F01AF9002010BD00005417002090
:102F600010B5074805490160002141608160C160DA
:102F700001614161FEF718FA002010BD0010004009
:102F800054170020004870479999991910B50C4CB6
:102F90000A4961600A214843401EE0602046FEF76E
:102FA00045FA01202168C04308612046FEF7FCF97C
:102FB0002046FEF72BFA002010BD00003F1F000046
:102FC00054170020034980000858002800D0012031
:102FD00070470000F403002010B500F051FA0146DC
:102FE00001A0FEF795FF10BD74696D6572206361E5
:102FF0006C6C6261636B3A20256C640A000000000F
:103000000020704710B500F0C4F801460948006878
:10301000421C05D0084A1268904204D8002403E0FC
:103020000024E44300E0841A084600F0AEF820468D
:1030300010BD00003C0000200C00002070B50446CC
:1030400000F0A7F810490546606909680F4A411861
:103050006161506803E04369994204D3C0680C3849
:10306000831A0833F7D121460C31036901610C3012
:1030700009C1083919605068884201D1606910603F
:10308000284600F082F870BD0C0000203C000020B3
:1030900070B5044600F07DF80C4903464D68E068C1
:1030A000226942600C3D1060A54207D1E0680C34F3
:1030B000A04207D00C3805D040690860184600F0DF
:1030C00064F870BD0020C043F7E700003C0000201A
:1030D000F8B5154E154F3068396888421DD300F099
:1030E000BFF8746825680C3C11E060693968884253
:1030F00011D82046FFF7CCFF208C02280ED00321E8
:10310000222001556168A06888472C46ED68A01B05
:103110000C3D0830E9D100F0C9F8F8BDE069606104
:103120002046FFF78BFFEDE73C0000200C0000205D
:1031300010B5074800F078F90649002000F058FB68
:10314000002000F03DFB002000F05AF9002010BDE7
:103150005C0000204C0000200021020C01D1000482
:103160001021020E01D100020831020F01D100012D
:10317000091D820F01D18000891C002803DB491C36
:10318000002800D1491C0846704710B5FCF7B8FF6D
:1031900010BD10B5FCF7B0FF10BD000010B5FFF773
:1031A000CDF8FFF75BFC012189020948FFF790FA8F
:1031B00000280CD1FFF7B8F9002808D1FFF720FF4D
:1031C000002804D1FFF77CFBFFF75EFE002010BD56
:1031D000D006002005480078012805D10448017870
:1031E000FA2901D2491C0170704700000A00002032
:1031F0000800002010B51148007801281CD1FFF705
:10320000C8FF04460E480178002912D0491E09065D
:10321000090E01700DD10B480078002809D1FFF785
:1032200011FC0949086009490968884201D0FFF783
:1032300097F82046FFF7A9FF10BD00000A00002004
:1032400008000020090000201400002010000020C9
:1032500002480078012800D0002070470A000020B2
:1032600010B50F480078002816D10E4800780128C4
:1032700002D0FF20F53010BD0B4C2078FA2802D385
:103280004B20C00010BDFFF784FF2178491C21703E
:10329000FFF77BFF002010BDFF20913010BD000024
:1032A000080000200A0000200900002010B50F4887
:1032B0000078002817D10E480078012802D0FF209E
:1032C000F53010BD0B4C207800280AD0FFF761FFC5
:1032D0002178491E2170FFF758FFFFF76FF9002092
:1032E00010BD054810BDFF20913010BD0800002022
:1032F0000A00002009000020A506000010B5094CB6
:10330000207801280BD0FFF79DFB0749086007498B
:10331000086001202070FFF727F8002010BDFF2073
:10332000F63010BD0A00002014000020100000201C
:103330000168814201D1012070470020704770B5BB
:10334000002814D008380446FEF7BEFF2079800715
:1033500008D525682846FEF7DEFF21462846FEF7F9
:1033600077FF04462046FEF7BCFFFEF77FFF70BDE7
:10337000F8B5204E0446306801270D46032806D0D4
:103380002046FFF7AFF9002804D01B48F8BD1A48C3
:10339000401EF8BDA807800F291A0839A00702D0DF
:1033A00019204001F8BD0846144A0C38904202D357
:1033B0001148801EF8BD2078251F8007800F084324
:1033C00038430227B84320602846FEF74FFF2846BF
:1033D000FEF774FF01798907890F490849003943CD
:1033E000416030688000801944603068401C306063
:1033F0000020F8BDD00A002023030000F5FFFF3FA6
:1034000010B50446FFF7DEFD002807D0FFF7C1FE28
:1034100003490C70FFF7B9FE002010BD014810BD34
:10342000490000201605000070B5060020D00025D8
:10343000114C0AE0A8000019406831680068FCF7E8
:10344000FDFE002809D06D1CEDB22078A842F1D80D
:10345000C0B20A2804D3094870BD0848401E70BD98
:103460008000001946602078401C2070002070BD4C
:103470000248C93870BD0000C803002015050000CF
:1034800010B5FFF786FE03490C68FFF77EFE204665
:1034900010BD00000C000020FFB581B004460A9F5B
:1034A0000C9E0D9DFFF766F800284FD1002C50D0E0
:1034B000039800284DD00B9800284AD0402E4AD3BC
:1034C000092F01D049D804E02046FFF749F8002829
:1034D00043D02046FFF70CFC214920460A682830DB
:1034E0005060A262E16208601E49E1800120207103
:1034F00000961D4A0B9B04990398FEF761FF20601C
:103500000398E060049820610298A06067750B98AA
:10351000E661A565A061002D14D0E565FFF739FED1
:103520000546002020752046FFF76CFA2846FFF775
:103530002CFEFFF78DFE002801D0FFF73FF800209A
:1035400005B0F0BD09480068E065E7E7FF2091306D
:10355000F6E70748F4E70748F2E70648401FEFE7B9
:1035600028000020D1DA00009D2C0008380000203F
:103570004C0400007307000070B50446FEF7FAFF24
:1035800000281BD1FEF7FEFF002801D00F4870BDB8
:10359000002C16D0601C17D0FFF7FBFD21460C4C09
:1035A00005462068FFF7C0FB2068FFF7A9FA284608
:1035B000FFF7EBFDFFF702F8002070BDFF20913010
:1035C00070BD00F0D3F8F7E7652070BDA4060000D9
:1035D00010000020F8B50446FEF7CCFF002854D1B7
:1035E000002C4FD0E0882C4F2C4DB84215D12046EE
:1035F000FEF7D0FF2A4E002803D0FEF7C3FF0028B5
:1036000034D1207902280AD0FEF7B4FF00283CD13B
:10361000002C3DD0E088B8421FD02846F8BDFFF707
:103620001FFE2046FFF7FAFA050002D0FFF73EFE24
:10363000F3E72046FEF7AEFF002807D019482034F4
:1036400001684C6021606060046002E02046FFF782
:103650002AFBFFF72BFE0020F8BD2046FEF79AFF5D
:10366000002805D0FEF78EFF002801D03046F8BDB7
:103670002079012802D00948401CF8BD2046FFF7F8
:10368000CDFAF8BD08480468ACE7FF209130F8BDDA
:1036900005480468BEE70000D1DA00004D040000D0
:1036A000A40600002000002010000020F8B50D4600
:1036B00004004CD0E0882A49884201D02948F8BD4E
:1036C000FEF758FF002845D1092D46D2FFF761FDCE
:1036D0000090607DA84233D02046676C443087421A
:1036E00011D00A2606E0381DFFF735F8B04200D2A7
:1036F0000646BF69183F381B2C28F4D1B54202D9C1
:103700004C2005553546207D810704D5657520463A
:10371000FFF745F814E0C10701D0657510E00028F7
:103720000ED12046FFF7ECF965752046FEF732FF13
:103730000028204602D0FFF751F901E0FFF762F9B7
:103740000098FFF722FDFEF739FF0020F8BD05487D
:10375000401EF8BDFF209130F8BD0348F8BD0000C1
:10376000D1DA00004D0400006E07000070B5FEF7CE
:1037700001FF00280ED1FFF70CFD074C054620681D
:10378000FFF7BEF92068FFF73DF92846FFF7FDFC7B
:10379000FEF714FF70BD00001000002010B5FFF709
:1037A00057FD002809D00120FFF73EFBFFF790FCF2
:1037B00002480068407DFFF7F7F910BD10000020B7
:1037C000810010B508484058002807D0006800283C
:1037D00007D08047002800D0044810BD7D2000019C
:1037E00010BD0248401E10BDF4030020D2070000A7
:1037F000014A800011507047F4030020F0B5059D88
:10380000069C00282DD0002B2BD0022C03D0012C9D
:1038100006D01548F0BD002A04D11348801EF0BD23
:10382000002915D04E1C16D0561C17D00126222771
:103830003E5481610021C2614161014604840C3122
:10384000C160856043600161084941800020F0BD8E
:103850000548C01EF0BD0448401FF0BD0248001FCF
:10386000F0BD0348F0BD00003A080000D2DA0000C5
:103870004C04000010B5040026D06088144988422A
:1038800001D0144810BD214620318878002807D087
:10389000022808D001280BD0032809D00E4810BDFB
:1038A0000D48401F10BD2046FFF7F2FBA06905E060
:1038B00002208870A069002800D1E069606120467C
:1038C000FFF7BCFB002010BD0248401E10BD0000E9
:1038D000D2DA00004D0400003908000000000000AA
:1038E000000000000102030406070809030406089B
:1038F0000C1018203000000000010203040000003A
:10390000D004002000020000756172740000000005
:10391000303900080000002070000000541F00082B
:10392000A039000870000020481B0000641F000838
:103930000000000000002000000000000000000067
:103940000000000000000000010000000000000076
:103950002000002020000020280000202800002057
:10396000300000203000002000000000FFFFFFFFBB
:10397000400000204000002000000000612F0008EF
:103980008D2F00083D2F0008852F000808390008FA
:10399000A1280008AF280008A528000800000000A2
:04000005080000C12E
:00000001FF
