:020000040800F2
:10000000981F0020D500000879130008B3120008DB
:1000100000000000000000000000000000000000E0
:1000200000000000000000000000000005140008AF
:1000300000000000000000002D0100080714000867
:10004000E7000008E7000008E7000008E7000008F4
:10005000E7000008E7000008E7000008E7000008E4
:1000600000000000E7000008E7000008E7000008C3
:10007000E7000008E700000800000000E7000008B3
:1000800000000000E7000008000000000000000081
:10009000E700000800000000E7000008E700000893
:1000A000E7000008E7000008E7000008E700000894
:1000B000E7000008E7000008000000000000000062
:1000C0000348854600F00EFB00480047052600085F
:1000D000981F00200448804704480047FEE7FEE7D9
:1000E000FEE7FEE7FEE7FEE799140008C1000008FE
:1000F00072B6704762B67047EFF3108072B6704701
:1001000080F3108870471B481B490160002080F372
:1001100009881A481A49016062B6FEE7174818496B
:1001200001607047154816490160704772B6EFF3D9
:10013000098000280AD02038F0C044464D46564673
:100140005F46F0C020380F49096808600D480E4925
:100150000A6802601068F0C80CC8904699460CC83E
:1001600092469B4680F309887046042108438646E0
:1001700062B6704720ED00E00000FF0004ED00E0F3
:1001800000000010200000202400002030B50B46A5
:10019000014600202022012409E00D46D5409D4261
:1001A00005D31D469540491B2546954040191546E7
:1001B000521E002DF1DC30BDF0B51FB40646002004
:1001C00082B005464024019100901BE0019922462F
:1001D0000F46304600F0C8F8049A059B801A9941F2
:1001E00010D310461946224600F0AEF8361A8F4159
:1001F0000197224601200021009F00F0A5F8381841
:100200004D4100902046641E0028DFDC019B0098D1
:100210002946324607B0F0BDD2B201E00270401C60
:10022000491EFBD270470022F6E710B513460A4676
:1002300004461946FFF7F0FF204610BDF0B50C4606
:100240005C4085B0E40FE40703944C00002664088A
:1002500059009446490802460296224321D062463C
:100260000A431ED06200570D4A000E032303550DAA
:10027000012402462C492405781B1B0B360B401821
:1002800023432643614600901C46501AB44103D3D1
:100290000098401C009002E0921800985B410028F2
:1002A00003DA0020014605B0F0BD00200121090558
:1002B0000746864611E064461D46141BB54106D329
:1002C0006546521BB341744607430C43A646CD070F
:1002D00040084908284392185B4105460D43EAD17E
:1002E0001046184313D060461946504071400843E9
:1002F00006D06046101AB34106D20122002306E060
:1003000000220123DB0702E00122D24353100098B0
:1003100074460105381C6141029C039D0019694126
:1003200000F033F8BFE70000FD0300000EB5054AFA
:100330000292002200921346019200F033F803B0BB
:1003400000BD00003304000010B5202A04DB014684
:10035000203A9140002010BD914020239C1A034672
:10036000E3401943904010BD10B5202A04DB084635
:10037000203AD040002110BD0B46D340D04020246D
:10038000A21A91400843194610BD10B5002B08DA97
:100390000024401C614192185B411A4301D140087E
:1003A000400010BDF0B51FB482B005460C0003D06C
:1003B000084601F087FA02E001F084FA2030024694
:1003C000009021462846FFF7BFFF049B059A04468C
:1003D0000F4618431143084314D0184610431BD04E
:1003E000009840210A1A18460599FFF7BDFF0546F7
:1003F0000E46009A05990498FFF7A6FF084305D01A
:10040000012004E02046394607B0F0BD0020C117A6
:1004100005430E432C43374300990E986305401A59
:100420007905E40A00220C43FD0A0A3002D50020B7
:100430000146E9E70105101969410C9C0D9D001961
:100440006941FFF7A2FFDFE7F0B5074608465840CD
:1004500087B0C00F049048000E4659004008490874
:10046000BC1A884105D2384631461E4617460B460F
:1004700002465800400810434CD0300D0390400510
:100480005900400D490D0590401A0290402872DA3B
:1004900018030121000B09050843019004980092FC
:1004A000002805D001995242002088410092019015
:1004B000029840210A1A01990098FFF745FF054666
:1004C0000C466B4607CB00F01FF9C0197141039A27
:1004D0000E0D0023D71756401A467A40164344D0D3
:1004E000049A002A2DD0029A012A039A15DC1205DB
:1004F000C01A914101263605001C7141D20F059E9C
:10050000D2070093019202962A462346FFF74AFF3C
:1005100007B0F0BD38463146FAE71605224A0F46C5
:10052000B218C01AB74101210905001C4F4100183B
:100530007F41114618187941E20F10436D1964414B
:1005400013E0E2076D0815436408C2071443039AD9
:1005500001261205C01A91413605001C7141CE07D3
:10056000400830434908C01851412A462346FFF746
:100570000CFFCDE7FFE7049801224000C117121AD3
:1005800000238B4104983146C417381AA141EEE785
:1005900030B40124E407634030BC55E730B4012493
:1005A000E407614030BC4FE70000E0FFF0B51FB446
:1005B00088B00B990998002448400999C00F490058
:1005C00049080991C0070B990090490049080B910F
:1005D00009990898A64608431CD00B990A98084325
:1005E00018D0099801244000420D4800410D099897
:1005F00024050003000B204309900B980003000B17
:1006000020430B9050181C494018002201901446BA
:10061000104605E0002001460DB0F0BD032801DAC8
:10062000034600E003239C46C11A0AAE0AE05F00BD
:1006300008ADED5B4F00F75B7D430027AA187C41B6
:10064000491C5B1E6145F2DD410004AB5A52210496
:10065000120C0A43240C401C0828DFDB019802908E
:100660000099704601910090059B049A079906989D
:10067000FFF798FED0E700000DFCFFFF4A000903DA
:100680000123090B1B0519430A4B10B5520D9A4261
:1006900002DA0020014610BD064B34339A4203DCD7
:1006A0009A1AFFF761FE10BD034BD218FFF74CFEFC
:1006B00010BD0000FF030000CDFBFFFF10B50029B7
:1006C00004DB0124E40740428C412146002B04DB7B
:1006D0001C460123DB075242A341994200D19042BC
:1006E00010BD0000064C0125064E05E0E36807CC6E
:1006F0002B430C3C98471034B442F7D3FFF7E4FC8B
:100700004C3400086C34000810B5202A06DBCB17E7
:100710000846203A1041C1170B4306E00B4613412F
:10072000D0402024A21A91400843194610BD7047BA
:10073000F8B500230124A2E027469F403A4070D03C
:100740004D68022D01D0122D14D1DD08AD002D18F9
:1007500000952D6A5E07AC46F50E0F26AE46AE40FC
:100760006546B543AC460E697546AE4065462E43B8
:10077000009D2E624D68012D05D0022D03D0112D54
:1007800001D0122D16D185680326AC465D00AE4619
:10079000AE406546B543AC46CE687546AE4065464C
:1007A0002E43866046680D79BE43ED06ED0F9D40F1
:1007B0003543456006685F000325BD40AE46AE4345
:1007C0000D79B446AE07B60FBE4065462E430660AF
:1007D000C6687546AE438D68BD403543C5604D68FB
:1007E000ED004BD5294D6E6B26436E639E08284D58
:1007F000B6007519AC46AD689E07360F0F27B74097
:10080000BD4305273F07B84201D1002715E0214F1E
:10081000B84201D1012710E01F4FB84202D1022790
:100820000BE02BE01D4FB84201D1032705E01C4F20
:10083000B84201D1052700E00627B7402F4365469F
:10084000AF60184D2E684F689643FF0300D51643DE
:100850002E606E684F689643BF0300D516436E60E6
:10086000AE684F689643FF0200D51643AE60EE684F
:100870004F689643BF0200D51643EE605B1C0A68C2
:100880001546DD4000D057E7F8BD000000100240DB
:10089000000001400004005000080050000C00500F
:1008A000001C005000040140002A01D08161704703
:1008B0008162704701480068704700001000002006
:1008C00002480168491C01607047000010000020C8
:1008D00010B50848002401684022114301602046F9
:1008E00000F00AF8002801D0012401E000F01CF813
:1008F000204610BD0020024070B5054609487D2104
:100900000024C9000068FFF741FC00F0EFFB00285D
:1009100001D0012404E000222946501E00F010F806
:10092000204670BD140000200448416B0122114391
:100930004163816B020411438163704700100240E0
:1009400010B500F01BFD10BDF8B504460078544DFD
:10095000800672D5524E0027403EB06BC00004D4D2
:10096000B06BA9050843B06301274E480168C9056B
:1009700011D40168821511430160FFF79BFF0090BD
:1009800005E0FFF797FF0099401A642837D84548DB
:100990000068C005F5D532680321090560680A4082
:1009A0000140914208D08103890F032904D13168A5
:1009B000890301D50120F8BD2A69032109040A40F1
:1009C00022D0084090421FD0207880061CD528698C
:1009D0002A6988430121C9040A432A612A698A4392
:1009E0002A612861C0050FD5FFF764FF009008E079
:1009F000FFF760FF0099411A2B48814201D903207B
:100A0000F8BD28698005F3D561688803800F032845
:100A100005D132680005824301400A4332602869EB
:100A2000032261681204114008432861002F04D09A
:100A3000B16B012000078143B1632078C00705D066
:100A4000E868A168800880000843E8602078800793
:100A500005D5E8680C218843E1680843E860207800
:100A6000400706D5E86803218902884321690843C5
:100A7000E8602078000706D5E86803210903884369
:100A800061690843E8602078000606D5E86803211C
:100A900089048843A1690843E8600020F8BD00008C
:100AA000401002400070004088130000F8B50E4668
:100AB00005007DD053480068C007C00FB0420AD27D
:100AC0005048016849084900314301600068C00787
:100AD000C00FB04271D128784B4C800705D5E06833
:100AE000F0218843A9680843E0602878C00752D005
:100AF0006868022817D0032818D02168012818D068
:100B00008905002959DAE168890889000143E16013
:100B1000FFF7D0FE69680746022912D003291CD0CE
:100B2000012926D033E021688903EAE72168890199
:100B3000E7E74907E5E7FFF7BDFEC11B3348814200
:100B400023D8E0680007800F0228F4D123E0FFF7E4
:100B5000B1FEC11B2D48814217D8E0680007800F05
:100B60000328F4D117E0FFF7A5FEC11B27488142F7
:100B70000BD8E0680007800F0128F4D10BE0FFF7E5
:100B800099FEC11B2148814201D90320F8BDE068CC
:100B90000007800FF3D11B480168C907C90FB14294
:100BA0000DD901684908490031430160006800E03F
:100BB00003E0C007C00FB04201D00120F8BD287883
:100BC000400706D5E068072109028843E968084321
:100BD000E0602878000707D5E0680721C90288434C
:100BE0002969C9000843E06000F036F8E168084A66
:100BF0000906090F515CC840064908600020FFF74C
:100C00007BFEF8BD00200240001002408813000067
:100C10002034000814000020044805490068C96811
:100C2000044A4905490F515CC84070471400002030
:100C30000010024039340008044805490068C968BA
:100C4000044A8904490F515CC840704714000020D1
:100C5000001002403934000810B5184AD1680C2041
:100C6000084004280BD0082810D00C2810D0506859
:100C70000004410F0120C003491C884010BD1068CA
:100C8000C00601D50E4810BD0E4810BD0E4810BD5F
:100C900088020E4B000F185C0902D368890F491CAB
:100CA000DB0301D5084A05E01268D20601D5044AE3
:100CB00000E0044A5043FFF769FA10BD00100240FB
:100CC00000093D000024F40000127A0030340008CE
:100CD000FEB505007ED0FE4CE7680C20E6680740B4
:100CE0000120000406402878C00747D0082F05D00F
:100CF0000C2F0AD101200004864206D1206880030F
:100D00003CD568680028E5D038E001206968000417
:100D1000814203D121680143216011E005230122B2
:100D20001B0492049942216802D111432160F1E72A
:100D30008143216021680140009120689043206038
:100D4000686800280DD0FFF7B5FD009005E0FFF7BB
:100D5000B1FD0099401A64287AD820688003F6D53E
:100D60000CE0FFF7A7FD009005E0FFF7A3FD009959
:100D7000401A6428F0D820688003F6D428788007C9
:100D800055D50923E868042F0DD00C2F01D1002E72
:100D900009D000283BD02168994301432160FFF727
:100DA00089FD064627E02168490701D5002891D032
:100DB00061681F22120291432A6912021143616085
:100DC0002168994301432160FFF746FFE168090666
:100DD0000A0F00E079E1BF49895CC840BE4908605C
:100DE0000020FFF789FD002872D120E0FFF762FDA7
:100DF000801B0228B0D820684007F7D560681F2103
:100E00000902884329690902084360600FE02068ED
:100E1000400840002060FFF74DFD064604E0FFF764
:100E200049FD801B022897D820684007F7D428780E
:100E3000C0065FD5002F0CD0A869002849D02068D3
:100E4000FF21013108432060FFF734FD06462DE005
:100E5000C0E02068800502D5A8690028A7D0606896
:100E6000072149038843296A084360606068297F35
:100E70000002000A090608436060286A410B01204D
:100E8000C003491C8840E16809060A0F9149895C42
:100E9000C840914908600020FFF72EFD002817D1B7
:100EA00028E0FFF707FD801B0228A3D820688005F3
:100EB000F7D56068072149038843296A08436060C1
:100EC0006068297F0002000A09060843606011E09B
:100ED000E1E02168FF20013081432160FFF7EAFC57
:100EE000064604E0FFF7E6FC801B022872D8206863
:100EF0008005F7D42878794E000724D56869002842
:100F0000306910D0012108433061FFF7D3FC009015
:100F100005E0FFF7CFFC0099401A02285AD8306943
:100F20008007F6D50FE0400840003061FFF7C2FCB3
:100F3000009005E0FFF7BEFC0099401A022849D84E
:100F400030698007F6D42878400765D500200290E4
:100F5000A06BC00006D4A06B012109070843A06361
:100F6000012002905E480168C90511D4016882150C
:100F700011430160FFF79EFC009005E0FFF79AFC2B
:100F80000099401A642825D855480068C005F5D551
:100F9000FF20AA680130824203D1316901433161E7
:100FA00011E001218902002A07D005231B029A4281
:100FB00003D132690A433261EFE732698243326119
:100FC000306988433061A86800280FD0FFF772FCB1
:100FD000009007E05EE0FFF76DFC0099411A414880
:100FE000814257D830698005F5D50DE0FFF762FCE6
:100FF000009006E0FFF75EFC0099411A39488142F3
:1010000048D830698005F5D40298002804D0A06B38
:10101000012109078843A063686A002864D00C2F67
:101020003ED0012636060228206805D0B043206055
:10103000FFF740FC05462FE0B0432060FFF73AFC85
:10104000074604E0FFF736FCC01B022822D82068C0
:101050008001F7D4E96AA86AE2680843296BFD2396
:101060001B049A4311430843E0602068304320602A
:10107000FFF720FC054604E0FFF71CFC401B02289C
:1010800008D820688001F7D52EE0FFF713FC401B3D
:10109000022801D90320FEBD20688001F5D423E099
:1010A0000128F8D0E06801210904AA6A01409142B0
:1010B0000BD10F218904EA6A0140914205D1032135
:1010C00089050840296B88420ED00120FEBD000032
:1010D000001002402034000814000020401002409C
:1010E00000700040881300000020EFE7094910B5A8
:1010F000401E884201D9012010BD074C60610321C8
:10110000081F00F03BF90020A061072020610020AB
:1011100010BD0000FFFFFF0000E000E010B504007C
:1011200003D0606F002802D007E0012010BD00212D
:1011300070200155204600F027F8242060672068C1
:101140000168490849000160204600F065FA01285D
:10115000ECD0606A002802D0204600F0C7F9206871
:1011600041680922D20291434160206881682A22A5
:10117000914381602068016801221143016020468B
:1011800000F01AFA10BD000010B586B00446142114
:101190006846FFF748F81149206888421CD110487A
:1011A000416B0122920311434163C16A0122114341
:1011B000C162C06A69461040059003204002009059
:1011C000022001900020029003200390042004904C
:1011D00005200007FFF7ACFA06B010BD003801404B
:1011E00000100240FFB50446406F83B017460D461D
:1011F00020285CD1002D0AD0002F08D0A168C001A2
:10120000814207D12069002804D1E80702D00120DB
:1012100007B0F0BD204660300290007C012846D027
:101220000298012101740020E06721206067FFF728
:1012300041FB264640360190378277820120A16823
:101240000003814202D12069002802D02F460025E8
:1012500011E000270FE000228021204600F0F0FA84
:10126000002815D1002F15D02168387888627F1C9E
:10127000708A401E7082708A019B00280698009038
:10128000E9D100224021204600F0DAFA002808D0F7
:101290000320BDE728882168C005C00D8862AD1C09
:1012A000E6E720206067029900200874B0E702207A
:1012B000AEE7FEE7F0B587B014216846FEF7B3FF4E
:1012C0001C48C16A01252943C162C16A29400591B0
:1012D000C26A02210A43C262C06A05260840360774
:1012E0000590002204213046FFF7DEFA124F00225B
:1012F00080213846FFF7D8FA042000240090029499
:101300006946019503943046FFF712FA4020009099
:101310000A480190694602943846FFF709FA80208E
:10132000009002946946019503943846FFF700FA4D
:1013300007B0F0BD00100240000400500000111082
:1013400010B50C480A490160E121490241600021C1
:101350008160C16001618161C1610C2201624261F1
:101360004162FFF7DBFE002801D0FFF7E0F910BD76
:1013700000380140C4070020704700008307FF22A7
:10138000DB0E9A408907090E994000280BDA000706
:10139000000F0838830808489B001818C369934356
:1013A0000B43C3617047830804489B001B181868EF
:1013B000904308431860704700ED00E000E400E04F
:1013C0008307FF22DB0E9A408907090E9940002807
:1013D0000BDA0007000F0838830808489B0018182C
:1013E000C36993430B43C3617047830804489B0060
:1013F0001B181868904308431860704700ED00E020
:1014000000E400E0704710B5FFF75AFA01F08AFDDA
:10141000002805D001F048FD01F0F0FF01F054FD77
:1014200010BD000030B599B034216846FEF7FBFED0
:1014300014210DA8FEF7F7FE1C2112A8FEF7F3FEFB
:10144000144801680322D2029143C2148918016032
:101450000220102100900491099040040B9000019B
:10146000012500240C9003950A946846FFF730FC90
:101470000F200D9003200E900F94109401211194D1
:101480000DA8FFF713FB12A812951494FFF75CFA4E
:1014900019B030BD0070004010480168821511433A
:1014A0000160C1680E4A1140C16001680D4A1140D7
:1014B0000160816849084900816001680122920445
:1014C00091430160C168FD2212049143C160002173
:1014D00001610549C00388607047000000100240A8
:1014E0000C40FF88F6FFF6FE00ED00E010B5818CA1
:1014F000C90707D001684A6801235B049A43836ADD
:101500001A434A60818C890707D501684A6801231C
:101510001B049A43C36A1A434A60818C490707D562
:1015200001684A6801239B049A43036B1A434A608B
:10153000818C090707D501684A680123DB039A43B8
:10154000436B1A434A60818CC90607D502689168CB
:1015500001231B039943836B19439160818C890696
:1015600007D501688A6801235B039A43C36B1A435A
:101570008A60818C490612D503685A6801210905E1
:10158000046C8A4322435A60026C8A4207D1026883
:10159000516803235B059943436C19435160818C67
:1015A000090607D501684A680123DB04806C9A4369
:1015B00002434A6010BD0000F8B500260446C66725
:1015C000FFF778F9054620680068124F000709D533
:1015D00001212B46002249052046009700F030F9F2
:1015E00000280DD12068006840070BD501212B464B
:1015F000002289052046009700F022F9002801D03A
:101600000320F8BD20206067A067603426740020A6
:10161000F8BD0000FFFFFF01F8B504462669A26887
:10162000E76932436669102000253E432368324350
:1016300078491E68784F3E4016431E6023685A68FA
:1016400003263603B243E66832435A602368A26930
:101650008B4201D0266A32439E680B273F02BE436D
:1016600016439E606D4E23686D4AB3420CD1D2681A
:101670009207920F06D0012A38D0022A34D0032ACA
:1016800020D11EE001201DE0664EB3420AD1D2688F
:101690000C26324026D0042A28D0082A24D00C2A2E
:1016A00010D10EE08B420DD1D66803229202164073
:1016B00018D001229202B61A18D0B61A14D0964247
:1016C00000D10820564A0126403A574FF6038B4274
:1016D00036D100280CD002280DD0042812D00828BA
:1016E0001FD11CE00020EDE70220EBE70420E9E732
:1016F000FFF792FA08E01068C00601D5384605E009
:101700004A4803E0FFF7A8FA002873D06268510046
:101710005118814205D81103814202D303E03046BB
:10172000F4E7012566E0010E060250080023301898
:101730005941FEF741FD03210902411A3C4A55E097
:10174000E169B14232D1030000F0D3F809070A0D74
:1017500006250606062B0600E3E7FFF75DFA1CE008
:10176000FFF76AFA19E010686168C00602D54808F8
:10177000304A01E0304A48088018FEF707FD80B281
:1017800001462E4A10399142CBD8511C0140000726
:10179000400F08432CE0FFF75FFA616840004A08F9
:1017A000EAE76168012248081204E5E7030000F057
:1017B000A0F809070A0D06260606062C0600B0E763
:1017C000FFF72AFA1DE0FFF737FA1AE010686168A0
:1017D000C00602D54808C01902E014484A0810188B
:1017E000FEF7D4FC80B20146144A1039914298D8D1
:1017F0002168C8600020206660662846F8BDFFF7B3
:101800002BFA61684A088018EAE76168480880197D
:10181000E6E7000000480040F369FFEF00380140B0
:10182000401002400044004000093D000024F40044
:10183000FFFC0F0000127A000048E801EFFF0000F3
:10184000FFB581B017460E4604460A9D09E0681CA4
:1018500007D0FFF72FF80499401AA8420CD8002DA2
:101860000AD02068C1693046884318D00020B842A9
:10187000EDD0002005B0F0BD20680168FF22A13244
:1018800091430160206881684908490081602020F7
:101890006067A0670020603420740320EAE701201D
:1018A000E5E700000FB410B503A9044B044A029801
:1018B00000F0FAF810BC08BC04B01847E124000896
:1018C000580000202021020C01D010211046020AED
:1018D00001D010460839020901D01046091F8208BC
:1018E00001D01046891E420801D0881E7047081A90
:1018F000704730B47446641E2578641CAB4200D235
:101900001D46635D5B00E31830BC184710B500F05E
:10191000F5FD401E10BD02E008C8121F08C1002AD4
:10192000FAD170477047002001E001C1121F002A60
:10193000FBD17047F0B51FB486B00998089A030D23
:101940000021024314D05148514A1818504305143D
:101950001198012810981AD0281A401C00264D4FC3
:101960004D49009601910490002812DA444211E09A
:101970001198012449A3012801D11098C143069868
:10198000119A84600360C26041600BB0F0BD4042B8
:10199000E4E70446210500203F4A001C5141039121
:1019A000029012E0E00707D032463B4601990098CA
:1019B000FEF7FCFD0191009032463B461046194669
:1019C000FEF7F4FD06460F466410002CEAD1049899
:1019D000039B0028029A0999089806DAFEF7E6FDAB
:1019E000019B009AFEF7E2FD05E0FEF727FC019B54
:1019F000009AFEF723FC04460E460022284BFEF711
:101A00005DFE03D80020C043014607E00022254BBD
:101A100020463146FEF718FDFEF730FE102409E09F
:101A2000002C0ADB0A220023FEF7C6FB079B30329C
:101A30001A55641E02460A43F2D11122641C079B08
:101A4000121B1C19119B012B03D0012308430ED13B
:101A50000AE0084304D0112010900020119077E78D
:101A60001098151A6D1E0BE01098824202DD0023BB
:101A70006D1C03E0824201DA00236D1E002BEED0C4
:101A8000069811998260C16030C07EE701FCFFFFBB
:101A9000104D0000000014400000F03F3000000036
:101AA0000000F0430000E03FFFB597B00646002578
:101AB00018E2252877D100242746FD49049400E048
:101AC0000443761C32780120203A90400842F7D136
:101AD00030782A280ED00222307801463039092980
:101AE00016D804990A235943303940181443761CF8
:101AF0000490F1E7189802C804911890002904DABC
:101B00000120400304434842049002200443761C11
:101B100030782E2814D1042004437078761C2A28AB
:101B200009D11898761C80C8189009E00A214F4303
:101B3000303FC719761C3078014630390929F5D96C
:101B400030786C2810D006DC4C281AD068280ED0CB
:101B50006A2817D104E0742813D07A2812D110E033
:101B60000120400504430CE00121090501E00321A7
:101B700009050C437178814203D101200005241826
:101B8000761C761C3078119066280BD013DC582810
:101B90007DD009DC00287BD04528F6D04628F4D03B
:101BA00047281AD1A5E118E0632835D0642870D001
:101BB000652812D19DE170286CD008DC6728F1D02F
:101BC00069287BD06E280DD06F2806D1BAE0732823
:101BD0002ED0752871D0782859D01A9A1999904723
:101BE0006D1C7EE16002400F022809D003280DD051
:101BF0000428189801680DD00D60001D189070E140
:101C00001898EA1701680D604A60F6E718980168AD
:101C10000D80F2E70D70F0E718986A4601781172AE
:101C2000001D18900020507202A80090012005E0CD
:101C3000189802C8189000200091C04361070DD584
:101C4000002101E00199491C0191B94212DA814257
:101C5000F8DB009A515C0029F4D10BE0002101E08F
:101C60000199491C01918142FADB019A0099895C32
:101C70000029F5D1019904981A9B471A2146384644
:101C8000199A00F097FA0199401945180BE04FE0B6
:101C90002CE113E04EE0009800990078491C009177
:101CA0001A9A199990470198401E0190401CF2D150
:101CB000214638461A9B199A10E137E00A20002184
:101CC000009001916002410F022907D0189A01CAC1
:101CD0001892C2179446032908D00AE01898C01D2C
:101CE000C108C90005C91891944607E000B2C2179F
:101CF0009446042902D140B2C1178C4600226146A5
:101D0000944506DA0A460021404291418C462D2135
:101D100002E0210504D52B216A461173012103E05D
:101D2000E10701D02021F7E7029155E00A200AE0FF
:101D3000102008E0102000900021042004430191AD
:101D4000082703E008200021019100906002410F64
:101D5000022907D0189A01CA189200229446032932
:101D600008D008E01898C01DC108C90005C918911D
:101D7000944603E080B2042900D1C0B20021029150
:101D8000210729D51199702906D0009A1021019BAD
:101D90004A401A4305D00EE040216A4611730121E2
:101DA00008E06146014306D030216A46117311995B
:101DB000517302210291009A0821019B4A401A4363
:101DC0000AD16146014301D1610705D530216A4638
:101DD000117301217F1E02911199582904D035A158
:101DE0000E910DA90D910DE037A1F9E76146019B18
:101DF000009AFEF7E1F90E9B8C469B5C0D9A521EF1
:101E00000D92137061460143F0D10D9805A9081A8F
:101E100020300190600703D501200004844300E0D6
:101E200001270198874201DD381A00E0002001995E
:101E300000904118029809180498401A0490E00391
:101E400006D421461A9B199A049800F0B3F9451953
:101E5000002706E003A81A9AC05D199990476D1CE7
:101E60007F1C02988742F5DBE0030CD521461A9BC4
:101E7000199A049800F09EF9451904E01A9A302046
:101E8000199990476D1C0099481E00900029F5DCB7
:101E900008E00D980D990078491C0D911A9A19992E
:101EA00090476D1C0199481E01900029F1DC63E107
:101EB0000928010030313233343536373839616220
:101EC00063646566000000003031323334353637E4
:101ED00038394142434445460000000000F05AF9B9
:101EE0004519761C3078002800D0E2E528461BB062
:101EF000F0BD600700D406271898C01DC108C900AE
:101F000048680A680831C30FDB071891190001D02F
:101F10009CA108E0210501D59BA104E0E10701D0C7
:101F20009AA100E09AA1430011985B0810916528DE
:101F30000CD006DC452809D046281DD0472841D1C1
:101F400041E0662818D067283CD13CE00021112FE1
:101F500001DB112000E0781C0191009008A911A874
:101F6000FFF7E8FC139905910021119A15927F1C47
:101F700012980197009150E00120C00703900120C2
:101F8000019008A9009711A8FFF7D4FC139A14999F
:101F900005920022119B009212981593059A0192C6
:101FA000002901D0104602E0791C40180190381A2F
:101FB00001D5019804E04042401E0090781C019039
:101FC000C01B029043E0012F00DA01270021112FEE
:101FD00001DD112000E038460191009008A911A808
:101FE000FFF7A8FC13990591119A002112981592F8
:101FF0000091019721070CD40599B94201DB0199A1
:1020000000E00191012904DD159A491E515C302937
:1020100006D0B84201DA011D05DA0121029115E06E
:102020000199491EEDE7002805DC0099411800914F
:102030000199091A03E0019A411C914200DD0191C6
:102040000099401A401C02900120C007039020070D
:1020500006D402990198814202DB0020C04302901D
:1020600000206946C87707AF012103980337C907E5
:10207000884224D0022011902B201290039800282F
:102080000CDA404203902D20129007E00A210398B9
:10209000FEF77CF830317F1E039039701199481E8D
:1020A00011900029F2DC03980028EFD1791E1298D4
:1020B00008703078202108404530BF1E387006A8CF
:1020C000C01BC01D039010980078002800D001208C
:1020D000019941180298C017091803980918049823
:1020E000401A401E0490E00306D421461A9B199A18
:1020F000049800F05FF8451910980078002803D084
:102100001A9A199990476D1CE00324D521461A9B11
:10211000199A049800F04EF845191CE00098002820
:1021200007DB00990598884203DD1598405C1999F2
:1021300001E0199930201A9A904700986D1C401CB4
:1021400000900298401E0290002804D11A9A2E2076
:10215000199990476D1C0199481E01900029DDDCFA
:1021600005E038781A9A7F1C199990476D1C0399DD
:10217000481E03900029F4DC21461A9B199A049802
:10218000ACE600002D0000002B0000002000000045
:1021900000000000F8B5044600251E4617468804D6
:1021A00004D405E039462020B0476D1C641EF9D5E3
:1021B0002846F8BDFFB50446002581B01E46C80379
:1021C00001D5302700E02027880404D505E03846F3
:1021D0000399B0476D1C641EF9D5284605B0F0BDC3
:1021E00010B504464868616880088000001D4018EA
:1021F0006060204600F02AF8204610BD7CB50446F9
:10220000406801AA80088000694600F051FA0099F0
:102210000D48019BCA0112189D00551980350646CC
:102220006A681036E660A260D4606C6001221546D0
:102230008D40046A89002C4304620818416A9A4060
:10224000114341627CBD0000140F002010B504460C
:1022500000F021F8046010BD10B50446FFF7F6FF4A
:1022600041680222114341606068012108436060B7
:1022700010BD70B5054600F00EF804460079C007A1
:1022800007D0204600F00FF821462846FFF7A8FFA8
:102290000546284670BD0146406808318008800028
:1022A000001F081870471CB50446406801AA800842
:1022B0008000694600F0FCF92046019A009900F080
:1022C000C3FB1CBD10B5FDF729FF10BD10B50548B7
:1022D000016805480068FDF759FF0449086000F0EF
:1022E0000DF810BD28000020140000202C00002054
:1022F00010B5FDF717FF10BDFDF705FF10B504463B
:10230000002000F0C7FA204600F0B0FA10BD00002F
:1023100030B5039C1C19E408E400CC2501E01D70D5
:102320005B1CA342FBD301231B06251F2B602B1F25
:102330001860181F0260144A001F0260134A001F31
:102340000260134A001F02605210001F0260001F4B
:1023500001601049001F01601101001F01600E495A
:10236000001F0160D100001F01600C49001F0160C7
:102370000B49001F01600B49001F01609000403CA9
:102380002060204630BD0000121212120303030326
:1023900002020202111111110909090907070707B1
:1023A00006060606050505050449002305C9083982
:1023B000401C5A4105C10839F7E700000000002021
:1023C000044900238868CA68401C5A41CA60886072
:1023D000F7E7000000000020194C0127BF07A068A4
:1023E000E1680022401C5141E160A0600CCC15A0C6
:1023F000083CFFF757FA19A0E368A268FFF752FA02
:1024000003CC083CFDF792FF05460E46E168A06844
:10241000FDF78CFF2A463346FDF710FF02460B46B8
:1024200014A0FFF73FFA1CA0FFF73CFA00223B463E
:1024300020A0FFF737FA7D20C00000F0CDFECEE7E8
:102440000000002064656D6F315F636F756E7465A9
:10245000723A20256C6C640A0000000064656D6FA0
:10246000325F636F756E7465723A20256C6C640A16
:102470000000000064656D6F325F636F756E746598
:1024800072202F2064656D6F315F636F756E7465A8
:1024900072203D2025660A0073686F756C642061A8
:1024A0006C6D6F737420657175616C7320746F3A15
:1024B0000A00000074696D65736C6963655F64652B
:1024C0006D6F32202F2074696D65736C6963655F71
:1024D00064656D6F31203D2025660A0A000000000A
:1024E00013B5044B012269460348FEF77BFE0098B2
:1024F0001CBD0000FFFF0000C407002020210028B1
:1025000013D0020C01D100041021020E01D10002EF
:102510000839020F01D10001091F820F01D180008B
:10252000891E002800DB491E0846704700F038FB72
:10253000FCE700001FB5074A074900231268096835
:1025400009206C460FC4054A05A1074800F0D4FDD8
:1025500004B010BD48340008443400082D2500089C
:1025600069646C65000000009C08002003498842F3
:1025700001D1012070470020704700009C08002016
:1025800002480078002800D0012070471800002081
:1025900002480078002800D0012070471900002070
:1025A00003490968884201D1012070470020704723
:1025B0002000002010B50E480078012817D10D48E2
:1025C0000078002813D10C48007800280FD100F0C3
:1025D00050FC044600F0AAF9084908600849096857
:1025E000884201D0FFF76EFE204600F03EFC10BD91
:1025F0001A000020180000201900002024000020EC
:10260000200000201FB5FEF763F9FEF70BFFFEF771
:1026100051FEFEF795FE00F031FCFF20F53000F092
:1026200059FD0A20012415496402042501910390F3
:102630000023134A0095029412A1144800F05CFD97
:10264000142003901249114801910023114A00956A
:10265000029411A1783000F04FFD00200346039052
:102660000F49032209480092019102940D4A0EA1DC
:10267000F03000F041FD00F0ABFCFEE75C00002014
:10268000A923000864656D6F310000005C0600201E
:102690005C020020C123000864656D6F32000000F9
:1026A0005C040020D923000873616D706C65000024
:1026B00070B515460E460446802805D2E117890FED
:1026C000002009198C1006E0FFF720F9411F0C418A
:1026D00020214C40801F30602C6070BD70B50022FE
:1026E0000F48114602608B001B18491C5A600329D1
:1026F000F9DB0B4C10348461C461002102628B0051
:102700001B185A620023CD012D189E00AE19803689
:102710005B1C7460202BF8DB491C1829EFDB70BDB3
:10272000140F002070B50C460546FFF7D7FF214671
:10273000284600F087FC70BD10B5084A00211368D8
:1027400007E08C00A4186468844201D1012010BD08
:10275000491C8B42F5DC002010BD0000140F002046
:1027600070B504460069A169E2694A601160002100
:102770002161054621734035297B0A260A2903D0A9
:1027800000F0C4FD2E7370BD427D217D8A42FAD0D7
:1027900000F0BCFD267570BD10B50446FFF7E0FFE4
:1027A0000421201D00F050F810BD0168814203D0C3
:1027B0003C3901D0487D70470A20704710B50A683F
:1027C0003C3A13463C338B4205D0437D547DA342B3
:1027D00001D3D26BF4E703463C33146C13643C32F0
:1027E00014C3083B23600165017D0222114301757A
:1027F00010BD10B5C16B026C4A601160016DFFF72E
:10280000DDFF10BDC16B026C4A60116000210165E3
:10281000017DFD2211400175704710B50446007D11
:10282000800704D5542001552046FFF7EBFF207D9B
:10283000C00702D0204600F0F5F9207D400702D401
:10284000204600F02FF810BD70B5054600680E4612
:1028500004683C3801463C3C3C31A94205D0314635
:10286000FFF7DBFF2046E46BF4E770BD074910B5C6
:10287000401E884209D8064C60610321081FFEF7FC
:102880009FFD0020A0610720206110BDFFFFFF0019
:1028900000E000E0014610B50020C043FEF790FDC7
:1028A00010BD000010B5064A417D1268527D91426C
:1028B00002D100F01BF810BD00F004F810BD0000BC
:1028C0002000002070B50446407D074AC1008D18E5
:1028D0002968A94201D100F06FF828683C344460AF
:1028E00021C4083C2C6070BD4408002070B504462B
:1028F000407D074AC1008D182968A94201D100F026
:102900005BF83C3468686C6025606060046070BD92
:10291000440800200449C00041180868884201D1D9
:10292000002070473C3870474408002004480449A0
:10293000007D4039C000401800683C3870470000F6
:10294000840800200B480A2101750A4A0020403AF9
:10295000C1008918401C0960C0B249600A28F7D339
:102960000020014683009B18401C00061965000EDC
:10297000F8D07047840800200549C0004118086855
:102980000068884201D10120704700207047000094
:10299000440800200749C00041180868884208D050
:1029A0000CC853601A6008384A68486006C0083886
:1029B000106070474408002041098A0010B5094999
:1029C000C3065118DB0E1F24E41A01230A6DA3402D
:1029D0001A430A65034940310A7D824200D90875CD
:1029E00010BD00004408002070B5417D046CC06B30
:1029F000144ACB0044609B182060186898420BD1A1
:102A0000480980008018CB06DB0E1F24E41A01233E
:102A1000026DA3409A4302650A4D4035287D8842E5
:102A20000ED100242846103002E02034E4B2001D0C
:102A300001680029F9D0084600F0FEF90019287550
:102A400070BD00004408002070B58468C368E3606E
:102A50009C600E4BCD01ED189600AD1980356E6867
:102A6000864211D1184610306C6084420CD1880027
:102A7000C518012006466C6A9640B4436C6203D1C7
:102A80001A6A884082431A6270BD0000140F002049
:102A900070B5064600F0EDF905463046FFF73AFFFF
:102AA000040012D0FFF762FD00280ED13046FFF778
:102AB00063FF002809D1FFF76BFD002805D1E06D09
:102AC000002806D0401EE06503D0284600F0CDF96E
:102AD00070BD0A480068407DFFF75CFF3046FFF795
:102AE00019FF816D002901D105490968C165284692
:102AF00000F0BBF9FFF75EFD70BD00002000002074
:102B00004800002070B50446FFF730FD002801D0D2
:102B10001B4870BD00F0ADF906462146606C44319B
:102B200088420AD00568183803E0FFF735FE2846CA
:102B3000AD69011B183D2C29F7D1207D002802D159
:102B40002046FFF751FF207DC00702D0204600F04D
:102B500069F8207D800702D52046FFF753FEA06A62
:102B6000E16A41600860204600F036F808202075D0
:102B7000304600F07AF9FFF71DFD002070BD00001F
:102B80006C07000010B5002000F054FB10BD10B51C
:102B90000446806900F03DFA204600F03AFA10BD84
:102BA00070B500F066F90B4D0646286804682038B9
:102BB00007E0016A426A4A601160FFF7E8FF2046B9
:102BC000246A0146203C2031A942F2D1304600F06F
:102BD0004CF970BD30000020002102460171203206
:102BE0000262426208328262C2620C3242638263D3
:102BF0000832C2630264083242640A238264121FEC
:102C0000137311750165016641668166C180704765
:102C100010B5044600F032F8207D012108432075EC
:102C200010BD000070B5044600F023F905462046AB
:102C3000343000F0E7F9002811D1616B08463438D0
:102C40000DD00D4A91420AD0226B016B931C5B425E
:102C5000994201D8891801E00121C9430163606BE1
:102C6000A16B41600860284600F0FFF8207D400815
:102C70004000207570BD000040000020F8B50E46F1
:102C80000446002500F0F5F81449266384460A68D6
:102C90000BE0106B401986420CD3864203D1637D52
:102CA000577DBB4206D3526B0546343A104634304A
:102CB0008842EED1731B104634302363884202D021
:102CC000116BC91A116334344168446003C4083C71
:102CD00060460C6000F0C9F8F8BD0000400000201C
:102CE00070B5064600F0C5F805461348134C016858
:102CF000891901602068A04219D03438016BB142B3
:102D000005D8002101632068066834380AE0891B71
:102D100001630CE0016B002909D10221FFF77DFD61
:102D20003046766B0146343E3431A142F2D128461A
:102D300000F09BF870BD00001C0000204000002047
:102D40000020704770B5044600F093F8104905461E
:102D5000606909680F4A41186161506803E043697E
:102D6000994204D3C0680C38831A0833F7D121463E
:102D70000C31036901610C3009C1083919605068D0
:102D8000884201D160691060284600F06EF870BD7D
:102D90001C0000204C00002070B5044600F069F8CB
:102DA0000C4903464D68E068226942600C3D1060A2
:102DB000A54207D1E0680C34A04207D00C3805D0FA
:102DC00040690860184600F050F870BD0020C0430C
:102DD000F7E700004C000020F8B5154E154F30689D
:102DE000396888421DD300F0A5F8746825680C3C4A
:102DF00011E060693968884211D82046FFF7CCFF9E
:102E0000208C02280ED00321222001556168A06881
:102E100088472C46ED68A01B0C3D0830E9D100F036
:102E2000AFF8F8BDE06960612046FFF78BFFEDE782
:102E30004C0000201C0000200021020C01D10004E5
:102E40001021020E01D100020831020F01D1000150
:102E5000091D820F01D18000891C002803DB491C59
:102E6000002800D1491C0846704710B5FDF748F905
:102E700010BD10B5FDF740F910BD000010B5FFF70B
:102E800025FAFFF75FFD012189020648FFF74AFC9A
:102E9000002805D1FFF74EFB002801D1FFF750FFB6
:102EA00010BD0000140B002005480078012805D152
:102EB00004480178FA2901D2491C017070470000CA
:102EC0001A0000201800002010B5114800780128D1
:102ED0001CD1FFF7CEFF04460E480178002912D01E
:102EE000491E0906090E01700DD10B480078002813
:102EF00009D1FFF71BFD09490860094909688842A3
:102F000001D0FFF7F5F92046FFF7AFFF10BD000035
:102F10001A000020180000201900002024000020C2
:102F20002000002002480078012800D000207047CF
:102F30001A00002010B50F480078002816D10E485E
:102F40000078012802D0FF20F53010BD0B4C20780E
:102F5000FA2802D34B20C00010BDFFF78AFF21786A
:102F6000491C2170FFF781FF002010BDFF20913028
:102F700010BD0000180000201A00002019000020D9
:102F800010B50F480078002817D10E4800780128A6
:102F900002D0FF20F53010BD0B4C207800280AD05D
:102FA000FFF767FF2178491E2170FFF75EFFFFF7EB
:102FB00001FB002010BD054810BDFF20913010BD61
:102FC000180000201A00002019000020A5060000AB
:102FD00010B5094C207801280BD0FFF7A7FC074952
:102FE00008600749086001202070FFF785F900207C
:102FF00010BDFF20F63010BD1A0000202400002074
:10300000200000200168814201D10120704700208A
:10301000704770B5002814D008380446FFF71CF933
:103020002079800708D525682846FFF73CF9214616
:103030002846FFF7D5F804462046FFF71AF9FFF7B0
:10304000DDF870BDF8B5204E0446306801270D4606
:10305000032806D02046FFF76FFB002804D01B484A
:10306000F8BD1A48401EF8BDA807800F291A083974
:10307000A00702D019204001F8BD0846144A0C38B8
:10308000904202D31148801EF8BD2078251F80078A
:10309000800F084338430227B84320602846FFF7D3
:1030A000ADF82846FFF7D2F801798907890F49085A
:1030B00049003943416030688000801944603068BD
:1030C000401C30600020F8BD140F002023030000D6
:1030D000F5FFFF3F10B50446FFF7CBFE014605485C
:1030E000002C01D0046001E0642202600846FFF772
:1030F000BCFE10BD48000020FFB581B004460A9F09
:103100000C9E0D9DFFF73CFA00284FD1002C50D0AB
:10311000039800284DD00B9800284AD0402E4AD35F
:10312000092F01D049D804E02046FFF71FFA0028F4
:1031300043D02046FFF750FD214920460A68283039
:103140005060A262E16208601E49E18001202071A6
:1031500000961D4A0B9B04990398FFF7D9F820604D
:103160000398E060049820610298A06067750B984E
:10317000E661A565A061002D14D0E565FFF779FE35
:103180000546002020752046FFF7B0FB2846FFF7D4
:103190006CFEFFF7C7FE002801D0FFF70BFA0020F6
:1031A00005B0F0BD09480068E065E7E7FF20913011
:1031B000F6E70748F4E70748F2E70648401FEFE75D
:1031C00038000020D1DA0000852B000848000020DC
:1031D0004C0400007307000070B50446FFF7D0F9F7
:1031E00000281BD1FFF7D4F9002801D00F4870BD8B
:1031F000002C16D0601C17D0FFF73BFE21460C4C6C
:1032000005462068FFF704FD2068FFF7EDFB284620
:10321000FFF72BFEFFF7CEF9002070BDFF209130A5
:1032200070BD00F0D3F8F7E7652070BDA40600007C
:1032300020000020F8B50446FFF7A2F9002854D179
:10324000002C4FD0E0882C4F2C4DB84215D1204691
:10325000FFF7A6F92A4E002803D0FFF799F90028B6
:1032600034D1207902280AD0FFF78AF900283CD10E
:10327000002C3DD0E088B8421FD02846F8BDFFF7AB
:1032800059FE2046FFF73EFC050002D0FFF778FE0E
:10329000F3E72046FFF784F9002807D019482034C7
:1032A00001684C6021606060046002E02046FFF726
:1032B0006EFCFFF765FE0020F8BD2046FFF770F9B1
:1032C000002805D0FFF764F9002801D03046F8BD8A
:1032D0002079012802D00948401CF8BD2046FFF79C
:1032E00011FCF8BD08480468ACE7FF209130F8BD38
:1032F00005480468BEE70000D1DA00004D04000074
:10330000A40600003000002020000020F8B50D4683
:1033100004004CD0E0882A49884201D02948F8BDF1
:10332000FFF72EF9002845D1092D46D2FFF7A1FD60
:103330000090607DA84233D02046676C44308742BD
:1033400011D00A2606E0381DFFF72FFAB04200D24E
:103350000646BF69183F381B2C28F4D1B54202D964
:103360004C2005553546207D810704D565752046DE
:10337000FFF73FFA14E0C10701D0657510E000289F
:103380000ED12046FFF730FB65752046FFF708F9A0
:103390000028204602D0FFF795FA01E0FFF7A6FAD1
:1033A0000098FFF762FDFFF705F90020F8BD05481A
:1033B000401EF8BDFF209130F8BD0348F8BD000065
:1033C000D1DA00004D0400006E07000070B5FFF771
:1033D000D7F800280ED1FFF74CFD074C05462068B2
:1033E000FFF702FB2068FFF781FA2846FFF73DFD53
:1033F000FFF7E0F870BD00002000002010B5FFF7D7
:1034000091FD002809D00120FFF76AFCFFF7E4FCDA
:1034100002480068407DFFF73BFB10BD2000002004
:103420000000000000000000010203040607080974
:10343000030406080C1018203000000000010203ED
:103440000400000014090020000200006C34000891
:10345000000000205C00000016190008C8340008B5
:103460005C0000203C1F000026190008000000003E
:10347000000000000000000000000000000000004C
:10348000000020000000000000000000000000001C
:1034900000000000E80300000000000030000020F1
:1034A00030000020380000203800002040000020BC
:1034B0004000002064000000FFFFFFFF50000020DC
:0834C000500000200000000094
:04000005080000C12E
:00000001FF
