:020000040800F2
:10000000C01A0020D5000008150F00084F0E000888
:1000100000000000000000000000000000000000E0
:10002000000000000000000000000000A10F000818
:1000300000000000000000002D010008A30F0008D0
:10004000E7000008E7000008E7000008E7000008F4
:10005000E7000008E7000008E7000008E7000008E4
:1000600000000000E7000008E7000008E7000008C3
:10007000E7000008E700000800000000E7000008B3
:1000800000000000E7000008000000000000000081
:10009000E700000800000000E7000008E700000893
:1000A000E7000008E7000008E7000008E700000894
:1000B000E7000008E7000008000000000000000062
:1000C0000348854600F0EEF800480047F51B00089D
:1000D000C01A00200448804704480047FEE7FEE7B6
:1000E000FEE7FEE7FEE7FEE735100008C100000866
:1000F00072B6704762B67047EFF3108072B6704701
:1001000080F3108870471B481B490160002080F372
:1001100009881A481A49016062B6FEE7174818496B
:1001200001607047154816490160704772B6EFF3D9
:10013000098000280AD02038F0C044464D46564673
:100140005F46F0C020380F49096808600D480E4925
:100150000A6802601068F0C80CC8904699460CC83E
:1001600092469B4680F309887046042108438646E0
:1001700062B6704720ED00E00000FF0004ED00E0F3
:1001800000000010180000201C00002030B50B46B5
:10019000014600202022012409E00D46D5409D4261
:1001A00005D31D469540491B2546954040191546E7
:1001B000521E002DF1DC30BDF0B51FB40646002004
:1001C00082B005464024019100901BE0019922462F
:1001D0000F46304600F054F8049A059B801A994166
:1001E00010D310461946224600F03AF8361A8F41CD
:1001F0000197224601200021009F00F031F83818B5
:100200004D4100902046641E0028DFDC019B0098D1
:100210002946324607B0F0BD03460B439B0703D087
:1002200009E008C9121F08C0042AFAD203E00B78BB
:100230000370401C491C521EF9D27047D2B201E033
:100240000270401C491EFBD270470022F6E710B531
:1002500013460A4604461946FFF7F0FF204610BD34
:1002600010B5202A04DB0146203A9140002010BD41
:10027000914020239C1A0346E3401943904010BD4F
:1002800010B5202A04DB0846203AD040002110BDDA
:100290000B46D340D0402024A21A9140084319466F
:1002A00010BD0000064C0125064E05E0E36807CCB2
:1002B0002B430C3C98471034B442F7D3FFF704FFAC
:1002C000BC2C0008DC2C000870470000F8B50023A7
:1002D0000124A2E027469F403A4070D04D68022D8D
:1002E00001D0122D14D1DD08AD002D1800952D6A16
:1002F0005E07AC46F50E0F26AE46AE406546B543EA
:10030000AC460E697546AE4065462E43009D2E6292
:100310004D68012D05D0022D03D0112D01D0122DD5
:1003200016D185680326AC465D00AE46AE406546F4
:10033000B543AC46CE687546AE4065462E438660F2
:1003400046680D79BE43ED06ED0F9D40354345608F
:1003500006685F000325BD40AE46AE430D79B44646
:10036000AE07B60FBE4065462E430660C6687546AA
:10037000AE438D68BD403543C5604D68ED004BD53B
:10038000294D6E6B26436E639E08284DB600751985
:10039000AC46AD689E07360F0F27B740BD43052713
:1003A0003F07B84201D1002715E0214FB84201D1E3
:1003B000012710E01F4FB84202D102270BE02BE0CB
:1003C0001D4FB84201D1032705E01C4FB84201D1AF
:1003D000052700E00627B7402F436546AF60184D5C
:1003E0002E684F689643FF0300D516432E606E6853
:1003F0004F689643BF0300D516436E60AE684F68E2
:100400009643FF0200D51643AE60EE684F689643F0
:10041000BF0200D51643EE605B1C0A681546DD403E
:1004200000D057E7F8BD0000001002400000014076
:100430000004005000080050000C0050001C005048
:1004400000040140002A01D0816170478162704739
:100450000148006870470000080000200248016859
:10046000491C0160704700000800002010B50848D2
:1004700000240168402211430160204600F00AF880
:10048000002801D0012401E000F01CF8204610BD36
:100490000020024070B5054609487D210024C900AE
:1004A0000068FFF773FE00F0EFFB002801D0012485
:1004B00004E000222946501E00F010F8204670BDCE
:1004C0000C0000200448416B012211434163816B01
:1004D00002041143816370470010024010B500F020
:1004E0001BFD10BDF8B504460078544D800672D54A
:1004F000524E0027403EB06BC00004D4B06BA9053B
:100500000843B06301274E480168C90511D401684A
:10051000821511430160FFF79BFF009005E0FFF794
:1005200097FF0099401A642837D845480068C005ED
:10053000F5D532680321090560680A4001409142FF
:1005400008D08103890F032904D13168890301D5BB
:100550000120F8BD2A69032109040A4022D008407D
:1005600090421FD0207880061CD528692A698843CC
:100570000121C9040A432A612A698A432A61286140
:10058000C0050FD5FFF764FF009008E0FFF760FF9C
:100590000099411A2B48814201D90320F8BD2869EE
:1005A0008005F3D561688803800F032805D1326880
:1005B0000005824301400A433260286903226168D2
:1005C0001204114008432861002F04D0B16B0120B0
:1005D00000078143B1632078C00705D0E868A168AF
:1005E000800880000843E8602078800705D5E86827
:1005F0000C218843E1680843E8602078400706D56D
:10060000E86803218902884321690843E86020786B
:10061000000706D5E8680321090388436169084398
:10062000E8602078000606D5E8680321890488433D
:10063000A1690843E8600020F8BD000040100240B6
:100640000070004088130000F8B50E4605007DD00C
:1006500053480068C007C00FB0420AD25048016832
:1006600049084900314301600068C007C00FB0422B
:1006700071D128784B4C800705D5E068F02188437C
:10068000A9680843E0602878C00752D0686802284B
:1006900017D0032818D02168012818D0890500290F
:1006A00059DAE168890889000143E160FFF7D0FE6B
:1006B00069680746022912D003291CD0012926D0D7
:1006C00033E021688903EAE721688901E7E7490700
:1006D000E5E7FFF7BDFEC11B3348814223D8E06840
:1006E0000007800F0228F4D123E0FFF7B1FEC11B01
:1006F0002D48814217D8E0680007800F0328F4D105
:1007000017E0FFF7A5FEC11B274881420BD8E06820
:100710000007800F0128F4D10BE0FFF799FEC11B01
:100720002148814201D90320F8BDE0680007800F0D
:10073000F3D11B480168C907C90FB1420DD901683F
:100740004908490031430160006800E003E0C00748
:10075000C00FB04201D00120F8BD2878400706D56F
:10076000E068072109028843E9680843E0602878C7
:10077000000707D5E0680721C90288432969C90035
:100780000843E06000F036F8E168084A0906090FFE
:10079000515CC840064908600020FFF77BFEF8BDA9
:1007A000002002400010024088130000902C000836
:1007B0000C000020044805490068C968044A49053E
:1007C000490F515CC84070470C00002000100240E7
:1007D000A92C0008044805490068C968044A89042E
:1007E000490F515CC84070470C00002000100240C7
:1007F000A92C000810B5184AD1680C20084004281C
:100800000BD0082810D00C2810D050680004410FDD
:100810000120C003491C884010BD1068C00601D5E6
:100820000E4810BD0E4810BD0E4810BD88020E4B7C
:10083000000F185C0902D368890F491CDB0301D53E
:10084000084A05E01268D20601D5044A00E0044ACD
:100850005043FFF79BFC10BD0010024000093D0013
:100860000024F40000127A00A02C0008FEB5050058
:100870007ED0FE4CE7680C20E668074001200004AB
:1008800006402878C00747D0082F05D00C2F0AD182
:1008900001200004864206D1206880033CD56868A8
:1008A0000028E5D038E0012069680004814203D1C6
:1008B00021680143216011E0052301221B049204F9
:1008C0009942216802D111432160F1E781432160FF
:1008D00021680140009120689043206068680028EA
:1008E0000DD0FFF7B5FD009005E0FFF7B1FD0099D1
:1008F000401A64287AD820688003F6D50CE0FFF708
:10090000A7FD009005E0FFF7A3FD0099401A6428B9
:10091000F0D820688003F6D42878800755D50923BD
:10092000E868042F0DD00C2F01D1002E09D000282B
:100930003BD02168994301432160FFF789FD0646BA
:1009400027E02168490701D5002891D061681F225E
:10095000120291432A69120211436160216899438E
:1009600001432160FFF746FFE16809060A0F00E036
:1009700079E1BF49895CC840BE4908600020FFF7A3
:1009800089FD002872D120E0FFF762FD801B02285C
:10099000B0D820684007F7D560681F210902884356
:1009A00029690902084360600FE0206840084000A0
:1009B0002060FFF74DFD064604E0FFF749FD801B70
:1009C000022897D820684007F7D42878C0065FD55A
:1009D000002F0CD0A869002849D02068FF210131E0
:1009E00008432060FFF734FD06462DE0C0E0206894
:1009F000800502D5A8690028A7D0606807214903AF
:100A00008843296A084360606068297F0002000A01
:100A1000090608436060286A410B0120C003491C95
:100A20008840E16809060A0F9149895CC8409149EC
:100A300008600020FFF72EFD002817D128E0FFF7FF
:100A400007FD801B0228A3D820688005F7D56068C1
:100A5000072149038843296A084360606068297F49
:100A60000002000A09060843606011E0E1E0216825
:100A7000FF20013081432160FFF7EAFC064604E0D5
:100A8000FFF7E6FC801B022872D820688005F7D4A7
:100A90002878794E000724D568690028306910D07D
:100AA000012108433061FFF7D3FC009005E0FFF718
:100AB000CFFC0099401A02285AD830698007F6D531
:100AC0000FE0400840003061FFF7C2FC009005E0F5
:100AD000FFF7BEFC0099401A022849D83069800708
:100AE000F6D42878400765D500200290A06BC0009E
:100AF00006D4A06B012109070843A06301200290DE
:100B00005E480168C90511D401688215114301606E
:100B1000FFF79EFC009005E0FFF79AFC0099401A51
:100B2000642825D855480068C005F5D5FF20AA6877
:100B30000130824203D131690143316111E0012169
:100B40008902002A07D005231B029A4203D1326989
:100B50000A433261EFE73269824332613069884388
:100B60003061A86800280FD0FFF772FC009007E002
:100B70005EE0FFF76DFC0099411A4148814257D869
:100B800030698005F5D50DE0FFF762FC009006E0C6
:100B9000FFF75EFC0099411A3948814248D8306914
:100BA0008005F5D40298002804D0A06B0121090724
:100BB0008843A063686A002864D00C2F3ED00126C9
:100BC00036060228206805D0B0432060FFF740FCBD
:100BD00005462FE0B0432060FFF73AFC074604E0EB
:100BE000FFF736FCC01B022822D820688001F7D40A
:100BF000E96AA86AE2680843296BFD231B049A434B
:100C000011430843E060206830432060FFF720FC78
:100C1000054604E0FFF71CFC401B022808D82068AA
:100C20008001F7D52EE0FFF713FC401B022801D905
:100C30000320FEBD20688001F5D423E00128F8D010
:100C4000E06801210904AA6A014091420BD10F21F9
:100C50008904EA6A0140914205D1032189050840CF
:100C6000296B88420ED00120FEBD0000001002401A
:100C7000902C00080C000020401002400070004042
:100C8000881300000020EFE7094910B5401E884294
:100C900001D9012010BD074C60610321081F00F03D
:100CA0003BF90020A06107202061002010BD00005A
:100CB000FFFFFF0000E000E010B5040003D0606F0C
:100CC000002802D007E0012010BD0021702001554E
:100CD000204600F027F82420606720680168490852
:100CE00049000160204600F065FA0128ECD0606AF6
:100CF000002802D0204600F0C7F920684168092288
:100D0000D20291434160206881682A229143816028
:100D100020680168012211430160204600F01AFAA0
:100D200010BD000010B586B0044614216846FFF7D8
:100D30008CFA1149206888421CD11048416B01226D
:100D4000920311434163C16A01221143C162C06A27
:100D50006946104005900320400200900220019057
:100D60000020029003200390042004900520000737
:100D7000FFF7ACFA06B010BD003801400010024089
:100D8000FFB50446406F83B017460D4620285CD15E
:100D9000002D0AD0002F08D0A168C001814207D1E0
:100DA0002069002804D1E80702D0012007B0F0BD77
:100DB000204660300290007C012846D00298012134
:100DC00001740020E06721206067FFF741FB2646A1
:100DD00040360190378277820120A168000381426A
:100DE00002D12069002802D02F46002511E00027FB
:100DF0000FE000228021204600F0F0FA002815D1F3
:100E0000002F15D02168387888627F1C708A401EB8
:100E10007082708A019B002806980090E9D1002218
:100E20004021204600F0DAFA002808D00320BDE770
:100E300028882168C005C00D8862AD1CE6E7202027
:100E40006067029900200874B0E70220AEE7FEE771
:100E5000F0B587B014216846FFF7F7F91C48C16A5E
:100E600001252943C162C16A29400591C26A022154
:100E70000A43C262C06A0526084036070590002270
:100E800004213046FFF7DEFA124F00228021384657
:100E9000FFF7D8FA042000240090029469460195D7
:100EA00003943046FFF712FA402000900A48019060
:100EB000694602943846FFF709FA802000900294B0
:100EC0006946019503943846FFF700FA07B0F0BD74
:100ED00000100240000400500000111010B50C4832
:100EE0000A490160E1214902416000218160C1603D
:100EF00001618161C1610C22016242614162FFF7BF
:100F0000DBFE002801D0FFF7DFF910BD00380140FB
:100F1000E8020020704700008307FF22DB0E9A40A2
:100F20008907090E994000280BDA0007000F0838DE
:100F3000830808489B001818C36993430B43C36197
:100F40007047830804489B001B18186890430843A7
:100F50001860704700ED00E000E400E08307FF2226
:100F6000DB0E9A408907090E994000280BDA00072A
:100F7000000F0838830808489B001818C36993437A
:100F80000B43C3617047830804489B001B18186813
:100F9000904308431860704700ED00E000E400E073
:100FA000704710B5FFF75AFA01F088FB002805D00A
:100FB00001F046FB01F05AFE01F052FB10BD0000AB
:100FC00030B599B034216846FFF73FF914210DA8D8
:100FD000FFF73BF91C2112A8FFF737F91448016805
:100FE0000322D2029143C214891801600220102109
:100FF00000900491099040040B9000010125002409
:101000000C9003950A946846FFF730FC0F200D9072
:1010100003200E900F941094012111940DA8FFF756
:1010200013FB12A812951494FFF75CFA19B030BDA7
:101030000070004010480168821511430160C168CA
:101040000E4A1140C16001680D4A1140016081687B
:1010500049084900816001680122920491430160BE
:10106000C168FD2212049143C1600021016105495C
:10107000C003886070470000001002400C40FF88E9
:10108000F6FFF6FE00ED00E010B5818CC90707D031
:1010900001684A6801235B049A43836A1A434A60E1
:1010A000818C890707D501684A6801231B049A438C
:1010B000C36A1A434A60818C490707D501684A68A8
:1010C00001239B049A43036B1A434A60818C0907EE
:1010D00007D501684A680123DB039A43436B1A432F
:1010E0004A60818CC90607D50268916801231B03F9
:1010F0009943836B19439160818C890607D50168F8
:101100008A6801235B039A43C36B1A438A60818C0C
:10111000490612D503685A6801210905046C8A43FF
:1011200022435A60026C8A4207D102685168032345
:101130005B059943436C19435160818C090607D5BF
:1011400001684A680123DB04806C9A4302434A60C9
:1011500010BD0000F8B500260446C667FFF778F911
:10116000054620680068124F000709D501212B466B
:10117000002249052046009700F030F900280DD1E3
:101180002068006840070BD501212B460022890505
:101190002046009700F022F9002801D00320F8BD76
:1011A00020206067A067603426740020F8BD00002E
:1011B000FFFFFF01F8B504462669A268E7693243DC
:1011C0006669102000253E432368324378491E6833
:1011D000784F3E4016431E6023685A680326360344
:1011E000B243E66832435A602368A2698B4201D059
:1011F000266A32439E680B273F02BE4316439E6019
:101200006D4E23686D4AB3420CD1D2689207920F9B
:1012100006D0012A38D0022A34D0032A20D11EE079
:1012200001201DE0664EB3420AD1D2680C2632403E
:1012300026D0042A28D0082A24D00C2A10D10EE067
:101240008B420DD1D66803229202164018D001229B
:101250009202B61A18D0B61A14D0964200D10820BD
:10126000564A0126403A574FF6038B4236D10028A2
:101270000CD002280DD0042812D008281FD11CE061
:101280000020EDE70220EBE70420E9E7FFF792FA00
:1012900008E01068C00601D5384605E04A4803E07A
:1012A000FFF7A8FA002873D06268510051188142F4
:1012B00005D81103814202D303E03046F4E701254B
:1012C00066E0010E06025008002330185941FEF76F
:1012D00073FF03210902411A3C4A55E0E169B1421A
:1012E00032D1030000F0BCF809070A0D06250606F6
:1012F000062B0600E3E7FFF75DFA1CE0FFF76AFA4A
:1013000019E010686168C00602D54808304A01E05B
:10131000304A48088018FEF739FF80B201462E4A4D
:1013200010399142CBD8511C01400007400F0843AF
:101330002CE0FFF75FFA616840004A08EAE761685D
:10134000012248081204E5E7030000F089F80907C4
:101350000A0D06260606062C0600B0E7FFF72AFA55
:101360001DE0FFF737FA1AE010686168C00602D581
:101370004808C01902E014484A081018FEF706FF92
:1013800080B20146144A1039914298D82168C86049
:101390000020206660662846F8BDFFF72BFA6168DA
:1013A0004A088018EAE7616848088019E6E7000003
:1013B00000480040F369FFEF003801404010024050
:1013C0000044004000093D000024F400FFFC0F0031
:1013D00000127A000048E801EFFF0000FFB581B07D
:1013E00017460E4604460A9D09E0681C07D0FFF721
:1013F0002FF80499401AA8420CD8002D0AD0206872
:10140000C1693046884318D00020B842EDD0002092
:1014100005B0F0BD20680168FF22A1329143016050
:101420002068816849084900816020206067A067C2
:101430000020603420740320EAE70120E5E7000083
:101440000FB410B503A9044B044A029800F02AF81F
:1014500010BC08BC04B01847D11A00085000002086
:1014600030B47446641E2578641CAB4200D21D461D
:10147000635D5B00E31830BC184710B500F036FB25
:10148000401E10BD02E008C8121F08C1002AFAD190
:1014900070477047002001E001C1121F002AFBD1F4
:1014A00070470000FFB58FB00F460446002606E0E7
:1014B00025280AD0129A11999047641C761C20782E
:1014C0000028F5D1304613B0F0BD00250121A14A16
:1014D000009500E00543641C23780846203B9840B3
:1014E0001042F7D120782E2815D1042005436078CA
:1014F000641C2A280AD101CF641C00900BE00099DB
:101500000A22514330394018641C0090207801466B
:1015100030390929F3D920786C280ED004DC4C2806
:1015200013D06A2812D104E074280ED07A280DD185
:101530000BE001204005054307E001210905627821
:101540000D43824201D16D18641C641C20788646CC
:1015500069284AD008DC0028B4D058286DD0632808
:1015600010D0642808D140E070286BD0732812D0C6
:10157000752860D0782860D0129A704611999047EB
:10158000761CE5E03878694608720020487202A8A7
:101590000190012003E0386801900020C0433F1D06
:1015A00069070CD5002500E06D1C00998D420FDA0B
:1015B0008542F9DB0199495D0029F5D108E0002554
:1015C00000E06D1C8542FCDB0199495D0029F8D1E2
:1015D000761907E0019801990078491C0191129A47
:1015E000119990476D1EF5D2B2E00A2002900021B9
:1015F0006802400F039102280CD001CFC117844626
:1016000000290DDA62460846524200218141944683
:101610002D2008E0FF1DFF08FF0003CF8446EFE701
:10162000280504D52B206A46107401203CE0E80709
:101630003AD02020F7E70A2000E010200021039193
:10164000029007E0102002900021042005430820AA
:10165000039100906802400F022810D001CF0021B2
:10166000844600200D9028071FD5704670280CD0A6
:10167000029A1020039B42401A430CD015E0FF1D34
:10168000FF08FF0003CF8446EBE740206A46107452
:1016900001200D900CE06046084306D030206A46D9
:1016A00010747046507402200D907046582804D073
:1016B00029A001900DA80E900DE02CA0F9E760463E
:1016C000039B029AFEF778FD019B84469B5C0E9A71
:1016D000521E0E92137060460843F0D10E9805A971
:1016E000081A20300190680701D5009801E0012018
:1016F00000900199884203DD01460198081A00E034
:1017000000200025009006E004A8129A405D11997F
:1017100090476D1C761C0D988542F5DB04E0129A0B
:10172000302011999047761C0099481E009000299E
:10173000F5DC08E00E980E990078491C0E91129A7B
:1017400011999047761C0199481E01900029F1DCFF
:10175000641CB4E6092801003031323334353637A1
:1017600038396162636465660000000030313233ED
:10177000343536373839414243444546000000008D
:1017800010B504464868616880088000001D401854
:101790006060204600F02AF8204610BD7CB5044663
:1017A000406801AA80088000694600F047FA009965
:1017B0000D48019BCA0112189D0055198035064637
:1017C0006A681036E660A260D4606C60012215463B
:1017D0008D40046A89002C4304620818416A9A40CB
:1017E000114341627CBD0000380A002010B5044658
:1017F00000F021F8046010BD10B50446FFF7F6FFB5
:101800004168022211434160606801210843606021
:1018100010BD70B5054600F00EF804460079C0070B
:1018200007D0204600F00FF821462846FFF7A8FF12
:101830000546284670BD0146406808318008800092
:10184000001F081870471CB50446406801AA8008AC
:101850008000694600F0F2F92046019A009900F0F4
:10186000B9FB1CBD38B50024214661310D4628A0C6
:10187000FFF7E6FDE9B22B4800F072FE002802D027
:1018800029A0FFF7DDFD641C052CEDDB7A2125483E
:1018900000F066FE1921890188420BD1214800F031
:1018A00011FE002801D026A100E027A128A0FFF703
:1018B000C7FD02E01CA0FFF7C3FD002469461948DC
:1018C00000F010FE002813D017A0FFF7B9FD641C2C
:1018D000052CF3DB6946134800F004FE21498842D9
:1018E00012D1104800F0DEFD002808D014A107E056
:1018F0006846027821461CA0FFF7A2FDE7E712A187
:101900001CA0FFF79DFD38BD07A0FFF799FD38BD6E
:1019100063686172207075736865643A2025630A94
:1019200000000000CC02002073686F756C64206EAC
:10193000657665722068617070656E0A000000004F
:10194000545255450000000046414C5345000000EC
:101950006669666F2069732066756C6C3A20257322
:101960000A00000041060000256420706F703A20D4
:1019700025630A006669666F20697320656D70745F
:10198000793A2025730A000010B5FEF7C7FB10BD99
:1019900010B50548016805480068FEF7F7FB0449E3
:1019A000086000F00DF810BD200000200C000020A1
:1019B0002400002010B5FEF7B5FB10BDFEF7A3FB19
:1019C00010B50446002000F02BFA204600F014FA6F
:1019D00010BD000030B5039C1C19E408E400CC25C0
:1019E00001E01D705B1CA342FBD301231B06251FD6
:1019F0002B602B1F1860181F0260144A001F026022
:101A0000134A001F0260134A001F02605210001F99
:101A10000260001F01601049001F01601101001FDA
:101A200001600E49001F0160D100001F01600C49D8
:101A3000001F01600B49001F01600B49001F01607E
:101A40009000403C2060204630BD0000121212126F
:101A5000030303030202020211111111090909090A
:101A600007070707060606060505050510B5052242
:101A70000749084800F0FEFC07A0FFF7E1FCFFF76C
:101A8000F1FE0CA0FFF7DCFC00F002FB10BD000033
:101A900000000020CC0200206669666F2C2064657F
:101AA000616C696E67207769746820636861720A87
:101AB000000000006669666F2C206465616C696EC9
:101AC0006720776974682073747265616D0A00001D
:101AD00013B5044B012269460348FFF751F90098FA
:101AE0001CBD0000FFFF0000E802002020210028AC
:101AF00013D0020C01D100041021020E01D100020A
:101B00000839020F01D10001091F820F01D18000A5
:101B1000891E002800DB491E0846704700F09AFB2A
:101B2000FCE700001FB5074A07490023126809684F
:101B300009206C460FC4054A05A1074800F05AFF6A
:101B400004B010BDB82C0008B42C00081D1B000800
:101B500069646C6500000000C003002003498842EE
:101B600001D101207047002070470000C003002011
:101B700002480078002800D00120704710000020A3
:101B800002480078002800D0012070471100002092
:101B900003490968884201D101207047002070473D
:101BA0001800002010B50E480078012817D10D4804
:101BB0000078002813D10C48007800280FD100F0DD
:101BC00024FD044600F078F90849086008490968CE
:101BD000884201D0FFF7D8FE204600F012FD10BD6C
:101BE0001200002010000020110000201C00002026
:101BF000180000201FB5FEF739FCFFF7E1F9FFF7E9
:101C000027F9FFF76BF900F005FD012200235202CE
:101C1000054904206C460FC4044A05A1064800F09B
:101C2000E9FE00F0A1FDFEE7540000206D1A000857
:101C300064656D6F000000005402002070B5154609
:101C40000E460446802805D2E117890F00200919A5
:101C50008C1006E0FFF711FC411F0C4120214C4085
:101C6000801F30602C6070BD70B500220F48114697
:101C700002608B001B18491C5A600329F9DB0B4CCE
:101C800010348461C461002102628B001B185A6207
:101C90000023CD012D189E00AE1980365B1C7460A8
:101CA000202BF8DB491C1829EFDB70BD380A002017
:101CB00070B50C460546FFF7D7FF2146284600F0D1
:101CC0008DFD70BD10B5084A0021136807E08C0037
:101CD000A4186468844201D1012010BD491C8B42C4
:101CE000F5DC002010BD0000380A002070B5044665
:101CF0000069A169E2694A6011600021216105461D
:101D000021734035297B0A260A2903D000F04EFFB3
:101D10002E7370BD427D217D8A42FAD000F046FFCD
:101D2000267570BD10B50446FFF7E0FF0421201DA5
:101D300000F050F810BD0168814203D03C3901D059
:101D4000487D70470A20704710B50A683C3A134630
:101D50003C338B4205D0437D547DA34201D3D26BEB
:101D6000F4E703463C33146C13643C3214C3083B61
:101D700023600165017D02221143017510BD10B57C
:101D8000C16B026C4A601160016DFFF7DDFF10BD91
:101D9000C16B026C4A60116000210165017DFD226A
:101DA00011400175704710B50446007D800704D5C9
:101DB000542001552046FFF7EBFF207DC00702D0DD
:101DC000204600F07FFA207D400702D4204600F034
:101DD0002FF810BD70B5054600680E4604683C3803
:101DE00001463C3C3C31A94205D03146FFF7DBFFC0
:101DF0002046E46BF4E770BD074910B5401E8842E9
:101E000009D8064C60610321081FFFF7A7F80020DE
:101E1000A0610720206110BDFFFFFF0000E000E08F
:101E2000014610B50020C043FFF798F810BD000030
:101E300010B5064A417D1268527D914202D100F0F0
:101E40001BF810BD00F004F810BD000018000020C1
:101E500070B50446407D074AC1008D182968A94223
:101E600001D100F06FF828683C34446021C4083C7C
:101E70002C6070BD6803002070B50446407D074AA1
:101E8000C1008D182968A94201D100F05BF83C34EB
:101E900068686C6025606060046070BD6803002045
:101EA0000449C00041180868884201D100207047E9
:101EB0003C3870476803002004480449007D4039DD
:101EC000C000401800683C3870470000A80300209C
:101ED0000B480A2101750A4A0020403AC1008918BE
:101EE000401C0960C0B249600A28F7D300200146AF
:101EF00083009B18401C00061965000EF8D070473F
:101F0000A80300200549C0004118086800688842FD
:101F100001D10120704700207047000068030020B5
:101F20000749C00041180868884208D00CC85360AF
:101F30001A6008384A68486006C008381060704760
:101F40006803002041098A0010B50949C3065118E9
:101F5000DB0E1F24E41A01230A6DA3401A430A650D
:101F6000034940310A7D824200D9087510BD000046
:101F70006803002070B5417D046CC06B144ACB002F
:101F800044609B182060186898420BD14809800073
:101F90008018CB06DB0E1F24E41A0123026DA34038
:101FA0009A4302650A4D4035287D88420ED10024AF
:101FB0002846103002E02034E4B2001D01680029F8
:101FC000F9D0084600F004FB0019287570BD000028
:101FD0006803002070B58468C368E3609C600E4BA2
:101FE000CD01ED189600AD1980356E68864211D18D
:101FF000184610306C6084420CD18800C51801204E
:1020000006466C6A9640B4436C6203D11A6A8840F3
:1020100082431A6270BD0000380A002070B506467F
:1020200000F0F3FA05463046FFF73AFF040012D0FD
:10203000FFF794FD00280ED13046FFF763FF00281C
:1020400009D1FFF79DFD002805D1E06D002806D0DD
:10205000401EE06503D0284600F0D3FA70BD0A4860
:102060000068407DFFF75CFF3046FFF719FF816D88
:10207000002901D105490968C165284600F0C1FA67
:10208000FFF790FD70BD0000180000204000002008
:1020900030B52CA103C987B0029101902BA0006834
:1020A00006900024052201A9294800F06FFA0528AE
:1020B00002D028A0FFF7C4F9012206A9244800F0A5
:1020C00065FA00280BD023A0FFF7BAF9052204A96E
:1020D0001F4800F01DFA05280DD01EA017E01C486F
:1020E00000F0F0F9002801D020A100E021A123A0F8
:1020F000FFF7A6F9EAE726A0FFF7A2F904AD295DEC
:1021000027A0FFF79DF9641C052CF8DB1FA0FFF743
:1021100097F9012204A90E4800F0FAF9002804D02A
:102120000CA0FFF78DF907B030BD094800F0BAF9EF
:10213000002801D00DA100E00EA11AA0FFF780F940
:10214000F1E7000061626364650000007A0000004E
:10215000CC02002073686F756C64206E65766572C2
:102160002068617070656E0A000000005452554589
:102170000000000046414C53450000006669666F50
:102180002069732066756C6C3A2025730A00000084
:1021900073747265616D20706F707065643A0A00C7
:1021A000256300006669666F20697320656D707431
:1021B000793A2025730A000070B50446FFF7CEFC7B
:1021C000002801D01B4870BD00F01FFA06462146CA
:1021D000606C443188420AD00568183803E0FFF784
:1021E000A1FD2846AD69011B183D2C29F7D1207DA2
:1021F000002802D12046FFF7BDFE207DC00702D097
:10220000204600F05FF8207D800702D52046FFF7CA
:10221000BFFDA06AE16A41600860204600F036F820
:1022200008202075304600F0ECF9FFF7BBFC0020D9
:1022300070BD00006C07000010B5002000F04AFCE3
:1022400010BD10B50446806900F0AFFA204600F0DA
:10225000ACFA10BD70B500F0D8F90B4D06462868F1
:102260000468203807E0016A426A4A601160FFF79B
:10227000E8FF2046246A0146203C2031A942F2D1E1
:10228000304600F0BEF970BD280000200021024653
:10229000017120320262426208328262C2620C32F2
:1022A000426382630832C2630264083242640A23D2
:1022B0008264121F137311750165016641668166A0
:1022C000C180704770B5044600F09FF9054620466E
:1022D000343000F063FA002811D1616B08463438BD
:1022E0000DD00D4A91420AD0226B016B931C5B42C8
:1022F000994201D8891801E00121C9430163606B4B
:10230000A16B41600860284600F07BF9207D400801
:102310004000207570BD00003800002070B50646F2
:1023200000F073F905461348134C016889190160E0
:102330002068A04219D03438016BB14205D8002181
:1023400001632068066834380AE0891B01630CE0E9
:10235000016B002909D10221FFF725FD3046766B7C
:102360000146343E3431A142F2D1284600F049F909
:1023700070BD0000140000203800002000207047CD
:1023800070B5044600F041F91049054660690968D6
:102390000F4A41186161506803E04369994204D3D0
:1023A000C0680C38831A0833F7D121460C31036911
:1023B00001610C3009C1083919605068884201D1A7
:1023C00060691060284600F01CF970BD1400002000
:1023D0004400002070B5044600F017F90C4903468C
:1023E0004D68E068226942600C3D1060A54207D14B
:1023F000E0680C34A04207D00C3805D04069086072
:10240000184600F0FEF870BD0020C043F7E700005A
:1024100044000020F8B5154E154F306839688842E1
:102420001DD300F053F9746825680C3C11E0606915
:102430003968884211D82046FFF7CCFF208C02284B
:102440000ED00321222001556168A06888472C46E0
:10245000ED68A01B0C3D0830E9D100F05DF9F8BD36
:10246000E06960612046FFF78BFFEDE74400002044
:102470001400002010B504000DD000290BD001235A
:10248000201D00F0F3F9002804D1044860800120E9
:102490002070002010BD024810BD0000D8DA0000F6
:1024A0004C04000010B5002804D04188044A914231
:1024B00001D0002010BD001D00F06CFA10BD00001E
:1024C000D8DA000010B5002804D04188044A9142AF
:1024D00001D0002010BD001D00F074FA10BD0000F6
:1024E000D8DA000010B500280AD04288064B9A427C
:1024F00001D0064810BD0022001D00F0CFF910BD2C
:102500000248401E10BD0000D8DA00004D04000053
:10251000F7B5002482B016460546002803D0688827
:102520000E49884202D0002005B0F0BD00F06DF8E1
:1025300007460BE000226946281D00F0AFF900288D
:1025400006D16846017803980155641CB442F1D362
:10255000384600F056F82046E6E70000D8DA0000DA
:1025600013B500280BD04188064A914201D0064895
:102570001CBD012201A9001D00F0CEF91CBD0248BE
:10258000401E1CBDD8DA00004D040000F7B5002441
:1025900016460546002803D068880C49884201D0B9
:1025A0000020FEBD00F031F8074608E00198012246
:1025B0000119281D00F0B0F9002802D1641CB442B2
:1025C000F4D3384600F01DF82046FEBDD8DA0000EE
:1025D0000021020C01D100041021020E01D10002E1
:1025E0000831020F01D10001091D820F01D18000C5
:1025F000891C002803DB491C002800D1491C08461F
:10260000704710B5FDF77CFD10BD10B5FDF774FDEA
:1026100010BD000010B5FFF7BBF9FFF759FC012111
:1026200089020648FFF744FB002805D1FFF77AFA34
:10263000002801D1FFF7A2FE10BD000038060020DF
:1026400005480078012805D104480178FA2901D20B
:10265000491C01707047000012000020100000208B
:1026600010B51148007801281CD1FFF7CEFF0446B1
:102670000E480178002912D0491E0906090E017082
:102680000DD10B480078002809D1FFF715FC094946
:10269000086009490968884201D0FFF78BF9204694
:1026A000FFF7AFFF10BD0000120000201000002057
:1026B000110000201C0000201800002002480078B3
:1026C000012800D0002070471200002010B50F48EC
:1026D0000078002816D10E480078012802D0FF208B
:1026E000F53010BD0B4C2078FA2802D34B20C000E7
:1026F00010BDFFF78AFF2178491C2170FFF781FF89
:10270000002010BDFF20913010BD000010000020FF
:10271000120000201100002010B50F48007800289A
:1027200017D10E480078012802D0FF20F53010BDE7
:102730000B4C207800280AD0FFF767FF2178491E4C
:102740002170FFF75EFFFFF72DFA002010BD05484E
:1027500010BDFF20913010BD10000020120000209D
:1027600011000020A506000010B5094C20780128B2
:102770000BD0FFF7A1FB074908600749086001205B
:102780002070FFF71BF9002010BDFF20F63010BDB0
:10279000120000201C000020180000200168814267
:1027A00001D1012070470020704770B5002814D077
:1027B00008380446FFF720F82079800708D52568F7
:1027C0002846FFF740F821462846FEF7D9FF044681
:1027D0002046FFF71EF8FEF7E1FF70BDF8B5204E6A
:1027E0000446306801270D46032806D02046FFF72F
:1027F00069FA002804D01B48F8BD1A48401EF8BDED
:10280000A807800F291A0839A00702D01920400113
:10281000F8BD0846144A0C38904202D31148801E75
:10282000F8BD2078251F8007800F08433843022712
:10283000B84320602846FEF7B1FF2846FEF7D6FFD2
:1028400001798907890F4908490039434160306897
:102850008000801944603068401C30600020F8BD62
:10286000380A002023030000F5FFFF3F10B50028C1
:102870000ED000290CD000248480C48084600361C1
:102880004261C1600349418001210170204610BDB1
:10289000014810BDD5DA00004C040000F8B516461A
:1028A0000F4604002ED0002F2CD060881749884294
:1028B00001D01748F8BDFFF7A8FE0546204600F0F6
:1028C00069F8002804D02846FFF79BFE1148F8BDA0
:1028D000A1882269E36851433846C918FDF79CFC7A
:1028E000002E01D020693060A0886169401CFDF78E
:1028F0004DFCA180A068401EA0602846FFF781FE25
:102900000020F8BD0248401EF8BD0000D5DA0000E6
:102910004D0400004106000070B50E46040030D0A2
:10292000002E2ED060881849884201D0174870BD0B
:102930002069904201D0164870BDFFF766FE05463B
:10294000204600F03FF8002805D02846FFF759FE42
:102950001920800170BDE0882269E3685043314648
:10296000C018FDF759FCE0886169401CFDF70EFCBA
:10297000E180A068401CA0602846FFF742FE0020CE
:1029800070BD0248401E70BDD5DA00004D04000045
:102990004206000010B5040003D060880849884250
:1029A00001D0002010BDFFF730FEA168002904D03F
:1029B0000024FFF726FE204610BD0124F9E70000A1
:1029C000D5DA000010B5040003D0608808498842B9
:1029D00001D0002010BDFFF718FE6269A168914286
:1029E00001D1012400E00024FFF70BFE204610BDBA
:1029F000D5DA0000FFB581B004460A9F0C9E0D9DFC
:102A0000FFF7B6F800284FD1002C50D003980028CB
:102A10004DD00B9800284AD0402E4AD3092F01D020
:102A200049D804E02046FFF799F8002843D0204613
:102A3000FFF72CFC214920460A6828305060A2622A
:102A4000E16208601E49E1800120207100961D4A64
:102A50000B9B04990398FEF7BDFF20600398E0608C
:102A6000049820610298A06067750B98E661A565DF
:102A7000A061002D14D0E565FFF7C7FD05460020D5
:102A800020752046FFF7F8F92846FFF7BAFDFFF753
:102A900015FE002801D0FFF785F8002005B0F0BD35
:102AA00009480068E065E7E7FF209130F6E707484E
:102AB000F4E70748F2E70648401FEFE73000002040
:102AC000D1DA000039220008400000204C04000048
:102AD00073070000F8B50446FFF74AF8002854D100
:102AE000002C4FD0E0882C4F2C4DB84215D12046F9
:102AF000FFF74EF82A4E002803D0FFF741F80028D0
:102B000034D1207902280AD0FFF732F800283CD1CE
:102B1000002C3DD0E088B8421FD02846F8BDFFF712
:102B2000D5FD2046FFF748FB050002D0FFF7F4FD76
:102B3000F3E72046FFF72CF8002807D01948203487
:102B400001684C6021606060046002E02046FFF78D
:102B500078FBFFF7E1FD0020F8BD2046FFF718F8ED
:102B6000002805D0FFF70CF8002801D03046F8BD4A
:102B70002079012802D00948401CF8BD2046FFF703
:102B80001BFBF8BD08480468ACE7FF209130F8BD96
:102B900005480468BEE70000D1DA00004D040000DB
:102BA000A40600002800002018000020F8B50D46FB
:102BB00004004CD0E0882A49884201D02948F8BD59
:102BC000FEF7D6FF002845D1092D46D2FFF71DFD9F
:102BD0000090607DA84233D02046676C4430874225
:102BE00011D00A2606E0381DFFF7A5F8B04200D242
:102BF0000646BF69183F381B2C28F4D1B54202D9CC
:102C00004C2005553546207D810704D56575204645
:102C1000FFF7B5F814E0C10701D0657510E0002892
:102C20000ED12046FFF7A6F965752046FEF7B0FFE6
:102C30000028204602D0FFF70BF901E0FFF71CF94E
:102C40000098FFF7DEFCFEF7ADFF0020F8BD054859
:102C5000401EF8BDFF209130F8BD0348F8BD0000CC
:102C6000D1DA00004D0400006E07000010B5FFF738
:102C700025FD002809D00120FFF750FBFFF7CAFB14
:102C800002480068407DFFF7C9F910BD1800002018
:102C9000000000000000000001020304060708090C
:102CA000030406080C101820300000000001020385
:102CB000040000003804002000020000DC2C0008A2
:102CC000000000205400000084140008302D00088B
:102CD000540000206C1A000094140008000000004A
:102CE00000000000000000000000200000000000C4
:102CF000000000000000000000000000E8030000E9
:102D000000000000280000202800002030000020E3
:102D1000300000203800002038000020640000004F
:102D2000FFFFFFFF480000204800002000000000D7
:04000005080000C12E
:00000001FF
