:020000040800F2
:1000000050180020D5000008E5130008F112000880
:1000100000000000000000000000000000000000E0
:10002000000000000000000000000000D9140008DB
:1000300000000000000000002D010008DB14000893
:10004000E7000008E7000008E7000008E7000008F4
:10005000E7000008E7000008E7000008E7000008E4
:1000600000000000E7000008E7000008E7000008C3
:10007000E7000008E700000800000000E7000008B3
:1000800000000000E7000008000000000000000081
:10009000E700000800000000E7000008E700000893
:1000A000E7000008E7000008E7000008E700000894
:1000B000E7000008E7000008000000000000000062
:1000C0000348854600F0DCF8004800479D240008FE
:1000D000501800200448804704480047FEE7FEE728
:1000E000FEE7FEE7FEE7FEE791150008C100000805
:1000F00072B6704762B67047EFF3108072B6704701
:1001000080F3108870471B481B490160002080F372
:1001100009881A481A49016062B6FEE7174818496B
:1001200001607047154816490160704772B6EFF3D9
:10013000098000280AD02038F0C044464D46564673
:100140005F46F0C020380F49096808600D480E4925
:100150000A6802601068F0C80CC8904699460CC83E
:1001600092469B4680F309887046042108438646E0
:1001700062B6704720ED00E00000FF0004ED00E0F3
:1001800000000010100000201400002030B50B46C5
:10019000014600202022012409E00D46D5409D4261
:1001A00005D31D469540491B2546954040191546E7
:1001B000521E002DF1DC30BDF0B51FB40646002004
:1001C00082B005464024019100901BE0019922462F
:1001D0000F46304600F042F8049A059B801A994178
:1001E00010D310461946224600F028F8361A8F41DF
:1001F0000197224601200021009F00F01FF83818C7
:100200004D4100902046641E0028DFDC019B0098D1
:100210002946324607B0F0BDD2B201E00270401C60
:10022000491EFBD270470022F6E710B513460A4676
:1002300004461946FFF7F0FF204610BD10B5202AEE
:1002400004DB0146203A9140002010BD914020235C
:100250009C1A0346E3401943904010BD10B5202A74
:1002600004DB0846203AD040002110BD0B46D340A5
:10027000D0402024A21A91400843194610BD000026
:10028000064C0125064E05E0E36807CC2B430C3CE9
:1002900098471034B442F7D3FFF716FFC837000869
:1002A000E83700087047000070B5034600220024BC
:1002B0000020DAE0012696400D6835402C46002CDF
:1002C00077D04D68022D02D04D68122D15D1D5087A
:1002D000AE001D462035A8595507EE0E0F25B54036
:1002E0000646AE4330465607F60E0D69B540284324
:1002F000D508AD001E46203670514D68012D08D03E
:100300004D68022D05D04D68112D02D04D68122D7B
:1003100018D1986856000325B5400646AE433046CE
:100320005600CD68B540284398605868012595402F
:100330000646AE43304610264D6835402D0995409F
:1003400028435860186856000325B5400646AE435A
:1003500030460D79AD07AD0F5600B5402843186003
:10036000D86856000325B5400646AE4330465600D1
:100370008D68B5402843D860012636074D68354062
:10038000B54271D13C4D6D6B012635433A4E7563D4
:100390003A4D9608B600A85995072E0F0F25B5407F
:1003A0000646AE43304605252D07AB4202D1002557
:1003B00015E059E0324DAB4201D101250FE0314D3E
:1003C000AB4201D102250AE02F4DAB4201D10325FA
:1003D00005E02E4DAB4201D1052500E0062596072C
:1003E000360FB5402843254D9608B600A851284D34
:1003F00028680546A5432846012636044D68354041
:10040000B54202D1054625432846214D286068683B
:100410000546A5432846012676044D683540B54279
:1004200002D1054625432846194D6860A86805464F
:10043000A5432846012636054D683540B54202D110
:10044000054625432846124DA860E8680546A543A1
:100450002846012676054D683540B54202D105464D
:10046000254328460A4DE860521C0D68D540002DF2
:1004700000D01FE770BD00000010024008000140DE
:100480000004005000080050000C0050001C0050F8
:1004900000040140002A01D0816100E081627047C0
:1004A0000148006870470000000000200248006812
:1004B000401C0149086070470000002010B500246E
:1004C000084800684021084306490860002000F001
:1004D0000BF8002801D0012401E000F01FF82046AD
:1004E00010BD00000020024070B5044600257D21AB
:1004F000C90009480068FFF749FE064600F0E6FD1E
:10050000002801D0012504E000222146501E00F001
:1005100015F8284670BD0000040000200648406B16
:1005200001210843044948630846806B09040843D5
:1005300001498863704700000010024070B504460E
:100540000D4616462946204600F04EFF70BD0000BD
:10055000F8B5044620212068084020287CD1206876
:100560000840202800D100BF00278148806B01216E
:1005700009070840002805D17D48806B08437C4965
:10058000886301277B480068FF210131084000286B
:1005900016D178480068084376490860FFF780FF65
:1005A000064606E0FFF77CFF801B642801D9032084
:1005B000F8BD70480068FF21013108400028F1D0E3
:1005C0006B480568032109050D4060680840A84292
:1005D0000DD0091160680840884208D1644800685D
:1005E000012149040840884201D10120E0E7604828
:1005F000403000690321090408400546002D3DD024
:1006000060680840A84239D020212068084020288E
:1006100034D1574840300069032109048843054616
:100620005348403000690121C90408435049403112
:100630000861084600690121C90488434C494031DA
:10064000086108460561801528408915884215D142
:10065000FFF726FF064608E039E0FFF721FF801B81
:100660004549884201D90320A2E74148403000694A
:10067000012149020840400A0028EED000BF00BF17
:10068000032109046068084088420AD1384800689C
:100690000901884303221205616811400843344967
:1006A000086000BF324840300069032212046168CC
:1006B000114008432E494031086100BF012F05D188
:1006C0002B48806B890588432949886300BF2078BF
:1006D000C007C00F002809D025484030C0688008F6
:1006E0008000A168084322494031C8600221206887
:1006F0000840022809D11E484030C0680C218843B8
:10070000E16808431A494031C86004212068084064
:1007100004280AD116484030C06803218902884362
:100720002169084312494031C86008212068084007
:1007300008280AD10E484030C068032109038843C5
:10074000616908430A494031C86080212068084037
:1007500080280AD106484030C068032189048843B4
:10076000A169084302494031C860002020E7000029
:10077000001002400070004088130000F8B50446E5
:100780000D46002C01D10120F8BD79480068C00752
:10079000C00FA8420ED276480068400840002843A7
:1007A0007349086008460068C007C00FA84201D01E
:1007B0000120E9E7022120680840022807D16D489E
:1007C000C068F0218843A16808436A49C86020785E
:1007D000C007C00F00284CD06068022809D16548C6
:1007E0000068012149040840400C002824D1012060
:1007F000CAE76068032809D15E48006801214906FC
:100800000840400E002817D10120BDE7606801288C
:1008100008D15848006804210840800800280BD1FE
:100820000120B1E753480068012149020840400A0D
:10083000002801D10120A7E74E48C0688008800049
:10084000616808434B49C860FFF72AFE06466068A6
:1008500002280FD107E0FFF723FE801B464988429C
:1008600001D9032090E74348C0680C2108400828BC
:10087000F1D134E0606803280FD107E0FFF710FEE4
:10088000801B3D49884201D903207DE73948C06873
:100890000C2108400C28F1D121E0606801280FD11B
:1008A00007E0FFF7FDFD801B3349884201D9032093
:1008B0006AE73048C0680C2108400428F1D10EE0F6
:1008C00007E0FFF7EDFD801B2B49884201D903208B
:1008D0005AE72848C0680C2108400028F1D1244874
:1008E0000068C007C00FA8420ED921480068400820
:1008F000400028431E49086008460068C007C00F32
:10090000A84201D001203FE70421206808400428C4
:1009100008D11848C068072109028843E1680843E4
:100920001449C860082120680840082809D11148E6
:10093000C0680721C90288432169C90008430D49DD
:10094000C86000F049F80B49C968F0221140090954
:100950000A4A515CC8400A4908600020FFF7C4FDFC
:100960000746002F01D038460EE700200CE70000B4
:100970000020024000100240881300009C3700084D
:1009800004000020014800687047000004000020B7
:1009900000B5FFF7F7FF0549C968072212021140A9
:1009A000090A034A515CC84000BD00000010024023
:1009B000AC37000800B5FFF7E5FF0549C968072215
:1009C000D2021140C90A034A515CC84000BD000070
:1009D00000100240AC370008FEB52E48C7680C2056
:1009E0003840002845D0042804D008280CD00C2812
:1009F0003ED10BE02748006810210840002801D0B4
:100A0000254C00E0254C41E0254C3FE00F208004C0
:100A10003840800C23490E5C032080053840800D4F
:100A2000401C01901B48C0680121090408400028AF
:100A300007D01B49714308460199FFF7A7FB0546FC
:100A400014E01448006810210840002807D012491B
:100A5000714308460199FFF799FB054606E00F49E7
:100A6000714308460199FFF791FB05462C460DE0BE
:100A700000BF08484068072149030840400B009028
:100A80000098401C01218140CC0300BF00BF2046DC
:100A9000FEBD00000010024000093D000024F400EB
:100AA00000127A00B4370008FEB50446002C01D1CC
:100AB0000120FEBDF848C6680C210E40C768012120
:100AC00009040F402078C007C00F002872D0082EFC
:100AD00004D00C2E0FD1084687420CD1EE48006896
:100AE000012149040840400C002863D060680028B8
:100AF00060D10120DDE700BF012109046068884260
:100B000005D1E54800680843E349086027E005216E
:100B10000904606888420ED1DF4800680121890419
:100B20000843DD49086008460068012109040843BC
:100B3000D949086013E0D8480068012109048843B6
:100B4000D549086008460068012109040840009062
:100B500000BFD148006889008843CF49086000BFC2
:100B60006068002813D0FFF79BFC054606E0FFF7FE
:100B700097FC401B642801D903209AE7C648006807
:100B8000012149040840400C0028F0D012E0FFF792
:100B900087FC054606E0FFF783FC401B642801D96B
:100BA000032086E7BC480068012149040840400C46
:100BB0000028F0D102212068084002287AD1E0689C
:100BC0000290042E03D00C2E34D1002F32D1B24823
:100BD0000068042108408008002804D002980028FA
:100BE00001D1012065E7AC4840681F210902884314
:100BF000216909020843A84948600846006809219C
:100C0000884302990843A4490860FFF7E5FEA2491A
:100C1000C968F02211400909A04A515CC840A049A6
:100C200008600020FFF760FC01900198002841D087
:100C300001983EE70298002824D0974800680921CF
:100C400088430299084394490860FFF729FC054648
:100C500006E0FFF725FC401B022801D9032028E706
:100C60008D4800680421084080080028F1D08A4897
:100C700040681F2109028843216909020843864907
:100C8000486017E0844800684008400082490860D6
:100C9000FFF706FC054606E0FFF702FC401B0228B2
:100CA00001D9032005E77C4800680421084080083A
:100CB0000028F1D1102120680840102867D1002EAB
:100CC00036D17548006849010840400A002804D020
:100CD000A069002801D10120EBE66F484068072198
:100CE00049038843216A08436B49486008464068C5
:100CF0000002000A217F0906084367494860206A0C
:100D0000400B401C01218140C8036349C968F0229F
:100D100011400909614A515CC840614908600020DE
:100D2000FFF7E2FB0190019800284BD00198C0E644
:100D3000A06900282CD058480068FF2101310843E1
:100D400055490860FFF7ACFB054606E0FFF7A8FB36
:100D5000401B022801D90320ABE64F48006801215F
:100D600049020840400A0028F0D04B48406807215B
:100D700049038843216A0843474948600846406858
:100D80000002000A217F090608434349486019E030
:100D900041480068FF21013188433F490860FFF75F
:100DA0007FFB054606E0FFF77BFB401B022801D9CD
:100DB00003207EE638480068012149020840400AC5
:100DC0000028F0D1082120680840082839D160693E
:100DD00000281BD0304840300069012108432E49CB
:100DE00040310861FFF75CFB054606E0FFF758FB62
:100DF000401B022801D903205BE6274840300069E8
:100E00000221084040080028F0D01AE02248403073
:100E1000006940084000204940310861FFF740FB6D
:100E2000054606E0FFF73CFB401B022801D90320E2
:100E30003FE6194840300069022108404008002878
:100E4000F0D1042120680840042879D100200090C6
:100E50001148806B89060840002806D10E48806B37
:100E600008430D498863012000900E480068FF2167
:100E70000131084000281ED10A480068084309498A
:100E80000860FFF70DFB05460EE0FFF709FB401B6E
:100E9000642809D903200CE6001002409C370008A2
:100EA000040000200070004085480068FF210131E7
:100EB00008400028E9D000BFFF210131A068884226
:100EC00005D18048006908437E49086130E0A06888
:100ED00000280DD17B480069FF2101318843794901
:100EE00008610846006909158843764908611FE0D2
:100EF00005210902A06888420DD1724800690121CC
:100F0000890208436F49086108460069891508434A
:100F10006C4908610CE06B480069FF21013188438E
:100F200068490861084600690915884365490861F0
:100F300000BFA068002815D0FFF7B2FA054608E008
:100F400031E0FFF7ADFA401B5F49884201D9032029
:100F5000AFE55C480069012149020840400A0028C9
:100F6000EFD013E0FFF79CFA054607E0FFF798FA89
:100F7000401B5549884201D903209AE55148006930
:100F8000012149020840400A0028EFD100980128B9
:100F900008D14C484038806B0121090788434949F2
:100FA0004039886300BF606A00284CD00C2E69D09D
:100FB000606A022848D14348403800680121090688
:100FC0008843404940390860FFF76AFA054606E061
:100FD000FFF766FA401B022801D9032069E539486A
:100FE00040380068012149060840400E0028EFD132
:100FF000E16AA06A0843216B084332494039C96855
:10100000FD221204914308432E494039C860084626
:1010100000680121090608432A4940390860FFF7A2
:101020003FFA054606E0FFF73BFA401B022801D9CC
:1010300003203EE523484038006801214906084066
:10104000400E0028EFD038E01E48403800680121EB
:10105000090688431B4940390860FFF721FA054615
:1010600006E0FFF71DFA401B022801D9032020E506
:10107000144840380068012149060840400E002805
:10108000EFD11AE0606A012800D112E50D4840381E
:10109000C768012000043840A16A88420BD10F20A4
:1010A00080043840E16A884205D103208005384039
:1010B000216B884201D00120FBE40020F9E400000C
:1010C00000700040401002408813000070B50446D4
:1010D0002546681E0949884201D901200CE0681E96
:1010E000074948610321081F00F07EF900200449E8
:1010F000886107200861002070BD0000FFFFFF002D
:1011000000E000E010B50446002C01D1012010BD24
:10111000A069002800D000E000BF606F002805D162
:10112000002170200155204600F02CF82420606733
:10113000206800684008400021680860204600F0F0
:101140000BFB012800D1E2E7606A002802D02046AC
:1011500000F052FA206840680921C90288432168DA
:101160004860206880682A21884321688860206858
:1011700000680121084321680860204600F0B4FAA5
:10118000C5E7000010B586B00446142101A8FFF79A
:101190004AF815492068884224D11448406B01213F
:1011A000890308431149486300BF0846C06A01210A
:1011B00008430E49C8620846C06AC007C00F0090C5
:1011C00000BF00BF032040020190022002900020D7
:1011D0000390032004900420059001A90520000736
:1011E000FFF762F806B010BD003801400010024061
:1011F000FFB583B004460D461746606F202875D1B1
:10120000002D01D0002F02D1012007B0F0BD012137
:101210000903A068884208D12069002805D1E807A1
:10122000C00F002801D00120EFE700BF7020005D53
:10123000012801D10220E8E701217020015500BFFB
:101240000020E06721206067FFF72AF90190502015
:1012500007535220075301210903A068884205D192
:101260002069002802D10026029502E02E460020C7
:10127000029021E006980090002280212046019BE8
:1012800000F058FC002801D00320BEE7002E09D151
:1012900002980088C005C00D216888620298801CF1
:1012A000029003E0307821688862761C5220005B4F
:1012B000401E81B2522001535220005B0028D9D138
:1012C00006980090002240212046019B00F032FC4D
:1012D000002801D0032098E72020606700BF00218C
:1012E0007020015500BF00208FE7FFE702208CE748
:1012F00000BFFEE700B587B0142102A8FEF793FFF8
:1013000000BF2448C06A012108432249C862084638
:10131000C06AC007C00F019000BF00BF00BF0846F1
:10132000C06A022108431B49C8620846C06A0221FC
:101330000840019000BF00BF0022042105200007E3
:10134000FFF7A8F8002280211348FFF7A3F8042034
:1013500002900120039000200490059002A905202E
:101360000007FEF7A1FF402002900C4803900020E8
:10137000049002A90848FEF797FF80200290012000
:10138000039000200490059002A90348FEF78CFF0B
:1013900007B000BD00100240000400500000111012
:1013A00010B50E480E490860E12040024860002157
:1013B0000B488160C16001610C21416100218161A4
:1013C000C16101620020064948620846FFF79AFEA3
:1013D000002801D0FEF766FF10BD00000038014074
:1013E000840300207047000010B5002819DA1A4A5B
:1013F00003071B0F083B9B089B00D2588307DC0E9A
:10140000FF23A3409A438B071B0E8407E40EA340DF
:101410001A43114B0407240F083CA408A4001A51D6
:1014200018E00E4A03231B02D21883089B00D258EF
:101430008307DC0EFF23A3409A438B071B0E840710
:10144000E40EA3401A43054B032424021B1984080D
:10145000A4001A5110BD00001CED00E000E100E006
:1014600010B5002819DA1A4A03071B0F083B9B081E
:101470009B00D2588307DC0EFF23A3409A438B07BF
:101480001B0E8407E40EA3401A43114B0407240FDC
:10149000083CA408A4001A5118E00E4A03231B02BA
:1014A000D21883089B00D2588307DC0EFF23A34089
:1014B0009A438B071B0E8407E40EA3401A43054B87
:1014C000032424021B198408A4001A5110BD000033
:1014D0001CED00E000E100E0704710B5FEF7E6FF0C
:1014E00001F0B2FD002805D001F048FD02F044F9FA
:1014F00001F05EFD10BD000000B599B034210CA8CC
:10150000FEF791FE142107A8FEF78DFE1C21684608
:10151000FEF789FE1D4800680321C90288430121A6
:10152000C90240181949086002200C9001200F9050
:10153000102010900220159000211691410417915F
:10154000410518910CA8FFF7AFFA002801D0FEF76B
:10155000A9FE0F20079003200890002009900A9010
:101560000B90012107A8FFF709F9002801D0FEF729
:1015700099FE01200090002002906846FEF7E8FFE7
:10158000002801D0FEF78EFE19B000BD00700040AB
:1015900015480068FF2101310843134908600846D7
:1015A000C068124908401049C860084600681049E0
:1015B00008400D490860084680684008400088607F
:1015C00008460068012189048843074908600846E5
:1015D000C068FD21090488430349C86000200861F0
:1015E000C803044988607047001002400C40FF881F
:1015F000F6FFF6FE00ED00E0818CC907C90F002957
:1016000008D001684968012252049143826A11435B
:10161000026851600222416A1140022907D1016823
:101620004968D2039143C26A11430268516004229F
:10163000416A1140042907D10168496812049143A5
:10164000026B1143026851600822416A1140082967
:1016500007D10168496812039143426B1143026844
:1016600051601022416A1140102907D10168896830
:1016700012029143826B1143026891602022416AF9
:101680001140202907D10168896812029143C26B79
:101690001143026891604022416A1140402915D1EE
:1016A0000168496892039143026C114302685160DA
:1016B00001221205016C914208D101684968032298
:1016C00052059143426C1143026851608022416A85
:1016D0001140802907D10168496812039143826C47
:1016E000114302685160704738B504460020E06736
:1016F000FEF7D6FE05462068006808210840082845
:101700000BD114482B46002289040090204600F09B
:1017100011FA002801D0032038BD20680068042198
:10172000084004280BD10B482B46002209050090E5
:10173000204600F0FFF9002801D00320ECE720202C
:101740006067A06700BF00217020015500BF002026
:10175000E2E70000FFFFFF01F0B587B0044610206C
:1017600004900025002003900026E7492068884265
:1017700000D100E000BF2169A06808436169084307
:10178000E1690843074620680068E049084038439B
:101790002168086020684068032109038843E168E4
:1017A000084321684860A769D7492068884201D06A
:1017B000206A0743206880680B2109028843384368
:1017C0002168886000BFD249206888421CD1D14876
:1017D000C0688007800F002806D001280AD00228A0
:1017E00005D003280CD108E0012004900BE0022072
:1017F000049008E00420049005E00820049002E032
:101800001020049000BF46E0C349206888421CD1E4
:10181000C048C0680C210840002806D004280AD01F
:10182000082805D00C280CD108E0002004900BE01B
:101830000220049008E00420049005E008200490B1
:1018400002E01020049000BF25E0AF4920688842E4
:101850001FD1B048C068032189020840002808D081
:1018600001218902401A0AD0401A05D0401A0CD131
:1018700008E0002004900BE00220049008E004201F
:10188000049005E00820049002E01020049000BFBE
:1018900001E01020049000BF9B492068884256D187
:1018A000049804281AD004DC002807D002281CD190
:1018B00008E0082816D0102817D117E0FFF768F8BD
:1018C000064616E093484038006810210840000999
:1018D000002801D0914E00E0914E0AE0FFF77CF81D
:1018E000064606E00126F60303E000BF0120039050
:1018F00000BF00BF002E0AD0606841004018B0420F
:1019000003D860680003B04202D201200390F4E0E3
:10191000606802903046FF21013100F051F96268A1
:10192000520800238018594101910090029AFEF755
:1019300043FC054603200002854205D379488542D1
:1019400002D82068C560D8E001200390D5E00121CD
:10195000C903E06988426FD1049804283CD006DCB2
:10196000002809D0012813D002284AD11CE00828F9
:101970003ED0102845D145E0FFF70AF840006168E5
:101980004908401802906168FEF700FC85B23CE00F
:10199000FFF710F84000616849084018029061683C
:1019A000FEF7F4FB85B230E05A4840380068102159
:1019B00008400009002807D061684A085A4BD0182F
:1019C000FEF7E4FB85B206E061684A08574BD01881
:1019D000FEF7DCFB85B218E0FEF7FEFF4000616811
:1019E0004908401802906168FEF7D0FB85B20CE010
:1019F00061684A0801231B04D018FEF7C7FB85B2B3
:101A000003E000BF0120039000BF00BF102D0FD3E3
:101A1000474885420CD846480F382840059028078B
:101A2000400F05990843059005982168C86064E057
:101A30000120039061E0FFE7049804283AD006DC17
:101A4000002809D0012812D0022847D11AE008281E
:101A50003BD0102842D142E0FEF79AFF6168490866
:101A6000401802906168FEF791FB85B23AE0FEF7FC
:101A7000A1FF61684908401802906168FEF786FB83
:101A800085B22FE023484038006810210840000943
:101A9000002807D061684A08204BD018FEF776FB73
:101AA00085B206E061684A081D4BD018FEF76EFB50
:101AB00085B217E0FEF790FF616849084018029070
:101AC0006168FEF763FB85B20CE061684A08012398
:101AD000DB03D018FEF75AFB85B203E000BF0120FC
:101AE000039000BF00BF102D05D31148854202D8D6
:101AF0002068C56001E00120039000202066606638
:101B0000039807B0F0BD000000480040F369FFEF04
:101B100000380140401002400044004000093D00F0
:101B20000024F400FFFF0F0000127A000048E801D3
:101B3000FFFF0000FFB581B004460D4617460A9E20
:101B400022E0701C00281FD0FEF7AAFC0499401A5E
:101B5000B04201D8002E17D120680068FF21A131C2
:101B60008843216808602068806840084000216838
:101B7000886020206067A06700BF002170200155A9
:101B800000BF032005B0F0BD2068C0692840A8420E
:101B900001D1012000E00020B842D2D00020F1E7BE
:101BA0000FB410B503A9044B044A029800F03EF8A4
:101BB00010BC08BC04B01847B9220008440000203B
:101BC000F8B582B28BB2040C0D0C104658430021BC
:101BD00026465E43370C36048019794116466E431B
:101BE000370C36048019794126466E438919F8BDB1
:101BF00010B50446204600F06DFB401E10BD02E00B
:101C000008C8121F08C1002AFAD170477047002087
:101C100001E001C1121F002AFBD170475060026031
:101C2000416008607047486001607047FFB58FB041
:101C30000F460446002606E025280AD0129A11997C
:101C40009047641C761C20780028F5D1304613B0EC
:101C5000F0BD00250121A14A009500E00543641C68
:101C600023780846203B98401042F7D120782E2850
:101C700015D1042005436078641C2A280AD101CFBD
:101C8000641C00900BE000990A225143303940183F
:101C9000641C00902078014630390929F3D9207856
:101CA0006C280ED004DC4C2813D06A2812D104E032
:101CB00074280ED07A280DD10BE001204005054391
:101CC00007E00121090562780D43824201D16D18B8
:101CD000641C641C2078864669284AD008DC0028E9
:101CE000B4D058286DD0632810D0642808D140E0C3
:101CF00070286BD0732812D0752860D0782860D0F7
:101D0000129A704611999047761CE5E0387869463A
:101D100008720020487202A80190012003E0386890
:101D200001900020C0433F1D69070CD5002500E04D
:101D30006D1C00998D420FDA8542F9DB0199495DEE
:101D40000029F5D108E0002500E06D1C8542FCDB90
:101D50000199495D0029F8D1761907E001980199A8
:101D60000078491C0191129A119990476D1EF5D285
:101D7000B2E00A20029000216802400F039102287D
:101D80000CD001CFC117844600290DDA62460846FF
:101D900052420021814194462D2008E0FF1DFF089A
:101DA000FF0003CF8446EFE7280504D52B206A46C1
:101DB000107401203CE0E8073AD02020F7E70A2021
:101DC00000E0102000210391029007E01020029013
:101DD0000021042005430820039100906802400F71
:101DE000022810D001CF0021844600200D90280742
:101DF0001FD5704670280CD0029A1020039B4240D9
:101E00001A430CD015E0FF1DFF08FF0003CF8446E6
:101E1000EBE740206A46107401200D900CE060460C
:101E2000084306D030206A46107470465074022071
:101E30000D907046582804D029A001900DA80E904E
:101E40000DE02CA0F9E76046039B029AFEF7B4F977
:101E5000019B84469B5C0E9A521E0E921370604644
:101E60000843F0D10E9805A9081A203001906807A0
:101E700001D5009801E0012000900199884203DD1E
:101E800001460198081A00E000200025009006E0B5
:101E900004A8129A405D119990476D1C761C0D980C
:101EA0008542F5DB04E0129A302011999047761CA8
:101EB0000099481E00900029F5DC08E00E980E9964
:101EC0000078491C0E91129A11999047761C01993D
:101ED000481E01900029F1DC641CB4E609280100C9
:101EE0003031323334353637383961626364656690
:101EF0000000000030313233343536373839414252
:101F0000434445460000000070B504460D4628468F
:101F100000F094F8001D616840186060204600F0F1
:101F200012F8204670BD7CB50446204600F086F8C5
:101F300005466A4601A900F0EBFA2046009A01998D
:101F400000F0EEF97CBD70B50446204600F03CF888
:101F500005462C60284670BD70B504462046FFF744
:101F6000F2FF0546284600F054F8204600F04CF8F1
:101F700070BD70B50546284600F026F8044600BF3F
:101F80002079C007C00F002807D0204600F02CF8A9
:101F900021462846FFF7B8FF0546284670BD70B5B4
:101FA000044600BF02216068084000280AD000BF34
:101FB000256800BF284600F017F821462846FFF79D
:101FC000A3FF0446204670BDF8B50446204600F045
:101FD00035F8061F204600F036F80746314600F077
:101FE00032FB05462846F8BD7CB50446204600F085
:101FF00025F805466A4601A900F08AFA2046009AAB
:10200000019900F0A1FC7CBD0122416811434160AF
:1020100070470222416811434160704702224168C3
:1020200091434160704702799207920F0A434260E0
:102030007047416849084900416070470146486857
:10204000800880007047014608460830704710B588
:10205000FEF764F810BD000010B506480168064898
:102060000068FEF793F8054908600846006800F02C
:102070000DF810BD18000020040000201C000020F6
:1020800010B5FEF74FF810BDFEF73DF810B5044649
:10209000002000F081FB204600F064FB10BD000032
:1020A000F0B50446059E9819C008C0001D4602E020
:1020B000CC262E706D1C8542FAD301263606071FEA
:1020C00038463E60061F30463460061F3046326098
:1020D000194E071F38463E60184E071F38463E60AF
:1020E000174E071F38463E607610071F38463E6081
:1020F000061F30463160134E071F38463E60124EB1
:10210000071F38463E60114E071F38463E60104E8E
:10211000071F38463E600F4E071F38463E600E4E82
:10212000071F38463E600D4E071F38463E600C4E76
:10213000071F38463E60F0BD12121212030303035C
:1021400002020202111111111010101009090909DF
:102150000808080807070707060606060505050517
:1021600004040404F8B50646002000900024202250
:10217000052126A0FFF714FD14E0A000314A8118C4
:10218000314801F033F80546002D07D1A0002D4954
:102190000A5821462DA0FFF703FD02E031A0FFF70A
:1021A000FFFC641C052CE8DB6946274801F01EF89B
:1021B00005463148854203D130A0FFF7F1FC02E02B
:1021C00028A0FFF7EDFC00240CE0A0001D4A1158E8
:1021D0001D4801F04BF80546002D02D021A0FFF765
:1021E000DFFC641C052CF0DB16480168164801F082
:1021F0003DF80546AF208000854203D12AA0FFF7B5
:10220000CFFC02E017A0FFF7CBFCF8BD6D6D626C50
:102210006B5F706F6F6C2068617320256420626C47
:102220006F636B732C2073697A65206F662065611C
:10223000636820626C6F636B206973203078257847
:102240000A00000070030020B8020020256420620C
:102250006C6F636B20616C6C6F6365643A203078DF
:1022600025780A0073686F756C64206E6F7420683F
:10227000617070656E0A0000BD020000626C6F63E1
:102280006B73206578686175737465642C20616C6C
:102290006C20626C6F636B7320697320616C6C6F70
:1022A0006365640A00000000706F6F6C2069732022
:1022B00066756C6C0A00000013B50C46034B0122D6
:1022C00069460348FEF794FF00981CBDFFFF00001D
:1022D0008403002001462022002900D17047080C09
:1022E0000004002801D10904103A080E0006002855
:1022F00001D10902083A080F0007002801D109019D
:10230000121F880F8007002801D18900921EC80F74
:10231000C007002801D14900521E1046DEE7000028
:1023200070B5CD01114C2C199500635983600F4C89
:10233000743CC460D860CD0174342C199500605190
:102340000A4C843C246A01258D402C43074D843D72
:102350002C628D00054C603C6459012595402C434E
:102360008E00024D603DAC5170BD00005008002051
:1023700000BF01E000F0D8FBFCE700001FB5002023
:1023800008490968084A12680923009301920291DA
:1023900003900346054A06A1074801F07BF804B004
:1023A00010BD0000C4370008C037000871230008C2
:1023B00069646C65000000005C040020014603486D
:1023C000814201D1012070470020FCE75C0400201D
:1023D00003480078002801D0012070470020FCE766
:1023E0000800002003480078002801D00120704731
:1023F0000020FCE7090000200146044800688142F3
:1024000001D1012070470020FCE7000010000020EF
:1024100002465088884201D1012070470020FCE725
:1024200002465088884201D1012070470020FCE715
:1024300010B5002400F008FE002801D1012000E0C2
:102440000020002800D010BDFFF7C2FF002800D0F8
:10245000F9E7FFF7C7FF002800D0F4E700BF00F05E
:1024600066FD044600BF00F0E1F90B49086008462C
:102470000068FFF7C1FF002805D000BF204600F02C
:1024800050FD00BFDFE7FFF7E2FD00BF204600F090
:1024900048FD00BF00BFD6E7140000201FB5FEF7BF
:1024A0000DF8FFF729F8FEF725FFFEF779FF00F09A
:1024B00043FD202305220B490B4800F01FFF00209D
:1024C00001214902094A04230093019202910390D9
:1024D0000346074A07A10D4800F0DCFF00F024FE88
:1024E00000BFFEE7D0020020B80200204800002014
:1024F0006521000872656365697665725F68696762
:102500006865725F7072696F000000004802002009
:10251000F7B504460F46802C06D200252046E11769
:10252000890F09188E100AE02046FFF761FB054667
:10253000691F20460841202148400646AD1F3D60E6
:1025400002980660FEBD000010B50022154B1A600F
:10255000002005E000238400124A121D1351401C84
:102560000328F7DB0F4A10320E4B9A61DA61002222
:102570001A62002012E0002384000A4A2432135118
:10258000002108E0074A1032C40113467433E318EF
:102590008C001A51491C2029F4DB401C1828EADB66
:1025A00010BD0000CC07002070B504460D46FFF7B3
:1025B000CBFF2946204600F00DFF70BD02460021EA
:1025C00000BF07E08B000748C058904201D10120AE
:1025D0007047491C0348001F00688842F2DC002055
:1025E000F6E70000D007002070B50446256900BF5B
:1025F000A169E0694860016000BF00BF0020206160
:1026000020734C20405D0A2808D04C20415D2846AC
:1026100001F02AF80A214C20415509E0687D217D0E
:10262000884205D0217D284601F01EF80A20207539
:1026300070BD10B504462046FFF7D6FF0421201DCB
:1026400000F079F810BD02465018704770B5044686
:10265000204600F0A7FD002801D0002001E02068FE
:102660003C380546002D01D0687D70BD0A20FCE78E
:1026700030B50B4619680C463C3C07E0417D627D55
:10268000914200DA06E0E16B0C463C3C21463C31CD
:102690009942F3D100BF01463C3122463C32556895
:1026A00051600A604D60296000BF00BF036500BF34
:1026B000017D02221143017500BF30BD10B50446F3
:1026C00020463C3000F062FD2046216DFFF7D0FF30
:1026D00010BD10B5044620463C3000F057FD0020E8
:1026E000206500BF207D02218843207500BF10BDFA
:1026F00070B504460D4600BF207D02210840002829
:1027000004D0542005552046FFF7E3FF00BF207D8D
:10271000C007C00F002802D0204600F093FA00BF87
:10272000207D04210840002800D070BD204600F024
:102730003BF800BFF9E7F8B505460F4628680446A0
:102740003C3CE06B06463C3E07E039462046FFF73E
:10275000CFFF3446E06B06463C3E20463C30A84264
:10276000F3D1F8BD70B504462546681E0849884275
:1027700000D90CE0681E074948610321081FFEF7D5
:102780006FFE0020034988610720086100BF70BD0B
:10279000FFFFFF0000E000E010B5044621460020E6
:1027A000C043FEF75DFE10BD10B50446607D0649CE
:1027B0000968497D884203D1204600F021F802E0F3
:1027C000204600F003F810BD10000020F8B50546C3
:1027D0006E7DF00009494418204600F0EBFC00280B
:1027E00002D0304600F062F82F463C37214638468A
:1027F0002268FFF713FA00BFF8BD000004040020B0
:1028000070B50446657DE80007494618304600F07B
:10281000D1FC002802D0284600F048F83146204676
:102820003C3000F0AAFC70BD040400200448007D88
:10283000C000034A403A811808683C3870470000DD
:10284000440400200A220E490A750021084609E0C6
:10285000C2000B4B403BD1180960496000BF411CCE
:10286000C9B208460A28F3D3002006E000228300FC
:1028700003491031CA50411CC8B20028F6D0704735
:102880004404002070B50025074C03E028462030A2
:10289000C5B2241D20680028F8D0206800F01EFB77
:1028A0004019C5B2284670BD5404002000BF411134
:1028B0008A000B498958C206D20E1F239B1A012297
:1028C0009A40114342119300054AD15000BF11466E
:1028D0001039097D814202DD1146103908757047B3
:1028E0005404002070B505466C7DE000154946187B
:1028F00000BFE96B286CFFF796F900BF304600F087
:1029000059FC002813D000BF601181000D485030E1
:102910004058E106C90E1F22521A012191408843F6
:1029200061118A0007495031885000BF00BF054837
:102930004030007DA04204D1FFF7A4FF014940319F
:10294000087570BD04040020F0B5C4688368DC60BD
:10295000A360CE01144D75199600AD59854221D161
:10296000CE01114D75199600AB510F4D743DAB4220
:1029700018D18E001435AD5901269640B5438F000D
:10298000094E603EF5518E00074D603DAD59002D5A
:1029900008D1054D843D2D6A01268E40B543024E77
:1029A000843E3562F0BD00005008002070B5054639
:1029B00000F054FB284600F061F80446002C03D0D8
:1029C00000F07EFB204670BD2846FFF715FD00286D
:1029D00005D006492846203000F0C8FB02E0284612
:1029E00000F099F800F06CFB0020ECE720000020DC
:1029F00010B5044600BFFFF7EBFC002801D0012012
:102A000000E00020002802D0FF20913010BD00BF60
:102A1000002C01D1012000E00020002801D0134843
:102A2000046800BF1249201DFFF7FAFC002801D1FD
:102A30001048EBE700BF2046FFF7DEFC002805D07A
:102A4000FFF7D0FC002801D00B48DFE700BF20795A
:102A5000012800D100E00020002802D10548401CD8
:102A6000D4E7204600F00AF8D0E70000100000206C
:102A7000D1DA00004D040000A406000070B5044641
:102A800000252046FFF79AFC002801D01E4870BDA3
:102A900000BF00F04CFA054600BF2046443000F06D
:102AA00091FB002802D1204600F07FF8204600F07C
:102AB000C1F8002802D02046FFF714FF00BF207D98
:102AC000C007C00F002802D0204600F0BBF8204607
:102AD00000F0ABF8002802D02046FFF7FAFD2046B0
:102AE000283000F059FB204600F076F800BF08209F
:102AF000207500BF00BF284600F013FA00BFFFF7A3
:102B000097FC0020C3E700006C07000010B5002010
:102B100000F062FD10BD10B50446A06900F040FC55
:102B2000204600F03DFC10BD70B5002600BF00F04F
:102B3000FEF9064600BF0F4800680446203C206AA4
:102B40000546203D0AE02046203000F025FB2046C7
:102B5000FFF7E1FF2C46206A0546203D2046203045
:102B600004498842EFD100BF304600F0DAF900BFD7
:102B700070BD000020000020F8B505460A27686CEB
:102B80000646183E09E0301DFFF760FD0446BC42D2
:102B900000DA2746B0690646183E30461830294606
:102BA00044318842EFD13846F8BD70B50546686CAF
:102BB0000446183CA0690646183E06E02046FFF78A
:102BC00038FD3446A0690646183E2046183029468E
:102BD00044318842F2D170BD10B5044600BF0020D8
:102BE000207100BF2046203000F0FCFA204628303B
:102BF00000F0F8FA2046343000F0F4FA20463C3079
:102C000000F0F0FA2046443000F0ECFA0A214C20A3
:102C1000015500215420015500202065A065E06584
:102C2000206600BFE08000BF10BD0146087D022283
:102C3000104070470146087D002801D101207047EF
:102C40000020FCE710B50446204600F007F800BF5E
:102C5000207D40084000207500BF10BD70B50446BF
:102C6000002600BF00F063F9064600BF204634305E
:102C700000F0B0FA002801D0002001E0606B343889
:102C80000546002D12D01049606B88420ED0286B8B
:102C90000122D243216B511A884204D8286B216B40
:102CA0004018286302E00120C043286300BFA16BE5
:102CB000606B4160086000BF00BF00BF304600F09D
:102CC00030F900BF70BD000030000020F8B50646A6
:102CD0000020009000BF00F02AF9009000BF2248B9
:102CE0000068801920490860204800F073FA002825
:102CF00005D000BF009800F014F900BFF8BD1B48D4
:102D000000680546343D286BB04202D80020286395
:102D100008E0286B801B286300BF009800F001F9D1
:102D200000BFEBE7114800680446343C606B07467F
:102D3000343F0BE0206B002800D00CE0022120463D
:102D4000FFF7D6FC3C46606B0746343F20463430E4
:102D500006498842EED100BF00BF009800F0E1F8BC
:102D600000BF00BFCAE700000C00002030000020B8
:102D70000020704770B504460026002500BF00F013
:102D8000D6F8064600BF19496069096840186061B5
:102D90001748406805460C3D07E06069696988424C
:102DA00000D208E0E86805460C3D28460C30104982
:102DB000091D8842F1D100BF20460C3029460C3154
:102DC0004A68486001604260106000BF00BF084868
:102DD000416820460C30814202D105496069086093
:102DE00000BF304600F09DF800BF70BD0C00002011
:102DF00038000020F8B50446002700BF00F097F81F
:102E0000074600BF1548406805460C3D00BFE16815
:102E100020694860016000BF00BFA54217D120466D
:102E20000C300168814201D1012100E0002100291C
:102E300001D0002001E0E0680C380646002E03D1E6
:102E4000401E0649086002E004497069086000BF3E
:102E5000384600F066F800BFF8BD000038000020DA
:102E600070B51C4800681C490968884200D270BDD2
:102E700000F0F4F81748406804460C3CE06805464A
:102E80000C3D1BE0144960690968884200D91BE0C9
:102E90002046FFF7AFFF208C022805D1E069606172
:102EA0002046FFF767FF02E00321222001556168F9
:102EB000A06888472C46E06805460C3D20460C304B
:102EC0000449091D8842DDD100BF00F0F9F800BFB8
:102ED000CDE70000380000200C0000200146002053
:102EE0000A0C1204002A01D1090410300A0E12063D
:102EF000002A01D1090208300A0F1207002A01D165
:102F00000901001D8A0F9207002A01D18900801C47
:102F1000CA0FD207002A00D1401C002900D1401C52
:102F2000704710B504462046FDF7EAF810BD10B50D
:102F3000FDF7E2F810BD000010B5FFF78DF8FFF7C0
:102F400081FCFF2101310C48FFF72EFB0446002CC9
:102F500001D0204610BDFFF711FA0446002C01D025
:102F60002046F7E7FFF704FF0446002C01D0204677
:102F7000F0E70020EEE70000CC06002000B500F0EE
:102F800063F8002800D100BD08480078FA2801DB6A
:102F9000012000E00020002800D0F4E7034800787A
:102FA000401C0249087000BFEDE700000800002047
:102FB00010B5002400F048F8002800D110BD00BF73
:102FC000FFF7B5FF044600BFFFF702FA002805D15E
:102FD00000BF2046FFF7A5FF00BFEFE718480078C5
:102FE000401E17490870FFF7F3F9002805D000BF0D
:102FF0002046FFF796FF00BFE0E7FFF7F3F9002850
:1030000005D000BF2046FFF78CFF00BFD6E7FFF7D3
:103010000DFC0C49086008460068FFF7EDF9002830
:1030200005D000BF2046FFF77CFF00BFC6E7FFF7D3
:1030300027F800BF2046FFF774FF00BF00BFBDE7C1
:10304000080000201400002003480078012800D167
:1030500070470020FCE700000A00002010B50024A3
:1030600000BFFFF7B5F9002801D0012000E00020E3
:10307000002802D0FF20913010BD00BFFFF7E4FF11
:10308000002802D1FF20F530F6E70C480078FA2836
:1030900002DB4B20C000EFE700BFFFF748FF04460C
:1030A00000BF06480078401C0449087000BF204655
:1030B000FFF737FF00BF0020DEE700000900002017
:1030C00010B5002400BFFFF783F9002801D00120CC
:1030D00000E00020002802D0FF20913010BD00BF8A
:1030E000FFF7B2FF002802D1FF20F530F6E7FFF727
:1030F00079F9002801D10A48F0E700BFFFF717FF70
:10310000044600BF07480078401E0649087000BF0B
:103110002046FFF706FF00BFFFF78AF90020DDE732
:10312000A50600000900002010B5FFF78DFF00285C
:1031300001D0012000E00020002802D0FF20F6305E
:1031400010BDFFF773FB0649086008460068054993
:103150000860012004490870FEF796FF0020EFE7A1
:1031600014000020100000200A0000200A685060AF
:1031700002604160086000BF704770B505460C46AC
:10318000224628466168FEF749FD70BD4268016825
:103190004A60116000BF7047426801684A60116070
:1031A00000BF704701460868884201D1012070477E
:1031B0000020FCE701460868884201D101207047E1
:1031C0000020FCE701460868884201D101207047D1
:1031D0000020FCE701460868884201D101207047C1
:1031E0000020FCE7006040607047000070B50446B6
:1031F0000D46002600BF002C01D1012000E0002078
:10320000002801D0164870BD00BF00BF15492046F8
:10321000FFF7FEF8002802D11148401CF3E700BF79
:1032200000BFFFF784FE064600BF6069002808D192
:1032300000BF3046FFF775FE00BF002028600A4837
:10324000E1E7A0682860A0680068A0606069401E8F
:10325000606100BF3046FFF764FE00BF0020D2E788
:103260004C040000D4DA0000BD02000070B5044632
:103270000D46002600BF002C01D1012000E00020F7
:10328000002801D01B4870BD00BF00BF002D01D138
:10329000012000E00020002801D01648F3E700BF1D
:1032A00000BF15492046FFF7B3F8002802D11148A6
:1032B000401CE8E700BF00BFFFF739FE064600BF2D
:1032C00021696069884207D300BF3046FFF729FEB5
:1032D00000BFAF208000D6E7A0682860A5606069C5
:1032E000401C606100BF3046FFF71BFE00BF00209E
:1032F000C9E700004C040000D4DA0000FFB583B039
:1033000004460D461E4600BFFFF762F8002801D0B4
:10331000012000E00020002803D0FF20913007B0FA
:10332000F0BD00BF00BF002D01D1012000E0002052
:10333000002801D01748F2E700BFA807800F002837
:1033400001D01548EBE7B007800F002802D01248E3
:10335000401EE4E70195019DAF190020029006E0B0
:10336000019807600197BF190298401C02900598C8
:10337000401E02998842F3D8002038606560A5603D
:103380000598606105982061E6600448608000BF90
:103390000020C4E74C040000BF020000D4DA0000A3
:1033A00070B50446002C00D170BD00BF204608381F
:1033B00005462846FEF7D0FD2846FEF7F0FD0546F7
:1033C0002846FEF7D6FD05462846FEF7ACFD00BFB1
:1033D000EAE70000F8B504460E4600BF2B48006837
:1033E000032801D1012000E00020002801D0284856
:1033F000F8BD2046FFF7E2F8002802D02448401C20
:10340000F6E73046083804214A1E0240851A00BFFC
:10341000A007800F002802D019204001E8E70C2DFA
:1034200003D301208007854202D91948401EDFE7F7
:103430000321C9432046FFF706F9074629463846C7
:10344000FEF7F1FD3846FEF7DFFD3846FEF7E6FDF4
:103450003846FEF768FD3846FEF775FD00900021FE
:103460000098FEF7E0FD0098FEF7E3FD0098FEF7F8
:10347000D0FD00BF054801680068401C034A890070
:103480001060101D445000BF0020B1E7CC070020A1
:1034900022030000FFB583B0044615461E460C9F6C
:1034A0000020029000BFFEF793FF002801D001200A
:1034B00000E00020002803D0FF20913007B0F0BDCD
:1034C00000BF00BF002C01D1012000E00020002837
:1034D00001D03C48F2E700BF00BF002D01D1012020
:1034E00000E00020002801D03648E7E700BF00BF19
:1034F0000D98002801D1012000E00020002801D013
:103500003048DBE700BF0E98402801D2012000E0E0
:103510000020002801D02C48D0E7092F06D12046F2
:10352000FEF74CFF002801D1012000E00020002818
:1035300002D02548401FC1E7092F01DD012000E02E
:103540000020002802D02048401FB7E72046FFF7A0
:1035500043FB1E4920462830FFF708FE211D1C486A
:10356000488000BF00BF0120207100BF0E9800906E
:10357000184A314628460D9BFEF792FD2060E56013
:1035800026610498A06067750D98A0610E98E061AF
:1035900000BFFFF7CCFC029000BF00BF00202075E9
:1035A00000BF2046FFF72CF900BF0298FFF7B9FCD7
:1035B00000BFFFF749FD002801D0FEF739FF0020CA
:1035C0007CE700004C040000730700002800002086
:1035D000D1DA00000D2B000810B5044600BFFEF73D
:1035E000F7FE002801D0012000E00020002802D0D2
:1035F000FF20913010BD00BF002C01D1012000E060
:103600000020002801D01448046800BF1349201D81
:10361000FEF706FF002801D11148EBE700BF204666
:10362000FEF7EAFE002805D0FEF7DCFE002801D0F8
:103630000C48DFE700BF2079022801D1012000E01B
:103640000020002803D02046FFF7B0F9D2E720463B
:10365000FFF7CEF9CEE7000010000020D1DA00001D
:103660004D040000A4060000F8B504460D460027EE
:1036700000BF002C01D1012000E00020002801D073
:103680003A48F8BD00BF00BF3949201DFEF7C8FE0B
:10369000002802D13548401CF3E700BF00BFFEF709
:1036A00097FE002801D0012000E00020002802D071
:1036B000FF209130E5E700BF092D01DB012000E08C
:1036C0000020002801D02B48DBE700BFFFF72FFCCC
:1036D000074600BF607DA84208D100BF3846FFF70B
:1036E00020FC00BFFEF7A4FE0020CAE720464430BD
:1036F000FFF768FD002808D12046FFF73DFA06468F
:10370000B54202DD4C20055535462046FFF78DFABF
:10371000002804D065752046FEF7D0FF1CE000BFEE
:10372000207DC007C00F002801D0657514E0204639
:10373000FFF780FA00280FD02046FFF7D3F8657511
:103740002046FEF759FE002803D02046FFF73EF83A
:1037500002E02046FFF754F800BF3846FFF7E1FBD0
:1037600000BFFEF765FE00208BE700004C04000060
:10377000D1DA00006E07000010B5FFF765FC0028E5
:1037800001D1012000E00020002800D010BD012060
:10379000FFF79CFAFFF764FB00BFF7E700000000AB
:1037A00000000000010203040607080900000000F1
:1037B00001020304030406080C1018203000000066
:1037C000CC04002000020000E837000800000020C0
:1037D00048000000FE1B00083038000848000020A8
:1037E000081800000E1C0008000000000000200067
:1037F00000000000000000000000000000000000C9
:10380000E80300000000000020000020200000204D
:103810002800002028000020300000203000002078
:10382000FFFFFFFF3C0000203C00002000000000E4
:04000005080000C12E
:00000001FF
