:020000040800F2
:1000000050180020D5000008550E00088D0D00087E
:1000100000000000000000000000000000000000E0
:10002000000000000000000000000000E10E0008D9
:1000300000000000000000002D010008E30E000891
:10004000E7000008E7000008E7000008E7000008F4
:10005000E7000008E7000008E7000008E7000008E4
:1000600000000000E7000008E7000008E7000008C3
:10007000E7000008E700000800000000E7000008B3
:1000800000000000E7000008000000000000000081
:10009000E700000800000000E7000008E700000893
:1000A000E7000008E7000008E7000008E700000894
:1000B000E7000008E7000008000000000000000062
:1000C0000348854600F0DCF8004800479D1600080C
:1000D000501800200448804704480047FEE7FEE728
:1000E000FEE7FEE7FEE7FEE7750F0008C100000827
:1000F00072B6704762B67047EFF3108072B6704701
:1001000080F3108870471B481B490160002080F372
:1001100009881A481A49016062B6FEE7174818496B
:1001200001607047154816490160704772B6EFF3D9
:10013000098000280AD02038F0C044464D46564673
:100140005F46F0C020380F49096808600D480E4925
:100150000A6802601068F0C80CC8904699460CC83E
:1001600092469B4680F309887046042108438646E0
:1001700062B6704720ED00E00000FF0004ED00E0F3
:1001800000000010100000201400002030B50B46C5
:10019000014600202022012409E00D46D5409D4261
:1001A00005D31D469540491B2546954040191546E7
:1001B000521E002DF1DC30BDF0B51FB40646002004
:1001C00082B005464024019100901BE0019922462F
:1001D0000F46304600F042F8049A059B801A994178
:1001E00010D310461946224600F028F8361A8F41DF
:1001F0000197224601200021009F00F01FF83818C7
:100200004D4100902046641E0028DFDC019B0098D1
:100210002946324607B0F0BDD2B201E00270401C60
:10022000491EFBD270470022F6E710B513460A4676
:1002300004461946FFF7F0FF204610BD10B5202AEE
:1002400004DB0146203A9140002010BD914020235C
:100250009C1A0346E3401943904010BD10B5202A74
:1002600004DB0846203AD040002110BD0B46D340A5
:10027000D0402024A21A91400843194610BD000026
:10028000064C0125064E05E0E36807CC2B430C3CE9
:1002900098471034B442F7D3FFF716FF6C230008D9
:1002A0008C23000870470000F8B500230124A2E069
:1002B00027469F403A4070D04D68022D01D0122D44
:1002C00014D1DD08AD002D1800952D6A5E07AC46EF
:1002D000F50E0F26AE46AE406546B543AC460E69F8
:1002E0007546AE4065462E43009D2E624D68012D39
:1002F00005D0022D03D0112D01D0122D16D1856805
:100300000326AC465D00AE46AE406546B543AC46FE
:10031000CE687546AE4065462E43866046680D79C8
:10032000BE43ED06ED0F9D403543456006685F0016
:100330000325BD40AE46AE430D79B446AE07B60FB9
:10034000BE4065462E430660C6687546AE438D685E
:10035000BD403543C5604D68ED004BD5294D6E6BF2
:1003600026436E639E08284DB6007519AC46AD68ED
:100370009E07360F0F27B740BD4305273F07B842FA
:1003800001D1002715E0214FB84201D1012710E02B
:100390001F4FB84202D102270BE02BE01D4FB8429D
:1003A00001D1032705E01C4FB84201D1052700E029
:1003B0000627B7402F436546AF60184D2E684F683B
:1003C0009643FF0300D516432E606E684F68964330
:1003D000BF0300D516436E60AE684F689643FF02B8
:1003E00000D51643AE60EE684F689643BF0200D555
:1003F0001643EE605B1C0A681546DD4000D057E7E7
:10040000F8BD000000100240000001400004005050
:1004100000080050000C0050001C00500004014077
:10042000002A01D0816170478162704701480068ED
:10043000704700000000002002480168491C01606C
:10044000704700000000002010B508480024016833
:10045000402211430160204600F00AF8002801D034
:10046000012401E000F01CF8204610BD00200240ED
:1004700070B5054609487D210024C9000068FFF7D2
:1004800085FE00F007FC002801D0012404E00022D2
:100490002946501E00F010F8204670BD04000020D0
:1004A0000448416B012211434163816B02041143F3
:1004B000816370470010024010B500F0CDFC10BD04
:1004C000094B1A689208920002431A6007480269B1
:1004D00004239A430261012904D040BF20BF20BFFA
:1004E00000BF704730BFFBE70070004000ED00E048
:1004F000F8B504460078544D800672D5524E002758
:10050000403EB06BC00004D4B06BA9050843B06393
:1005100001274E480168C90511D4016882151143AD
:100520000160FFF783FF009005E0FFF77FFF009970
:10053000401A642837D845480068C005F5D53268A8
:100540000321090560680A400140914208D08103F7
:10055000890F032904D13168890301D50120F8BD31
:100560002A69032109040A4022D0084090421FD082
:10057000207880061CD528692A6988430121C9048E
:100580000A432A612A698A432A612861C0050FD576
:10059000FFF74CFF009008E0FFF748FF0099411A71
:1005A0002B48814201D90320F8BD28698005F3D585
:1005B00061688803800F032805D1326800058243F3
:1005C00001400A4332602869032261681204114025
:1005D00008432861002F04D0B16B0120000781433C
:1005E000B1632078C00705D0E868A1688008800062
:1005F0000843E8602078800705D5E8680C21884327
:10060000E1680843E8602078400706D5E8680321E0
:100610008902884321690843E8602078000706D5ED
:10062000E86803210903884361690843E86020788A
:10063000000606D5E868032189048843A1690843B8
:10064000E8600020F8BD000040100240007000404B
:1006500088130000F8B50E4605007DD053480068A9
:10066000C007C00FB0420AD250480168490849008B
:10067000314301600068C007C00FB04271D12878D3
:100680004B4C800705D5E068F0218843A9680843F2
:10069000E0602878C00752D06868022817D0032885
:1006A00018D02168012818D08905002959DAE16895
:1006B000890889000143E160FFF7B8FE69680746D1
:1006C000022912D003291CD0012926D033E0216849
:1006D0008903EAE721688901E7E74907E5E7FFF7CA
:1006E000A5FEC11B3348814223D8E0680007800F74
:1006F0000228F4D123E0FFF799FEC11B2D48814267
:1007000017D8E0680007800F0328F4D117E0FFF73F
:100710008DFEC11B274881420BD8E0680007800F7F
:100720000128F4D10BE0FFF781FEC11B2148814273
:1007300001D90320F8BDE0680007800FF3D11B4802
:100740000168C907C90FB1420DD9016849084900BC
:1007500031430160006800E003E0C007C00FB04211
:1007600001D00120F8BD2878400706D5E0680721B0
:1007700009028843E9680843E0602878000707D544
:10078000E0680721C90288432969C9000843E0607D
:1007900000F036F8E168084A0906090F515CC840C4
:1007A000064908600020FFF763FEF8BD0020024004
:1007B00000100240881300004023000804000020BD
:1007C000044805490068C968044A4905490F515C55
:1007D000C840704704000020001002405923000860
:1007E000044805490068C968044A8904490F515CF6
:1007F000C840704704000020001002405923000840
:1008000010B5184AD1680C20084004280BD00828DD
:1008100010D00C2810D050680004410F0120C003F4
:10082000491C884010BD1068C00601D50E4810BD97
:100830000E4810BD0E4810BD88020E4B000F185C0C
:100840000902D368890F491CDB0301D5084A05E07A
:100850001268D20601D5044A00E0044A5043FFF76B
:1008600095FC10BD0010024000093D000024F4007A
:1008700000127A0050230008FEB505007ED0FE4C21
:10088000E7680C20E668074001200004064028784D
:10089000C00747D0082F05D00C2F0AD10120000433
:1008A000864206D1206880033CD568680028E5D0E0
:1008B00038E0012069680004814203D121680143C6
:1008C000216011E0052301221B0492049942216852
:1008D00002D111432160F1E7814321602168014089
:1008E0000091206890432060686800280DD0FFF7D1
:1008F0009DFD009005E0FFF799FD0099401A6428DE
:100900007AD820688003F6D50CE0FFF78FFD0090C1
:1009100005E0FFF78BFD0099401A6428F0D82068A5
:100920008003F6D42878800755D50923E868042F7A
:100930000DD00C2F01D1002E09D000283BD021680A
:10094000994301432160FFF771FD064627E02168C6
:10095000490701D5002891D061681F2212029143F6
:100960002A691202114361602168994301432160A1
:10097000FFF746FFE16809060A0F00E079E1BF4989
:10098000895CC840BE4908600020FFF771FD00285F
:1009900072D120E0FFF74AFD801B0228B0D8206802
:1009A0004007F7D560681F210902884329690902B9
:1009B000084360600FE02068400840002060FFF7B7
:1009C00035FD064604E0FFF731FD801B022897D86D
:1009D00020684007F7D42878C0065FD5002F0CD0D8
:1009E000A869002849D02068FF2101310843206010
:1009F000FFF71CFD06462DE0C0E02068800502D50B
:100A0000A8690028A7D06068072149038843296A9C
:100A1000084360606068297F0002000A09060843F5
:100A20006060286A410B0120C003491C8840E168CE
:100A300009060A0F9149895CC84091490860002065
:100A4000FFF716FD002817D128E0FFF7EFFC801B09
:100A50000228A3D820688005F7D5606807214903DC
:100A60008843296A084360606068297F0002000AA1
:100A700009060843606011E0E1E02168FF200130D1
:100A800081432160FFF7D2FC064604E0FFF7CEFC6D
:100A9000801B022872D820688005F7D42878794E08
:100AA000000724D568690028306910D00121084367
:100AB0003061FFF7BBFC009005E0FFF7B7FC009941
:100AC000401A02285AD830698007F6D50FE040084E
:100AD00040003061FFF7AAFC009005E0FFF7A6FC9C
:100AE0000099401A022849D830698007F6D428783E
:100AF000400765D500200290A06BC00006D4A06B13
:100B0000012109070843A063012002905E480168A3
:100B1000C90511D40168821511430160FFF786FCF5
:100B2000009005E0FFF782FC0099401A642825D860
:100B300055480068C005F5D5FF20AA6801308242FB
:100B400003D131690143316111E001218902002A99
:100B500007D005231B029A4203D132690A4332614E
:100B6000EFE7326982433261306988433061A868B7
:100B700000280FD0FFF75AFC009007E05EE0FFF777
:100B800055FC0099411A4148814257D83069800587
:100B9000F5D50DE0FFF74AFC009006E0FFF746FCB4
:100BA0000099411A3948814248D830698005F5D406
:100BB0000298002804D0A06B012109078843A06394
:100BC000686A002864D00C2F3ED001263606022821
:100BD000206805D0B0432060FFF728FC05462FE0D1
:100BE000B0432060FFF722FC074604E0FFF71EFC3D
:100BF000C01B022822D820688001F7D4E96AA86ABD
:100C0000E2680843296BFD231B049A431143084300
:100C1000E060206830432060FFF708FC054604E0F0
:100C2000FFF704FC401B022808D820688001F7D594
:100C30002EE0FFF7FBFB401B022801D90320FEBD7D
:100C400020688001F5D423E00128F8D0E068012174
:100C50000904AA6A014091420BD10F218904EA6A72
:100C60000140914205D1032189050840296B884242
:100C70000ED00120FEBD00000010024040230008FD
:100C80000400002040100240007000408813000063
:100C90000020EFE7094910B5401E884201D9012024
:100CA00010BD074C60610321081F00F0D5F800203B
:100CB000A06107202061002010BD0000FFFFFF00A1
:100CC00000E000E010B5040003D0606F002802D0FF
:100CD00007E0012010BD002170200155204600F0E2
:100CE00027F82420606720680168490849000160EE
:100CF000204600F0FFF90128ECD0606A002802D0FD
:100D0000204600F061F9206841680922D20291432F
:100D10004160206881682A229143816020680168CF
:100D2000012211430160204600F0B4F910BD00001B
:100D300010B586B0044614216846FFF774FA1149CD
:100D4000206888421CD11048416B01229203114354
:100D50004163C16A01221143C162C06A6946104001
:100D60000590032040020090022001900020029094
:100D7000032003900420049005200007FFF794FA55
:100D800006B010BD0038014000100240FEE7000030
:100D9000F0B587B014216846FFF745FA1C48C16AD0
:100DA00001252943C162C16A29400591C26A022115
:100DB0000A43C262C06A0526084036070590002231
:100DC00004213046FFF72CFB124F002280213846C9
:100DD000FFF726FB04200024009002946946019549
:100DE00003943046FFF760FA402000900A480190D3
:100DF000694602943846FFF757FA80200090029423
:100E00006946019503943846FFF74EFA07B0F0BDE6
:100E100000100240000400500000111010B50C48F2
:100E20000A490160E1214902416000218160C160FD
:100E300001618161C1610C22016242614162FFF77F
:100E400041FF002801D0FFF72DFA10BD0038014006
:100E50004C000020704700008307FF22DB0E9A4001
:100E60008907090E994000280BDA0007000F08389F
:100E7000830808489B001818C36993430B43C36158
:100E80007047830804489B001B1818689043084368
:100E90001860704700ED00E000E400E08307FF22E7
:100EA000DB0E9A408907090E994000280BDA0007EB
:100EB000000F0838830808489B001818C36993433B
:100EC0000B43C3617047830804489B001B181868D4
:100ED000904308431860704700ED00E000E400E034
:100EE000704710B5FFF7A8FA01F004F8002805D004
:100EF00000F0C2FF01F012FA00F0CEFF10BD0000BA
:100F000030B599B034216846FFF78DF914210DA84A
:100F1000FFF789F91C2112A8FFF785F91448016829
:100F20000322D2029143C2148918016002201021C9
:100F300000900491099040040B90000101250024C9
:100F40000C9003950A946846FFF796FC0F200D90CD
:100F500003200E900F941094012111940DA8FFF717
:100F600079FB12A812951494FFF7C2FA19B030BD9C
:100F70000070004010480168821511430160C1688B
:100F80000E4A1140C16001680D4A1140016081683C
:100F9000490849008160016801229204914301607F
:100FA000C168FD2212049143C1600021016105491D
:100FB000C003886070470000001002400C40FF88AA
:100FC000F6FFF6FE00ED00E010B5818CC90707D0F2
:100FD00001684A6801235B049A43836A1A434A60A2
:100FE000818C890707D501684A6801231B049A434D
:100FF000C36A1A434A60818C490707D501684A6869
:1010000001239B049A43036B1A434A60818C0907AE
:1010100007D501684A680123DB039A43436B1A43EF
:101020004A60818CC90607D50268916801231B03B9
:101030009943836B19439160818C890607D50168B8
:101040008A6801235B039A43C36B1A438A60818CCD
:10105000490612D503685A6801210905046C8A43C0
:1010600022435A60026C8A4207D102685168032306
:101070005B059943436C19435160818C090607D580
:1010800001684A680123DB04806C9A4302434A608A
:1010900010BD0000F8B500260446C667FFF7C6F984
:1010A000054620680068124F000709D501212B462C
:1010B000002249052046009700F030F900280DD1A4
:1010C0002068006840070BD501212B4600228905C6
:1010D0002046009700F022F9002801D00320F8BD37
:1010E00020206067A067603426740020F8BD0000EF
:1010F000FFFFFF01F8B504462669A268E76932439D
:101100006669102000253E432368324378491E68F3
:10111000784F3E4016431E6023685A680326360304
:10112000B243E66832435A602368A2698B4201D019
:10113000266A32439E680B273F02BE4316439E60D9
:101140006D4E23686D4AB3420CD1D2689207920F5C
:1011500006D0012A38D0022A34D0032A20D11EE03A
:1011600001201DE0664EB3420AD1D2680C263240FF
:1011700026D0042A28D0082A24D00C2A10D10EE028
:101180008B420DD1D66803229202164018D001225C
:101190009202B61A18D0B61A14D0964200D108207E
:1011A000564A0126403A574FF6038B4236D1002863
:1011B0000CD002280DD0042812D008281FD11CE022
:1011C0000020EDE70220EBE70420E9E7FFF7F8FA5B
:1011D00008E01068C00601D5384605E04A4803E03B
:1011E000FFF70EFB002873D062685100511881424E
:1011F00005D81103814202D303E03046F4E701250C
:1012000066E0010E06025008002330185941FEF72F
:10121000D3FF03210902411A3C4A55E0E169B1427A
:1012200032D1030000F0ABF809070A0D06250606C7
:10123000062B0600E3E7FFF7C3FA1CE0FFF7D0FA3E
:1012400019E010686168C00602D54808304A01E01C
:10125000304A48088018FEF799FF80B201462E4AAE
:1012600010399142CBD8511C01400007400F084370
:101270002CE0FFF7C5FA616840004A08EAE76168B8
:10128000012248081204E5E7030000F078F8090796
:101290000A0D06260606062C0600B0E7FFF790FAB0
:1012A0001DE0FFF79DFA1AE010686168C00602D5DC
:1012B0004808C01902E014484A081018FEF766FFF3
:1012C00080B20146144A1039914298D82168C8600A
:1012D0000020206660662846F8BDFFF791FA616835
:1012E0004A088018EAE7616848088019E6E70000C4
:1012F00000480040F369FFEF003801404010024011
:101300000044004000093D000024F400FFFC0F00F1
:1013100000127A000048E801EFFF0000FFB581B03D
:1013200017460E4604460A9D09E0681C07D0FFF7E1
:101330007DF80499401AA8420CD8002D0AD02068E4
:10134000C1693046884318D00020B842EDD0002053
:1013500005B0F0BD20680168FF22A1329143016011
:101360002068816849084900816020206067A06783
:101370000020603420740320EAE70120E5E730B460
:101380007446641E2578641CAB4200D21D46635D22
:101390005B00E31830BC184710B500F0F9F8401EA8
:1013A00010BD02E008C8121F08C1002AFAD1704718
:1013B0007047002001E001C1121F002AFBD17047D5
:1013C00010B504464868616880088000001D401818
:1013D0006060204600F02AF8204610BD7CB5044627
:1013E000406801AA80088000694600F064F900990D
:1013F0000D48019BCA0112189D00551980350646FB
:101400006A681036E660A260D4606C6001221546FE
:101410008D40046A89002C4304620818416A9A408E
:10142000114341627CBD0000C807002010B504468E
:1014300000F021F8046010BD10B50446FFF7F6FF78
:1014400041680222114341606068012108436060E5
:1014500010BD70B5054600F00EF804460079C007CF
:1014600007D0204600F00FF821462846FFF7A8FFD6
:101470000546284670BD0146406808318008800056
:10148000001F081870471CB50446406801AA800870
:101490008000694600F00FF92046019A009900F09B
:1014A000F3FA1CBD10B5FEF739FE10BD10B50548A6
:1014B000016805480068FEF769FE0449086000F00D
:1014C00011F810BD18000020040000201C000020AE
:1014D00010B5FEF727FE10BDFEF715FE10B500F0A3
:1014E000DFF910BD10B50446002000F0F3F92046E6
:1014F00000F0DCF910BD000030B5039C1C19E408B5
:10150000E400CC2501E01D705B1CA342FBD301234A
:101510001B06251F2B602B1F1860181F0260144A22
:10152000001F0260134A001F0260134A001F02607E
:101530005210001F0260001F01601049001F01606F
:101540001101001F01600E49001F0160D100001F42
:1015500001600C49001F01600B49001F01600B492D
:10156000001F01609000403C2060204630BD00001C
:1015700012121212030303030202020211111111CB
:1015800009090909070707070606060605050505EF
:101590002021002813D0020C01D100041021020EDA
:1015A00001D100020839020F01D10001091F820F89
:1015B00001D18000891E002800DB491E08467047C3
:1015C00000F00EFB00F062F9FAE700001FB5074AD1
:1015D000074900231268096809206C460FC4054AB0
:1015E00005A1074800F05EFD04B010BD68230008A7
:1015F00064230008C115000869646C6500000000E0
:10160000500100200349884201D101207047002089
:10161000704700005001002002480078002800D0E8
:10162000012070470800002002480078002800D000
:10163000012070470900002003490968884201D150
:1016400001207047002070471000002010B50E48A0
:101650000078012817D10D480078002813D10C48D4
:10166000007800280FD100F0E8FB044600F07EF976
:101670000849086008490968884201D0FFF712FF4D
:10168000204600F0D6FB10BD0A0000200800002014
:10169000090000201400002010000020FEF7D4FEF6
:1016A000FFF72EFCFFF774FBFFF7B8FB00F0CAFB57
:1016B00000F076FCFEE770B515460E46044680281D
:1016C00005D2E117890F002009198C1006E0FFF7F9
:1016D00063FE411F0C4120214C40801F30602C6074
:1016E00070BD000070B500220F48114602608B00EB
:1016F0001B18491C5A600329F9DB0B4C1034846118
:10170000C461002102628B001B185A620023CD01C4
:101710002D189E00AE1980365B1C7460202BF8DB00
:10172000491C1829EFDB70BDC807002070B50C46B6
:101730000546FFF7D7FF2146284600F06BFC70BD39
:1017400010B5084A0021136807E08C00A4186468EB
:10175000844201D1012010BD491C8B42F5DC0020E0
:1017600010BD0000C807002070B504460069A169DB
:10177000E2694A601160002121610546217340350C
:10178000297B0A260A2903D000F068FD2E7370BD5C
:10179000427D217D8A42FAD000F060FD267570BD41
:1017A00010B50446FFF7E0FF0421201D00F050F8BB
:1017B00010BD0168814203D03C3901D0487D70479B
:1017C0000A20704710B50A683C3A13463C338B42F6
:1017D00005D0437D547DA34201D3D26BF4E7034689
:1017E0003C33146C13643C3214C3083B2360016522
:1017F000017D02221143017510BD10B5C16B026C51
:101800004A601160016DFFF7DDFF10BDC16B026C16
:101810004A60116000210165017DFD2211400175C2
:10182000704710B50446007D800704D5542001554B
:101830002046FFF7EBFF207DC00702D0204600F0D6
:1018400007FA207D400702D4204600F04BF810BD77
:1018500070B5054600680E4604683C3801463C3CBD
:101860003C31A94205D03146FFF7DBFF2046E46B4F
:10187000F4E770BD10B52C210348FEF7D4FC0249F3
:101880000020087010BD0000CC00002010B50348F7
:101890000078002801D1FFF721FE10BD480000208C
:1018A00010B501210846FEF70BFE10BD074910B523
:1018B000401E884209D8064C60610321081FFFF7CB
:1018C000EDFA0020A0610720206110BDFFFFFF009E
:1018D00000E000E0014610B50020C043FFF7DEFA4B
:1018E00010BD000010B5064A417D1268527D91423C
:1018F00002D100F01BF810BD00F004F810BD00008C
:101900001000002070B50446407D074AC1008D18C4
:101910002968A94201D100F06FF828683C3444607E
:1019200021C4083C2C6070BDF800002070B504464E
:10193000407D074AC1008D182968A94201D100F0F5
:101940005BF83C3468686C6025606060046070BD62
:10195000F80000200449C00041180868884201D1FD
:10196000002070473C387047F800002004480449C4
:10197000007D4039C000401800683C3870470000C6
:10198000380100200B480A2101750A4A0020403A1C
:10199000C1008918401C0960C0B249600A28F7D309
:1019A0000020014683009B18401C00061965000EAC
:1019B000F8D07047380100200549C0004118086878
:1019C0000068884201D10120704700207047000064
:1019D000F80000200749C00041180868884208D074
:1019E0000CC853601A6008384A68486006C0083856
:1019F00010607047F800002041098A0010B50949BD
:101A0000C3065118DB0E1F24E41A01230A6DA340FC
:101A10001A430A65034940310A7D824200D908759C
:101A200010BD0000F800002070B5417D046CC06B53
:101A3000144ACB0044609B182060186898420BD170
:101A4000480980008018CB06DB0E1F24E41A01230E
:101A5000026DA3409A4302650A4D4035287D8842B5
:101A60000ED100242846103002E02034E4B2001DDC
:101A700001680029F9D0084600F0C2F9001928755C
:101A800070BD0000F800002070B58468C368E36092
:101A90009C600E4BCD01ED189600AD1980356E6837
:101AA000864211D1184610306C6084420CD18800F7
:101AB000C518012006466C6A9640B4436C6203D197
:101AC0001A6A884082431A6270BD0000C80700206D
:101AD00070B5064600F0B1F905463046FFF73AFF0B
:101AE000040012D0FFF78EFD00280ED13046FFF71C
:101AF00063FF002809D1FFF797FD002805D1E06DAD
:101B0000002806D0401EE06503D0284600F091F979
:101B100070BD0A480068407DFFF75CFF3046FFF764
:101B200019FF816D002901D105490968C165284661
:101B300000F07FF9FFF78AFD70BD00001000002063
:101B40003800002070B50446FFF75CFD002801D086
:101B50001B4870BD00F071F906462146606C4431A7
:101B600088420AD00568183803E0FFF719FE2846B6
:101B7000AD69011B183D2C29F7D1207D002802D129
:101B80002046FFF751FF207DC00702D0204600F01D
:101B90005FF8207D800702D52046FFF737FEA06A58
:101BA000E16A41600860204600F036F808202075A0
:101BB000304600F03EF9FFF749FD002070BD0000FF
:101BC0006C07000010B5002000F0DCFA10BD10B565
:101BD0000446806900F005FA204600F002FA10BDC4
:101BE00070B500F02AF90B4D0646286804682038C5
:101BF00007E0016A426A4A601160FFF7E8FF204689
:101C0000246A0146203C2031A942F2D1304600F03E
:101C100010F970BD20000020002102460171203221
:101C20000262426208328262C2620C3242638263A2
:101C30000832C2630264083242640A238264121FBB
:101C4000137311750165016641668166C180704735
:101C500070B5044600F0F1F805462046343000F037
:101C6000B9F9002811D1616B084634380DD00D4AFE
:101C700091420AD0226B016B931C5B42994201D8BE
:101C8000891801E00121C9430163606BA16B4160C8
:101C90000860284600F0CDF8207D400840002075FF
:101CA00070BD00003000002070B5064600F0C5F899
:101CB00005461348134C0168891901602068A04249
:101CC00019D03438016BB14205D800210163206876
:101CD000066834380AE0891B01630CE0016B0029B7
:101CE00009D10221FFF79DFD3046766B0146343E57
:101CF0003431A142F2D1284600F09BF870BD0000BB
:101D00000C000020300000200020704770B5044611
:101D100000F093F810490546606909680F4A4118B8
:101D20006161506803E04369994204D3C0680C388C
:101D3000831A0833F7D121460C31036901610C3055
:101D400009C1083919605068884201D16069106082
:101D5000284600F06EF870BD0C0000203C0000200A
:101D600070B5044600F069F80C4903464D68E06818
:101D7000226942600C3D1060A54207D1E0680C3436
:101D8000A04207D00C3805D040690860184600F022
:101D900050F870BD0020C043F7E700003C00002071
:101DA000F8B5154E154F3068396888421DD300F0DC
:101DB000A9F8746825680C3C11E0606939688842AC
:101DC00011D82046FFF7CCFF208C02280ED003212B
:101DD000222001556168A06888472C46ED68A01B49
:101DE0000C3D0830E9D100F0B3F8F8BDE06960615E
:101DF0002046FFF78BFFEDE73C0000200C000020A1
:101E00000021020C01D100041021020E01D10002B8
:101E10000831020F01D10001091D820F01D180009C
:101E2000891C002803DB491C002800D1491C0846F6
:101E3000704710B5FEF764F910BD10B5FEF75CF9F8
:101E400010BD000010B5FFF731FBFFF79BFD01212E
:101E500089020848FFF76AFC00280AD1FFF7B6FBA1
:101E6000002806D1FFF750FF002802D1FFF702FD3E
:101E7000002010BDC803002005480078012805D1C6
:101E800004480178FA2901D2491C0170704700000A
:101E90000A0000200800002010B511480078012831
:101EA0001CD1FFF7CAFF04460E480178002912D062
:101EB000491E0906090E01700DD10B480078002853
:101EC00009D1FFF753FD09490860094909688842AB
:101ED00001D0FFF7FDFA2046FFF7ABFF10BD000071
:101EE0000A00002008000020090000201400002043
:101EF0001000002002480078012800D00020704720
:101F00000A00002010B50F480078002816D10E48AE
:101F10000078012802D0FF20F53010BD0B4C20784E
:101F2000FA2802D34B20C00010BDFFF786FF2178AE
:101F3000491C2170FFF77DFF002010BDFF2091306C
:101F400010BD0000080000200A0000200900002049
:101F500010B50F480078002817D10E4800780128E6
:101F600002D0FF20F53010BD0B4C207800280AD09D
:101F7000FFF763FF2178491E2170FFF75AFFFFF733
:101F800065FB002010BD054810BDFF20913010BD3D
:101F9000080000200A00002009000020A50600001B
:101FA00010B5094C207801280BD0FFF7DFFC07495A
:101FB00008600749086001202070FFF78DFA0020B3
:101FC00010BDFF20F63010BD0A00002014000020D4
:101FD000100000200168814201D1012070470020DB
:101FE000704770B5002814D008380446FFF724FA6B
:101FF0002079800708D525682846FFF744FA21464E
:102000002846FFF7DDF904462046FFF722FAFFF7DE
:10201000E5F970BDF8B5204E0446306801270D463D
:10202000032806D02046FFF78BFB002804D01B486E
:10203000F8BD1A48401EF8BDA807800F291A0839B4
:10204000A00702D019204001F8BD0846144A0C38F8
:10205000904202D31148801EF8BD2078251F8007CA
:10206000800F084338430227B84320602846FFF713
:10207000B5F92846FFF7DAF901798907890F490888
:1020800049003943416030688000801944603068FD
:10209000401C30600020F8BDC8070020230300006A
:1020A000F5FFFF3FFFB581B004460A9F0C9E0D9DD2
:1020B000FFF7B2FA00284FD1002C50D00398002827
:1020C0004DD00B9800284AD0402E4AD3092F01D07A
:1020D00049D804E02046FFF795FA002843D020466F
:1020E000FFF79AFD214920460A6828305060A26215
:1020F000E16208601E49E1800120207100961D4ABE
:102100000B9B04990398FFF7F7F920600398E060B0
:10211000049820610298A06067750B98E661A56538
:10212000A061002D14D0E565FFF787FE054600206D
:1021300020752046FFF7FAFB2846FFF77AFEFFF7E7
:10214000D9FE002801D0FFF781FA002005B0F0BDCC
:1021500009480068E065E7E7FF209130F6E70748A7
:10216000F4E70748F2E70648401FEFE728000020A1
:10217000D1DA0000C51B0008380000204C04000024
:1021800073070000F8B50446FFF746FA002854D15B
:10219000002C4FD0E0882C4F2C4DB84215D1204652
:1021A000FFF74AFA2A4E002803D0FFF73DFA00282D
:1021B00034D1207902280AD0FFF72EFA00283CD12A
:1021C000002C3DD0E088B8421FD02846F8BDFFF76C
:1021D00099FE2046FFF7B6FC050002D0FFF7B8FED7
:1021E000F3E72046FFF728FA002807D019482034E3
:1021F00001684C6021606060046002E02046FFF7E7
:10220000E6FCFFF7A5FE0020F8BD2046FFF714FA14
:10221000002805D0FFF708FA002801D03046F8BDA5
:102220002079012802D00948401CF8BD2046FFF75C
:1022300089FCF8BD08480468ACE7FF209130F8BD80
:1022400005480468BEE70000D1DA00004D04000034
:10225000A40600002000002010000020F8B50D4664
:1022600004004CD0E0882A49884201D02948F8BDB2
:10227000FFF7D2F9002845D1092D46D2FFF7DDFD41
:102280000090607DA84233D02046676C443087427E
:1022900011D00A2606E0381DFFF78BFAB04200D2B3
:1022A0000646BF69183F381B2C28F4D1B54202D925
:1022B0004C2005553546207D810704D5657520469F
:1022C000FFF79BFA14E0C10701D0657510E0002804
:1022D0000ED12046FFF7A8FB65752046FFF7ACF945
:1022E0000028204602D0FFF70DFB01E0FFF71EFBA0
:1022F0000098FFF79EFDFFF7A9F90020F8BD0548FB
:10230000401EF8BDFF209130F8BD0348F8BD000025
:10231000D1DA00004D0400006E07000010B5FFF791
:10232000E9FD002809D00120FFF7BEFCFFF738FDCA
:1023300002480068407DFFF7CBFB10BD1000002075
:102340000000000000000000010203040607080965
:10235000030406080C1018203000000000010203DE
:1023600004000000C8010020000200008C230008C7
:10237000000000204C000000A2130008D823000831
:102380004C00002004180000B213000800000000F8
:10239000000020000000000000000000000000001D
:1023A00000000000E8030000000000002000002002
:1023B00020000020280000202800002030000020FD
:1023C0003000002064000000FFFFFFFF40000020FD
:0823D0004000002000000000A5
:04000005080000C12E
:00000001FF
